:020000040800F2
:10000000905500206102000829220008511D0008B7
:10001000811F000869070008AB33000800000000DA
:10002000000000000000000000000000A101000826
:10003000F716000800000000FD010008F526000882
:100040007B0200087B0200087B0200087B0200089C
:100050007B0200087B0200087B0200087B0200088C
:100060007B0200087B0200087B0200087B0200087C
:100070007B0200087B0200087B0200087B0200086C
:100080007B0200087B0200087B0200087B0200085C
:100090006D0700087B0200087B0200087B02000855
:1000A0007B0200087B0200087B0200087B0200083C
:1000B0007B020008912700083D2800087B02000809
:1000C0007B0200087B0200087B0200087B0200081C
:1000D0007B020008A92C0008E52D0008112E00085D
:1000E0007B0200087B0200087B0200087B020008FC
:1000F0007B0200087B0200087B0200087B020008EC
:100100007B0200087B0200087B0200087B020008DB
:10011000CD290008D12A00087B0200087B020008D4
:100120007B0200087B0200087B0200087B020008BB
:100130007B0200087B0200087B0200087B020008AB
:100140007B0200087B0200087B0200087B0200089B
:100150007B0200087B0200087B020008652F000874
:100160007B0200087B0200087B0200087B0200087B
:100170007B0200087B0200087B0200087B0200086B
:100180007B0200087B020008DFF810D000F08CFA38
:10019000004800471D450008AFF30080905500203F
:1001A0002C4B19680868B0E8F04F80F30988BFF35A
:1001B0006F8F4FF0000080F311887047000000003F
:1001C00008480068006880F308884FF0000080F35A
:1001D000148862B661B6BFF34F8FBFF36F8F00DF35
:1001E00000BF00BF08ED00E0DFF80C00016841F43B
:1001F00070010160704700BF88ED00E0EFF30980F7
:10020000BFF36F8F134B1A681EF0100F08BF20ED5D
:10021000108A20E9F04F106009B44FF0500080F3CD
:100220001188BFF34F8FBFF36F8F06F0E3F94FF0E4
:10023000000080F3118809BC19680868B0E8F04F25
:100240001EF0100F08BFB0EC108A80F30988BFF3CE
:100250006F8F704728050020EFF30580704700007E
:100260000648804706480047FEE7FEE7FEE7FEE750
:10027000FEE7FEE7FEE7FEE7FEE7FEE729270008C8
:100280008901000840EA01039B0703D009E008C97F
:10029000121F08C0042AFAD203E011F8013B00F84B
:1002A000013B521EF9D270472DE9FE4F81EA03044B
:1002B00004F0004421F0004100944FF0000B23F0C3
:1002C000004350EA01045ED052EA03045BD0C3F35A
:1002D0000A54C1F30A552C44A4F2F3340194A0FB50
:1002E0000254C1F3130141F48011C3F3130343F427
:1002F000801301FB024400FB034E840A970A44EA80
:10030000815447EA8357A4FB076802958D0A05FBD1
:1003100007854FEA932C04FB0C542705029D4FEAF6
:10032000065847EA1637B5EB08056EEB070C870E43
:10033000920E47EA811742EA8312A7FB0201B6EB4D
:100340000B0164EB00042B0D43EA0C335E1844EB05
:100350001C50DA465146E7FB0201C5F313044FEA8D
:100360000B3343EA14534FEA0432019C43EA060379
:10037000A4F10C040294009CCDE900B400F045F90E
:1003800003B0BDE8F08F00200146F9E72DE9F04DFC
:1003900081EA030404F0004B21F0004514464FF0BD
:1003A000000A23F0004150EA050220D054EA01027D
:1003B0001DD0C5F30A570246C5F31303C1F313005A
:1003C000C1F30A5640F4801543F48013A7EB0608E6
:1003D000101BD64608F2FD3873EB050002D308F176
:1003E000010801E092185B41B8F1000F03DA002028
:1003F0000146BDE8F08D00204FF48011064684468A
:100400000EE0171B73EB050705D3121B63EB050307
:1004100006434CEA010C49084FEA300092185B4150
:1004200050EA0107EDD152EA030012D082EA04003B
:1004300083EA0501084305D0101BAB4106D2012217
:10044000002306E000224FF0004302E06FF00102BB
:1004500053101AEB06004CEB085110EB0A0041EB6D
:100460000B01BDE8F04D00F0C1B80EB5C10F80EA38
:10047000E0700844CA07002140F233438DE80E00C3
:100480000A460B4600F0C1F803B000BD00F0004280
:1004900030F000400AD0C10D01F56071C0F31600C4
:1004A00042EA0151C208400711437047002001464B
:1004B0007047000030B5041E71F1000404DB4FF0FA
:1004C0000044404264EB0101141E73F1000405DB9B
:1004D0001C464FF00043524263EB04038B4208BFBB
:1004E000824230BD01F0004330B421F0004150EAB7
:1004F000010206D00A0DA2F56072C1F31301002AB1
:1005000002DC30BC00207047440F44EAC104C10043
:10051000E01830BC00EBC25000F031B82DE9F05FBC
:100520000546002092469B46884606468146402462
:100530001BE0284641464746224600F0D6F853467F
:100540005A46C01A914110D311461846224600F06F
:10055000BDF82D1A67EB01084F4622460120002105
:1005600000F0B4F817EB00094E41201EA4F101047D
:10057000DFDC484631462A464346BDE8F09F002965
:10058000A8BF7047401C490008BF20F00100704719
:1005900010B4B0FA80FC00FA0CF050EA010404BF79
:1005A00010BC704749B1CCF1200421FA04F411FACF
:1005B0000CF118BF012121430843A3EB0C01CB1D13
:1005C0004FEA00614FEA102042BF002010BC704784
:1005D00000EBC35010440029A4BF10BC7047401C5E
:1005E000490008BF20F0010010BC704710B5141E70
:1005F00073F1000408DA401C41F1000192185B41DC
:100600001A4301D120F0010010BD2DE9F04D9246B2
:100610009B4611B1B1FA81F202E0B0FA80F22032C9
:10062000904600F053F804460F4640EA0A0041EABB
:100630000B0153465A46084313D0114653EA0100B2
:1006400019D0C8F14002504600F04FF805460E465A
:1006500050465946424600F039F8084305D001207B
:1006600004E020463946BDE8F08D0020054346EA07
:10067000E0762C4337430A986305E40AA0EB0800B0
:100680000022FD0A44EA47540A3002D50020014600
:10069000E9E7010510196941DDE9084500196941DB
:1006A000BDE8F04DA2E70000064C074D06E0E0680B
:1006B00040F0010394E8070098471034AC42F6D3A9
:1006C000FFF766FDB8720008D8720008202A04DB24
:1006D000203A00FA02F1002070479140C2F1200355
:1006E00020FA03F3194390407047202A04DB203A94
:1006F00021FA02F00021704721FA02F3D040C2F142
:100700002002914008431946704770B58D1810F8C3
:10071000014B14F0030201D110F8012B231106D173
:1007200010F8013B03E010F8016B01F8016B521E59
:10073000F9D1ABB110F8012B04F00C048A1A0C2C7F
:1007400003D0A2EB84129B1C08E010F8014BA2EB33
:100750000422F8E712F8014B01F8014B5B1EF9D5B2
:10076000A942D4D3002070BD00BFFEE710B586B00B
:1007700023E001AA0021154800F0D0F8002017E07E
:1007800013490988491C8CB22146E21704EB126216
:100790001212A4EB022294B20D490C800DF10F014C
:1007A000095C0C4A0A4B1B8822F81310411CC8B282
:1007B0009DF80E108142E3DC00BF0021034800F0E9
:1007C0009EF80028D5D106B010BD0000006400409E
:1007D00094010020C40D00201AB143690B4343610A
:1007E00002E043698B434361704730B50246002005
:1007F0000023146824F002041460146844F0010417
:10080000146000E05B1C546804F001041CB94FF64E
:10081000FF74A342F6D1546804F001040CB900201F
:100820006CE08C79012C04D1146844F080041460CD
:1008300003E0146824F080041460CC79012C04D106
:10084000146844F04004146003E0146824F0400489
:1008500014600C7A012C04D1146844F02004146054
:1008600003E0146824F0200414604C7A012C04D1B5
:10087000146844F01004146003E0146824F01004B9
:1008800014608C7A012C04D1146844F008041460BC
:1008900003E0146824F008041460CC7A012C04D11D
:1008A000146844F00404146003E0146824F00404A1
:1008B00014608C78A407CD7844EA05640D7944EA85
:1008C00005444D7944EA05540D886D1E2C43D461CE
:1008D000146824F001041460002300E05B1C5468D9
:1008E00004F001041CB14FF6FF74A342F6D1546822
:1008F00004F001040CB1002000E0012030BD0246EC
:10090000002019B9D36803F0030006E0012903D1E0
:10091000136903F0030000E00020704710B500F5F4
:10092000D87303EB01131B6803F004031372137AEB
:1009300053B900F5D87303EB01131B6840F2FF7441
:1009400004EA5353136009E000F5D87303EB011375
:100950001B686FF0604404EAD303536000F5D8735A
:1009600003EB01131B6803F00203537200F5D87305
:1009700003EB01135B6803F00F03937200F5D87368
:1009800003EB01135B681B0AD37400F5D87303EB08
:1009900001139B68D37200F5D87303EB01139B68B6
:1009A0001C0A147300F5D87303EB01139B681C0C2D
:1009B000547300F5D87303EB01139B681B0E9373FC
:1009C00000F5D87303EB0113DB68D37300F5D8731C
:1009D00003EB0113DB681C0A147400F5D87303EBF6
:1009E0000113DB681C0C547400F5D87303EB01137E
:1009F000DB681B0E937421B9C36843F02003C36006
:100A000003E0036943F02003036110BD70B50546A0
:100A10000C4600260DB1022C01D8002070BDA11E8D
:100A2000284601F0AFFA0646F1B2601E285C81420A
:100A300006D1A01E285CB0EB162F01D10120EDE7F6
:100A40000020EBE700B585B00121084601F088FCE5
:100A50000121480601F094FC09220B211C4800F0FA
:100A60000FFF09220C211A4800F00AFF4FF4C05072
:100A7000039002208DF810008DF8110000208DF8F1
:100A8000120001208DF8130003A9114800F0B0FEF8
:100A900000208DF806008DF807008DF808008DF80D
:100AA00009008DF80A008DF80B008DF802008DF812
:100AB000030002208DF8040001208DF805000620B7
:100AC000ADF8000069460348FFF78FFE05B000BD92
:100AD000000002400064004008B5684604F04CFB8A
:100AE00070B116499DF8000000F006FE40B11348B1
:100AF000134908600020134908800120124908703A
:100B0000684603F0B3F8C0B110499DF8000000F04A
:100B1000F3FD90B10D480A490860407938B10B489F
:100B200040793F2803D009484079FF2802D10020AE
:100B30000449088001200449087008BDE00900202C
:100B40009C00002078000020A0000020C40F00209E
:100B50002DE9F84F07460C4690464FF00009CA466B
:100B600000250026A346A01D00900425A7F15000F3
:100B700010283AD2DFE800F01608190F1E232629A4
:100B80002C2F3239393939354FF0340903254FF0DC
:100B9000400A01262BE04FF03D0903254FF02E0AB5
:100BA000012624E04FF0300921E04FF037094FF0E3
:100BB00003081CE04FF03A094FF0030817E04FF02C
:100BC000410914E04FF0450911E04FF049090EE0EA
:100BD0004FF04D090BE04FF0510908E04FF0550977
:100BE00005E01448D0F8009001E0BDE8F88F00BFA0
:100BF000B8F1030F01D1032500265DB16A000E494B
:100C000001EB49005946FFF73DFB294648460B4A90
:100C1000126890475EB17200074901EB4A000099E3
:100C2000FFF730FB31465046044A1268904700BF38
:100C3000DBE70000880500206C50002074050020D0
:100C400070B505460C46224640F26711284601F071
:100C500077FA70BD7CB506460C461546A0B2ADF8D5
:100C600004004FF6FF7000EA1440ADF8060001AB37
:100C7000022240F265113046009501F0D5F97CBDA5
:100C800070B505460C46B4F5803F01DB4FF6FF74A6
:100C9000012C00DA012422464FF4B171284601F0FC
:100CA0004FFA70BD70B505460C46B4F5803F01DBC8
:100CB0004FF6FF74012C00DA0124224640F2631142
:100CC000284601F03DFA70BD70B505460C46224637
:100CD0004FF49671284601F033FA70BD70B50546A1
:100CE0000C46224640F26111284601F029FA70BDF7
:100CF00070B505460C46B4F5004F01DD4FF40044D5
:100D000014F5004F00DA044CA2B24FF4B271284639
:100D100001F016FA70BD00000080FFFF7CB50646AA
:100D20000C461546A0B2ADF804004FF6FF7000EA7D
:100D30001440ADF8060001AB02224FF4D7713046E3
:100D4000009501F071F97CBD70B505460C46224650
:100D50004FF4C971284601F0F3F970BD70B505462E
:100D60000C46B4F5803F01DB4FF6FF74012C00DA2E
:100D70000124224640F29511284601F0E1F970BDA8
:100D800070B505460C46B4F5803F01DB4FF6FF74A5
:100D9000012C00DA012422464FF4CB71284601F0E1
:100DA000CFF970BD70B505460C4622466521284630
:100DB00001F0C6F970BD70B505460C4622466421A7
:100DC000284601F0BDF970BD2DE9FC4780460D466F
:100DD00016461F46DDF8289035B1012D06D0022DAC
:100DE00006D0032D08D105E0C82408E0CA2406E097
:100DF000CC2404E0CE2402E00020BDE8FC8700BF44
:100E0000ADF80460ADF8067001AB02222146404601
:100E1000CDF8009001F008F9EFE72DE9FE4F044608
:100E20000026012702A833463A46002100902046BA
:100E3000FFF7CAFF05469DF80810284601F054FB4D
:100E4000042002F08DFFB04641462046FFF7AAFF7E
:100E500005460821284601F047FB042002F080FFE8
:100E6000002032231A4604210090204600F029F980
:100E7000042002F075FF00200A2132231A46CDE932
:100E800000100146204600F06DF8042002F068FFD3
:100E90004FF0050949462046FFF78DFF054608211A
:100EA000284601F021FB042002F05AFF01260A2700
:100EB00002A833463A46032100902046FFF784FFFC
:100EC00082469DF8081001F00FFB042002F048FF55
:100ED00000BF012702A833463A4600210090204671
:100EE000FFF772FF05469DF80810284601F0FCFA4E
:100EF000042002F035FFBDE8FE8F2DE9FC410746D6
:100F00000E460A2003F020FC26B1012E12D0022E3C
:100F100021D11FE000240A2501A823462A460321E7
:100F200000903846FFF750FF80469DF8041001F00E
:100F3000DBFA11E001240A2501A823462A460321F1
:100F400000903846FFF740FF80469DF8041001F0FE
:100F5000CBFA01E000E000BF00BF0A2003F0F4FB81
:100F6000BDE8FC812DE9F84F06460F4614461D46A4
:100F7000DDE90A894FF0030A51463046FFF7A4FE27
:100F800083460821584601F0AFFA042002F0E8FE3B
:100F900039463046FFF7A2FE83460821584601F045
:100FA000A3FA042002F0DCFE21463046FFF768FE7B
:100FB00083460821584601F097FA042002F0D0FE3B
:100FC00029463046FFF76EFE83460821584601F059
:100FD0008BFA042002F0C4FE642008FB00F13046C6
:100FE000FFF786FE83460821584601F07DFA04206B
:100FF00002F0B6FE6A4649463046FFF72BFE8346AE
:101000009DF80010584601F06FFA042002F0A8FE87
:10101000BDE8F88F2DE9F0412DED028B0646B0EECC
:10102000408A042003F090FBB5EEC08AF1EE10FA7E
:1010300001DD012404E00024B1EE480AB0EE408A4C
:101040009FED120A28EE000AF2EE040A20EE200AB2
:10105000BCEEC00A10EE101A304600F019F8012C50
:1010600001D1012500E00225042003F06DFB294693
:101070000120FFF7E5FD0746082101F035FA0420BD
:1010800003F062FBBDEC028BBDE8F0810000C842BA
:10109000F8B504460D46042003F056FB6A4629467F
:1010A0002046FFF7D7FD06469DF8001001F01CFA18
:1010B000F8BD10B504460122CF21204600F078FF8C
:1010C00010BD2DE9F84306460F4614461D46DDF8CF
:1010D0002080042002F044FE39463046FFF734FEFB
:1010E00081460821484601F0FFF9042002F038FE4D
:1010F00021463046FFF732FE81460821484601F07E
:10110000F3F9042002F02CFE29463046FFF738FEA2
:1011100081460821484601F0E7F9042002F020FE4C
:101120006A4641463046FFF7F9FD81469DF80010BA
:10113000484601F0D9F9042002F012FEBDE8F88318
:10114000F8B505460C46022003F0FEFA0B4884422F
:1011500001DD044604E009484042844200DA0446C6
:101160006A4621462846FFF7D9FD06469DF800103D
:1011700001F0BAF9022003F0E7FAF8BD4054890003
:1011800070B505460C4622464FF40071284600F023
:10119000D7FF70BD7CB506460C461546A0B2ADF82B
:1011A00004004FF6FF7000EA2440ADF8060001ABE2
:1011B000022240F209513046009500F035FF7CBD17
:1011C0007CB506460C461546A0B2ADF804004FF6B5
:1011D000FF7000EA1440ADF8060001AB022240F2B5
:1011E00007513046009500F01FFF7CBD70B50546E5
:1011F0000C46224641F20F11284600F0A1FF70BDB7
:1012000070B505460C46224641F20411284600F00E
:1012100097FF70BD70B505460C4622464FF48851C5
:10122000284600F08DFF70BD7CB506460C4615467D
:10123000A0B2ADF804004FF6FF7000EA2440ADF80C
:10124000060001AB022241F20C113046009500F07D
:10125000EBFE7CBD70B505460C46224641F20E11F0
:10126000284600F06DFF70BD70B505460C4622465D
:1012700041F20111284600F063FF70BD70B50546CC
:101280000C4622464FF4A061284600F059FF70BD7D
:1012900070B505460C46A2B240F20361284600F044
:1012A0004FFF70BD70B505460C46224640F2026104
:1012B000284600F045FF70BD70B505460C46B4F5F4
:1012C000803F01DB4FF6FF74012C00DA0124224637
:1012D00040F20561284600F033FF70BD70B5054649
:1012E0000C46B4F5803F01DB4FF6FF74012C00DAA9
:1012F0000124224640F20661284600F021FF70BD1D
:101300002DE9FC4780460D4616461F46DDF828901D
:1013100035B1012D07D0022D08D0032D0CD108E0E6
:1013200040F202340BE04FF4417408E040F206341E
:1013300005E04FF4427402E00020BDE8FC8700BFE6
:10134000ADF80460ADF8067001AB022221464046BC
:10135000CDF8009000F068FEEFE72DE9FC4104466F
:10136000042002F0FDFC00250126002701A83B46D1
:101370003246294600902046FFF7C2FF80469DF87E
:10138000041001F0B1F8204600F082F9204600F088
:10139000CFF8BDE8FC812DE9FC4705460C4604204A
:1013A00003F0D2F900260127B04601A843463A4689
:1013B000314600902846FFF7A3FF81469DF80410B0
:1013C00001F092F8042003F0BFF96CB1012C02D0B7
:1013D000022C1BD111E001212846FFF7D1FE8146E6
:1013E000082101F081F812E000212846FFF7C8FE2D
:1013F0008146082101F078F809E002212846FFF72C
:10140000BFFE8146082101F06FF800E000BF00BF79
:101410000A2003F099F94FF0010801A843463A4623
:10142000314600902846FFF76BFF81469DF8041077
:1014300001F05AF8042003F087F9BDE8FC872DE994
:10144000F0412DED028B82B00446B0EE408A0A20B6
:1014500003F07AF9BDEEC80A10EE100A6422504378
:1014600000EB8000410001AA2046FFF7DDFE804628
:101470009DF8041001F038F80A2003F065F9012501
:101480001C26002701A83B463246294600902046EC
:10149000FFF736FF80469DF8041001F025F80A207A
:1014A00003F052F9012701A83B4632462946009035
:1014B0002046FFF725FF80469DF8041001F014F840
:1014C000042003F041F902B0BDEC028BBDE8F081CD
:1014D0002DE9FC41044601251C26012701A83B46B5
:1014E0003246294600902046FFF70AFF80469DF8C5
:1014F000041000F0F9FF0A2003F026F9BDE8FC8192
:101500002DE9FC41044601251C26002701A83B4685
:101510003246294600902046FFF7F2FE80469DF8AD
:10152000041000F0E1FF0A2003F00EF9BDE8FC8191
:101530002DE9FC470446042002F012FC01251C267C
:10154000002701A83B463246294600902046FFF777
:10155000D7FE82469DF8041000F0C6FF042002F07A
:10156000FFFB01AA69042046FFF72AFE82469DF888
:10157000041000F0B9FF042002F0F2FB01AA4FF4BE
:1015800061612046FFF706FE82469DF8041000F0D8
:10159000ABFF042002F0E4FB4FF002084146204676
:1015A000FFF76CFE8246082100F09EFF042002F047
:1015B000D7FB4FF0000949462046FFF72BFE824635
:1015C000082100F091FF042002F0CAFB012120460F
:1015D000FFF74AFE8246082100F086FF042002F051
:1015E000BFFB41F288312046FFF734FE82460821D6
:1015F00000F07AFF042002F0B3FB00212046FFF741
:10160000FFFD8246082100F06FFF042002F0A8FBD6
:1016100032212046FFF7EAFD8246082100F064FFF0
:10162000042002F09DFB01AA00212046FFF7FCFDEB
:1016300082469DF8041000F057FF042002F090FB52
:10164000BDE8FC8710B5044601225102204600F097
:10165000AFFC10BD70B505460C46042003F074F8CD
:1016600041F27070844201DD044603E00748844281
:1016700000DA044621462846FFF70AFE06460821FE
:1016800000F032FF042003F05FF870BD90E8FFFF28
:1016900070B50446042002F063FB0025294620466D
:1016A000FFF700FE0646082100F01EFF042002F0AE
:1016B00057FB32212046FFF7FFFD0646082100F0C8
:1016C00013FF042002F04CFB32212046FFF706FEF8
:1016D0000646082100F008FF042002F041FB00212B
:1016E0002046FFF7D5FD0646082100F0FDFE042048
:1016F00002F036FB70BD704770B505460C4694F895
:10170000060250B9AA2D06D194F80612481C84F896
:10171000060265541AE0002070BD94F80612481CB9
:1017200084F80602655494F806020F280ED120466C
:1017300003F004FD38B1002084F80602204602F0D0
:1017400099FB0120E8E7002084F806020020E3E787
:101750001CB50121102000F003FE4FF47E500090D4
:1017600001208DF8040000208DF8060003208DF87C
:10177000050001208DF807006946074800F038F899
:101780004FF46071044800F0A9F84FF4705102481A
:1017900000F0A2F81CBD0000001002401CB50121A1
:1017A000082000F0DDFD1820009000208DF80400D6
:1017B0008DF8060003208DF8050002208DF8070043
:1017C0006946084800F014F80821064800F07BF844
:1017D000054908701021034800F075F803490870A6
:1017E0001CBD0000000C0240960000209700002065
:1017F000F0B50A4600210023002400BF3DE001258A
:1018000005FA01F3156805EA03049C4234D1056822
:101810004F000326BE40B543056015794E00B54024
:101820000668354305601579012D02D01579022D22
:1018300016D185684F000326BE40B54385605579B3
:101840004E00B540866835438560456801268E4068
:10185000B5434560456896798E40B6B235434560DC
:10186000C5684F000326BE40B543C560D5794E001C
:10187000B540C6683543C560491C1029BFD3F0BDCB
:10188000F0B5002300244D07ED0E02FA05F3CE104B
:1018900000F1200555F826504E07F70E0F26BE40E2
:1018A000B543CF1000F1200646F82750CE1000F1C6
:1018B000200555F8265045EA0304CE1000F1200516
:1018C00045F82640F0BD0246002013690B400BB1DD
:1018D000012000E00020704741837047018370477A
:1018E0001CB50020009001900121082000F038FD77
:1018F0006020009000208DF804008DF807006946F4
:101900000148FFF775FF1CBD000C0240F648007847
:1019100001286FD1F5480078012844D1F4480078B7
:10192000002877D1F3488079C009F3490860F1486D
:101930000079C009F1490860EE48C07800F0010064
:10194000EF490860EB48C078C0F34000ED490860FB
:10195000E848C078C0F38000EB490860E548C078EB
:10196000C0F3C000E9490860E248C078C0F3001045
:10197000E7490860DF48C078C0F34010E5490860D7
:10198000DE480068002837D0DD48006860B180205C
:10199000E1490870E1490880E1490880E14908808F
:1019A0000020E14908809EE10020DB490870D14811
:1019B0004079DE490880CF48007ADD490880CD486B
:1019C000C079D6490880DA480088D5490880D348CC
:1019D0000088802804DAC748807AD249088005E068
:1019E000C448807AC0F58070CE4908808020CE49F6
:1019F000088078E159E10DE01020C7490870802087
:101A0000C6490880C6490880C64908800020C649E2
:101A1000088068E1B748C07D20B110287ED0F42846
:101A20007DD11BE1B34800780F2879D1B1484078C7
:101A3000B049897840EA0120C0F30A00BD494880D6
:101A4000AC488078C010AB49C97840EA4110C0F377
:101A50000A00B8498880A748C0788011A54909794B
:101A600040EA8100A349497940EA8120C0F30A0095
:101A7000B049C8809F48407940109E49897940EA22
:101A8000C110C0F30A00AB4908819A48807900115F
:101A90009849C97940EA0110C0F30A00A549488174
:101AA0009448C079C0119349097A40EA41009149AC
:101AB000497A40EA4120C0F30A009E4988818D4856
:101AC000407A80108B49897A40EA8110C0F30A007D
:101AD0009849C8818748807A40118649C97A40EA86
:101AE000C100944908828348007B8249497B40EACF
:101AF0000120C0F30A008F4948827E48407BC01015
:101B00007C49897B40EA4110C0F30A0089498882F8
:101B10007848807B80117749C97B02E09DE0C2E074
:101B20006AE040EA81007349097C40EA8120C0F301
:101B30000A008049C8826F48007C40106D49497C8A
:101B400040EAC110C0F30A007A4908836948407C22
:101B500000116849897C40EA0110C0F30A00754908
:101B600048836448807CC0116249C97C40EA4100D6
:101B70006049097D40EA4120C0F30A006D4988832D
:101B80005C48007D80105B49497D40EA8110C0F3CC
:101B90000A006849C8835748407D40115549897DEE
:101BA00040EAC10063490884084640885D490880CE
:101BB00060488088594908805E48008958490880F3
:101BC0005C48C088584908805A4840895A4908806A
:101BD00058488089594908804648C07D4E49087058
:101BE00001204449087000204049087041490870AC
:101BF00048708870C87010E03E48007868B93D4869
:101C0000407850B94FF47A704649088043490880BB
:101C1000434908800020444908804948007868B159
:101C20004848007850B93C48007838B90120464906
:101C30000870464908700020414908704148007802
:101C4000102809D13448007830B901203E49087085
:101C5000314800783B49087026E000BF10202E492B
:101C600008703848007850B908460078102806D126
:101C70000120364908702848007832490870002051
:101C80002849088025490880254908802948C088B6
:101C900025490880274840892749088025488089A8
:101CA0002649088000E000BF1DE010201149C875DA
:101CB0000846C07D184908700D48007838B9802062
:101CC00016490880164908801649088006E0002059
:101CD00012490880124908801249088000201249E0
:101CE00008800749086070472C0100201D01002072
:101CF00097000020480D0020400100203C010020FA
:101D000044010020480100204C0100205001002027
:101D100054010020580100202A0100201E0100204B
:101D20002001002022010020240100203801002091
:101D30003A010020620D0020260100202801002029
:101D40005C0100202B010020F7040020F604002095
:101D500000BFFEE710B5AA2380F80031552440F2F9
:101D600001131C543E245B1C1C5400F580733D4C35
:101D70006489A0F803413B4C248AA0F80541394C02
:101D8000E48AA0F80741374CA48BA0F80941354CF0
:101D9000648CA0F80B41334C248DA0F80D4140F227
:101DA0000F13304C247A1C545B1C2E4CA47B1C5407
:101DB0005B1C2C4C247D1C5400F580732A4C248819
:101DC000A0F81241294C2488A0F81441284C2488FA
:101DD000A0F81641274C2488A0F81841264C2488E6
:101DE000A0F81A41254C2488A0F81C411D4CE48819
:101DF000A0F81E411B4CA489A0F82041194C648A0C
:101E0000A0F82241174C248BA0F82441154CE48BF8
:101E1000A0F82641134CA48CA0F82841184C246843
:101E2000C0F82A41174C2468C0F82E41164C24886B
:101E3000A0F832410C2480F83441144B1C7880F80F
:101E40003541002480F83D410022002105E000F5E5
:101E500080735B5C5A404B1CD9B23D29F7DB80F89C
:101E60003D2110BDCC0C0020F8000020FA0000201D
:101E7000FC000020FE0000200001002002010020E4
:101E80001400002024000020780000202A010020F7
:101E90007CB504460D460020009001904FF47A7006
:101EA000B4FBF0F0C0B28DF804006420B4FBF0F095
:101EB0000A21B0FBF1F201FB12008DF803000A20A9
:101EC000B4FBF0F0B0FBF1F201FB12008DF8020060
:101ED0000A20B4FBF0F100FB11408DF801004FF433
:101EE00070511648FFF7FAFC1DF80510144A505CB3
:101EF00000F008FB012D06D0022D0AD0032D0ED0D4
:101F0000042D18D111E04FF480610C48FFF7E4FC78
:101F100012E04FF400610948FFF7DEFC0CE04FF4DB
:101F200080510648FFF7D8FC06E04FF40051034803
:101F3000FFF7D2FC00E000BF00BF7CBD00100240F4
:101F4000860000201CB50121084600F009FA302067
:101F5000009001208DF8040000208DF80600032079
:101F60008DF8050001208DF8070069460348FFF74A
:101F70003FFC30210148FFF7B1FC1CBD00000240CE
:101F800000BFFEE770B502464FF6FF70002309E080
:101F900012F8015B4540ECB2044D35F8145085EA67
:101FA00020205B1C8B42F3D370BD0000D8020020C0
:101FB0002DE9F04106460C461546012E18D1184869
:101FC0000674032016494874200A8874CC74280AC1
:101FD00008754D75062112481030FFF7D3FF0746EC
:101FE0000F498F75380AC87501F11000BDE8F081FE
:101FF0000C48067403200B494874200A8874CC747A
:10200000280A08754D75062106481030FFF7BAFFFB
:10201000074604498F75380AC87501F11000E5E7D5
:10202000D8110020F81100202DE9F05F81460F46FD
:10203000154698460A9E68064FEA106A0AF107009C
:102040003070B9F1010F3BD13B4880F8009010206F
:1020500039494870380A8870CF70280A08714D7164
:10206000084680F806A0002410E038F81400000AA2
:10207000072101EB4401304A505418F8141007208E
:1020800000EB4400401C1154601CC4B2AC42ECDBB9
:1020900031782948FFF776FF8346072101EB440199
:1020A000254A02F801B04FEA1B21072000EB44004B
:1020B000401C11543078801C30701046BDE8F09FF1
:1020C0001E4880F8009010201C494870380A88701B
:1020D000CF70280A08714D71084680F806A00024C8
:1020E00010E038F81400000A072101EB4401134AFC
:1020F000505418F81410072000EB4400401C1154F1
:10210000601CC4B2AC42ECDB31780C48FFF73AFFFC
:102110008346072101EB4401084A02F801B04FEA67
:102120001B21072000EB4400401C11543078801C18
:1021300030701046C2E70000D8110020F8110020CE
:102140002DE9F04106460C461546012E16D11648DB
:102150000670062014494870200A8870CC70280A3E
:1021600008714D7106211048FFF70CFF07460E4914
:102170008F71380AC8710846BDE8F0810B480670B7
:1021800006200A494870200A8870CC70280A087115
:102190004D7106210548FFF7F5FE074603498F718B
:1021A000380AC8710846E7E7D8110020F811002066
:1021B00019484078032814D1174800791649C9787E
:1021C00040EA0120C0B210B1012808D103E000208C
:1021D0001249087004E001201049087000E000BFB7
:1021E00000BF0F484078032814D10D4800790C49EE
:1021F000C97840EA0120C0B210B1012808D103E03B
:1022000000200849087004E001200649087000E039
:1022100000BF00BF7047000018120020D804002043
:1022200028120020D90400207047000070B500215A
:1022300000230F22C4781CB3174C246804F4E06414
:10224000C4F5E064C4F30721C1F10404E3B20A4118
:1022500044789C40E1B28478144021430C07210E5D
:102260000E4C05786155047804F01F050124AC403C
:1022700005786D11AD0005F1E025C5F8004109E0D4
:10228000047804F01F050124AC40054D0678761152
:1022900045F8264070BD00000CED00E000E400E0D1
:1022A00080E100E002490143024A116070470000EA
:1022B0000000FA050CED00E010B5042002F044FA2D
:1022C0000220FFF7BFF90446082100F00DF90420B1
:1022D00002F03AFA10BD00002DE9F04104460E4626
:1022E0006078032809D0701E86B23246611C2046F1
:1022F000FDF7C8FF0020BDE8F081A078411D204611
:10230000FEF784FB40B1701E86B23246611C204647
:10231000FDF7B8FF0020EEE7A078C71C2078012861
:1023200009D1002504E0605D0B494855681C85B261
:10233000BD42F8DB0BE02078022808D1002504E03C
:10234000605D06494855681C85B2BD42F8DBFFF761
:102350002FFF0120CFE700001812002028120020D4
:1023600029B1064A12680243044B1A6004E0034A8A
:1023700012688243014B1A607047000030380240F7
:1023800029B1064A12680243044B1A6004E0034A6A
:1023900012688243014B1A607047000040380240C7
:1023A00029B1064A12680243044B1A6004E0034A4A
:1023B00012688243014B1A607047000020380240C7
:1023C00029B1064A12680243044B1A6004E0034A2A
:1023D00012688243014B1A60704700004438024083
:1023E00029B1064A12680243044B1A6004E0034A0A
:1023F00012688243014B1A60704700002438024083
:10240000F0B5002100220024022500260223324FCD
:102410003F6807F00C0121B1042905D0082937D104
:1024200005E02E4F076036E02D4F076033E02A4F5E
:102430003F1F3F68C7F38056274F3F1F3F6807F095
:102440003F036EB1264FB7FBF3F7DFF88CC0ACF15A
:10245000040CDCF800C0CCF3881C07FB0CF40CE087
:102460001E4FB7FBF3F7DFF870C0ACF1040CDCF8DB
:1024700000C0CCF3881C07FB0CF4174F3F1F3F68CC
:10248000C7F301477F1C7D00B4FBF5F7076002E04E
:10249000124F076000BF00BF0F4F3F6807F0F00109
:1024A0000909104F7A5C0768D74047600A4F3F68B8
:1024B00007F4E051890A0B4F7A5C4768D740876080
:1024C000054F3F6807F46041490B064F7A5C476847
:1024D000D740C760F0BD0000083802400024F40077
:1024E00000127A009801002070B504460D460026BF
:1024F00005E014F8010B00F0D5FD701C86B2AE4269
:10250000F7D370BD002115E00022104B1A6000F0D7
:10251000800222B101220D4B083B1A6003E0002229
:102520000A4B083B1A604206100E0122074B1A6044
:102530004A1CD1B20829E7DB0022044B1B1F1A609A
:102540000122034BC3F8A02270470000A4024242BC
:102550000000424210B50448FFF7FCFB012103488C
:1025600000F01CFC10BD0000E0090020E00A002083
:102570000CB50020019000903448006840F4803091
:102580003249086000BF3148006800F40030009014
:102590000198401C0190009818B90198B0F5A04F1F
:1025A000F1D12A48006800F4003010B101200090F9
:1025B00001E0002000900098012846D123484030D7
:1025C000006840F080502149403108602048006890
:1025D00040F440401E4908601C48083000681B4910
:1025E000083108600846006840F40040086008466A
:1025F000006840F4A05008601648091F0860081FD2
:10260000006840F08070091F086000BF0F48006834
:1026100000F000700028F9D040F205700E49086003
:102620000A480830006820F00300084908310860B3
:102630000846006840F00200086000BF0348083008
:10264000006800F00C000828F8D10CBD00380240EA
:102650000070004008544007003C024000BF01F0F9
:10266000E7FB012002F070F8F9E700210220FEF7F5
:1026700092FE01210846FEF740FC00BF01F0CCFCB1
:10268000012002F061F8F9E700BFFFF763FF084897
:10269000006808B9012000E00020054908600548ED
:1026A0000088401C03490880642002F04DF8ECE7E4
:1026B00090024042F004002000BFFEF70DFAFFF741
:1026C00025F9012002F040F8F7E7042808D14FF07F
:1026D000E021096941F004014FF0E022116107E0B7
:1026E0004FF0E021096921F004014FF0E02211616F
:1026F0007047000010B500BF502080F31188BFF371
:102700004F8FBFF36F8F00BF04F002F918B14FF085
:1027100080500449086000BF002080F3118800BF8A
:1027200010BD000004ED00E010B51548006840F44D
:102730007000134908601348006840F00100114917
:10274000086000200F49083108600E4800680E49F3
:1027500008400C4908600D48091D0860081F006802
:1027600020F48020091F0860002006490C31086011
:10277000FFF7FEFE4FF0006001498039086010BD90
:1027800088ED00E000380240FFFFF6FE1030002424
:1027900010B501210F4800F08BF8C8B101210D4898
:1027A00000F06BF80C4800680A300B4908600846D6
:1027B000006840F21451884207D901200749087087
:1027C00040F214500449086002E0002003490870F8
:1027D00010BD000000040040780000207C000020B4
:1027E0007FB505460C4601210220FFF7C9FD029581
:1027F000ADF804400020ADF80C00ADF8060001A9CA
:102800000D4800F073F8012211460B4800F061F802
:102810001D208DF8000002208DF801008DF80200C7
:1028200001208DF803006846FFF700FD01210248F2
:1028300000F026F87FBD00000004004010B5012123
:102840000A4800F035F801280AD10949086980478B
:102850000021064800F048F86421044800F042F8DE
:102860000121024800F009F810BD000000080040F6
:10287000E4010020CA4302827047CA4302827047C3
:1028800021B1028842F00102028004E002884FF682
:10289000FE731A40028070470146486A704702463C
:1028A0000020138A0B400BB1012000E0002070478C
:1028B00030B50246002000230024158A05EA0103F2
:1028C000958905EA010413B10CB1012000E0002054
:1028D00030BD1AB183890B43838102E083898B4326
:1028E00083817047C162704741627047002202884D
:1028F000184B98420ED0184B98420BD0B0F1804F35
:1029000008D0164B984205D0154B984202D0154B73
:10291000984204D14FF68F731A404B881A43124BDA
:10292000984207D0114B984204D04FF6FF431A400B
:102930000B891A4302804B68C3620B880385054BE1
:10294000984202D0044B984201D18B7A038601232E
:1029500083827047000001400004014000040040F1
:1029600000080040000C004000100040001400402F
:102970007FB504460D4601210420FFF701FDADF8A7
:1029800000500020ADF802000194ADF8080069463F
:102990000D48FFF7ABFF012211460B48FFF799FFE7
:1029A00001210948FFF76CFF1E208DF80C00032061
:1029B0008DF80D008DF80E0001208DF80F0003A892
:1029C000FFF734FC7FBD00000008004010B540F266
:1029D0002551084800F01DFC58B1064800F0D2FC13
:1029E000C4B2204600F0EAFC40F22551014800F054
:1029F0006FFB10BD004C004010B586B004460121AD
:102A00000420FFF7ADFC0121C804FFF7B9FC2348FF
:102A100000F07AFB08220A212148FEF731FF082244
:102A20000B211F48FEF72CFF4FF48060049002201A
:102A30008DF8140000208DF8160002208DF8150086
:102A400001208DF8170004A91548FEF7D1FE4FF4B8
:102A50000060049002208DF814008DF8150000200D
:102A60008DF8170004A90E48FEF7C2FE009400205E
:102A7000ADF80400ADF80600ADF80800ADF80C00A4
:102A80000C20ADF80A006946044800F011FC012151
:102A9000024800F02CFB06B010BD0000004C0040C6
:102AA0000008024010B5044600BF0848008800F046
:102AB00040000028F9D00548001D048000BF4021D7
:102AC000024800F099FB0028F9D010BD004C0040EE
:102AD00070B540F22551324800F09BFB00284FD0E2
:102AE0000120304908702E4800F04CFCC1B22E483D
:102AF0002E4A127881542D480078401C2B490870CA
:102B00002B48007828BB2848007805281DD10846A6
:102B100000780C282FDD2448C07A2349097B40EA3D
:102B200001240B21204801F0E1F80546A54206D119
:102B300000201E49087001201E49087004E0002092
:102B40001A4908701B49087015E0002017490870E1
:102B500011E0154800780F280AD114480078182889
:102B600009DD00201149087001201249087002E0B7
:102B700000200E49087040F22551094800F0A8FADB
:102B800040F22771064800F044FB012806D1FEF709
:102B9000BDFE09480288001D028800BF70BD00000C
:102BA000005000402C010020480D00201C01002096
:102BB000970000201D0100200014014000B587B0DF
:102BC00001210420FFF7CCFB01210820FFF7C8FBFF
:102BD00001210805FFF7D4FB2E4800F095FA0822E2
:102BE0000C212D48FEF74CFE082202212B48FEF74F
:102BF00047FE4FF48050059002208DF81800002009
:102C00008DF81A0002208DF8190001208DF81B00A4
:102C100005A92148FEF7ECFD0420059002208DF85F
:102C200018008DF8190000208DF81B0005A91B481D
:102C3000FEF7DEFD1A48007878B94FF4165001907F
:102C40000020ADF80800ADF80A00ADF80C00ADF8B2
:102C500010000C20ADF80E0011E0124801904FF466
:102C60008050ADF808004000ADF80A00C010ADF883
:102C70000C000020ADF810000C20ADF80E0001A9EA
:102C8000044800F015FB0121024800F030FA07B0BB
:102C900000BD00000050004000080240000C02404F
:102CA00097000020A086010070B540F2255117481A
:102CB00000F0AFFA012819D1144800F063FBC5B247
:102CC00013480078401CC4B22046E11704EB1161A0
:102CD0000912A4EB0121CCB20D48047040F2255139
:102CE0000A4800F0F5F90B48055500BF40F22441B1
:102CF000064800F08EFA38B1044800F043FB40F279
:102D00002441024800F0E4F970BD000000100140C9
:102D1000B8000020E007002010B586B0044601216D
:102D20000846FFF71DFB01211020FFF749FB072292
:102D300009211848FEF7A4FD07220A211548FEF7CD
:102D40009FFD4FF4C060049002208DF814008DF8B0
:102D5000150000208DF8160001208DF8170004A939
:102D60000C48FEF745FD00940020ADF80400ADF8D6
:102D70000600ADF80800ADF80C000C20ADF80A0014
:102D80006946054800F094FA0121034800F0AFF9C4
:102D900006B010BD000002400010014070B50546AD
:102DA0000E46002404E0285D00F006F8601CC4B262
:102DB000B442F8DB70BD000010B5044600BF0848FF
:102DC000008800F040000028F9D00548848000BF4A
:102DD0004021034800F010FA0028F9D010BD00008F
:102DE0000010014010B540F22551084800F011FADA
:102DF00058B1064800F0C6FAC4B2204600F0DEFA28
:102E000040F22551014800F063F910BD0044004034
:102E100070B540F22551244800F0FBF9002835D068
:102E2000214800F0AFFA2149214A127888542048FD
:102E30000078401C1E4908701C480078AA281DD143
:102E40000846007809281CDD1848007A1749497A95
:102E500040EA01240821154800F02CFF0546A54250
:102E600006D100201249087001201249087004E0C0
:102E700000200F4908700F49087002E000200C493B
:102E8000087040F22551084800F022F940F22771FD
:102E9000054800F0BEF9012804D140F2277102482C
:102EA00000F016F970BD000000480040BC0C002086
:102EB000C4000020C500002010B586B004460121E2
:102EC0000820FFF74DFA01218804FFF759FA23483B
:102ED00000F01AF9072208212148FEF7D1FC072249
:102EE00009211F48FEF7CCFC4FF4807004900220AB
:102EF0008DF8140000208DF8160002208DF81500C2
:102F000001208DF8170004A91548FEF771FC4FF455
:102F10000070049002208DF814008DF81500002038
:102F20008DF8170004A90E48FEF762FC00940020FB
:102F3000ADF80400ADF80600ADF80800ADF80C00DF
:102F40000C20ADF80A006946044800F0B1F90121EF
:102F5000024800F0CCF806B010BD00000048004068
:102F6000000C024010B540F22551214800F051F903
:102F7000D0B120480088402816DA1D4800F002FA37
:102F8000C1B21C480488601C1A4A10801A480155B6
:102F900010460088402802DB00201146088040F2DD
:102FA0002551134800F094F840F22441104800F0F5
:102FB00030F9E0B114E00F48008806280FDD0D4815
:102FC00001880D48FFF788F918B1002009490880E9
:102FD00007E008480088401E0649088000E000E03D
:102FE000E9E700BF02480488001D048800BF10BD47
:102FF000001401405E010020840D002010B586B051
:10300000044601210420FFF7ABF901212020FFF73E
:10301000D7F9224800F078F8082206212048FEF768
:103020002FFC082207211E48FEF72AFC40200490AE
:1030300002208DF8140000208DF8160002208DF873
:10304000150001208DF8170004A91548FEF7D0FBE4
:103050008020049002208DF814008DF815000020C7
:103060008DF8170004A90E48FEF7C2FB009400205B
:10307000ADF80400ADF80600ADF80800ADF80C009E
:103080000C20ADF80A006946044800F011F901214E
:10309000024800F02CF806B010BD000000140140FA
:1030A0000008024010B5044600BF0848008800F040
:1030B00040000028F9D00548001D048000BF4021D1
:1030C000024800F099F80028F9D010BD0014014022
:1030D00010B50022002340F66A14A14200D100BFBF
:1030E0000A1201249440A3B2DC43048010BD21B134
:1030F000828942F40052828104E082894DF6FF7396
:103100001A4082817047000010B50446324884425C
:1031100008D101211020FFF763F900211020FFF7EB
:103120005FF957E02D48844209D101214804FFF797
:1031300037F900214FF40030FFF732F94AE0284810
:10314000844209D101218804FFF72AF900214FF4B4
:103150008020FFF725F93DE02248844209D1012172
:10316000C804FFF71DF900214FF40020FFF718F9FC
:1031700030E01D48844209D101210805FFF710F90C
:1031800000214FF48010FFF70BF923E01748844229
:1031900008D101212020FFF723F900212020FFF78B
:1031A0001FF917E01248844209D101218807FFF76F
:1031B000F7F800214FF08040FFF7F2F80AE00D48E1
:1031C000844207D101214005FFF7EAF8002160059C
:1031D000FFF7E6F810BD0000001001400044004079
:1031E00000480040004C00400050004000140140E6
:1031F00000780040007C004002460020B1F5007FCE
:1032000000D100BF13880B400BB1012000E000206B
:10321000704770B50246002400230025002040F6C8
:103220006A16B14200D100BFC1F3421501F01F037D
:10323000012606FA03F3012D02D19689334006E0F8
:10324000022D02D1168A334001E0968A33400C12D7
:10325000012606FA04F41688344013B10CB101209B
:1032600000E0002070BDF0B50346002400260025D4
:10327000002040F66A17B94200D100BF1846C1F3DA
:10328000421401F01F06012707FA06F5012C01D1AF
:103290000C3004E0022C01D1103000E014301AB1DF
:1032A00007682F43076002E00768AF430760F0BD7F
:1032B0002DE9FF4705460E460024A14600BFA04663
:1032C000B08900B100BF2C8A24F44054F088044334
:1032D0002C82AC8941F20C608443B0883189084368
:1032E000718908430443AC81AC8A24F44074B089EA
:1032F0000443AC826846FFF783F82048854202D039
:103300001F48854202D1DDF80C9001E0DDF80890FD
:10331000A88900F4004040B109EBC90000EB091096
:1033200031684900B0FBF1F707E009EBC90000EB99
:10333000091031688900B0FBF1F76420B7FBF0F0A9
:1033400004012009642101FB1078A88900F40040E1
:1033500040B1322000EBC800B0FBF1F000F00700F4
:10336000044308E0322000EB08106421B0FBF1F0C8
:1033700000F00F0004432C81BDE8FF8700100140DE
:103380000014014001468888C0F30800704770B5FA
:1033900004460D46002605E014F8010BFFF782FBFA
:1033A000701C86B2AE42F7D370BD00BFFEE710B509
:1033B00041F267016320FFF713FA10BD2DE9FC41CC
:1033C00080467348006808B9BDE8FC81714801680F
:1033D0000068401C6F4A10606F4800F801806F4819
:1033E000006830B1012859D0022874D0032854D184
:1033F000BEE06948007855280CD066480068401E39
:103400006449086008466449491C0268481EFCF784
:1034100039FFD9E75F4800680B283ED30A215E4890
:1034200000F000F907465C48807AB8420CD0594851
:103430000068401E5749086008465749491C026801
:10344000481EFCF71FFFBFE7534880785249C978F0
:1034500040EA0120ADF800004F4800794E49497913
:1034600040EA0120ADF802004B4880794A49C97909
:1034700040EA0120ADF804004748007A4649497AFD
:1034800040EA0120ADF80600434948780422694625
:10349000FDF75EFB00203F4908606DE03D48006895
:1034A000022863D93C48407803280CD0394800688A
:1034B000401E3849086008463749491C0268481EC2
:1034C000FCF7E0FE80E734488078401D3149096808
:1034D000884201D978E74AE02E480068401E2E490C
:1034E000095C2C480068801E2B4A105C41EA0025CC
:1034F00028480088801E81B2104600F077F8064602
:10350000B5420CD023480068401E22490860084696
:103510002149491C0268481EFCF7B4FE54E71E48C6
:1035200080784510002414E0042000EB44001A4980
:10353000085C032101EB4401174A515C40EA012079
:1035400000B2174909682144164A22F81100601C8C
:1035500084B2AC42E8DB2946114800680C4A126884
:10356000904700200B4908600F49086004E000BF45
:1035700000200849086000BF00BF06480068B0F599
:10358000807F02D100200349086000BF1CE70000D3
:1035900074050020800500206C4F00208405002069
:1035A000880500206C5000208000002010B5052008
:1035B00001F0CAF80120FDF77CFD04460821FEF762
:1035C00093FF052001F0C0F810BD00000FB4054BBB
:1035D00010B503A9044A029800F04AF810BC5DF83F
:1035E00014FB0000593E0008BC00002070B50346E3
:1035F0000C46FF25FF26002200BF00BF09E0985CB3
:1036000080EA05010548405C80EA06050448465CFE
:10361000521CA242F3DB46EA052070BDF06F0008A1
:10362000F070000810B502460B460020002103E0B0
:10363000545C0444E0B2491C9942F9D310BD2DED0D
:10364000020B019820F0004001909DED000B02B0AC
:10365000704702E008C8121F08C1002AFAD170475B
:103660007047002001E001C1121F002AFBD1704702
:103670002DE9FF4F8DB00F460546002606E02528B0
:103680000BD0DDE90F1290476D1C761C28780028BE
:10369000F5D111B03046BDE8F08F0024A246A14616
:1036A0000122E94900E0044315F8013F203B02FAFA
:1036B00003F00842F7D128782A2810D06FF02F02A3
:1036C0002878A0F13001092914D80AEB8A0102EB0D
:1036D000410144F0020400EB010A6D1CF0E701CF48
:1036E0005FEA000A03D544F40054CAF1000A44F02A
:1036F00002046D1C28782E2817D115F8010F44F00C
:1037000004042A280ED06FF02F022878A0F130018F
:1037100009290AD809EB890102EB410100EB0109F3
:103720006D1CF2E757F8049B6D1C28786C280FD0AD
:1037300006DC4C2817D068280DD06A2814D104E084
:10374000742810D07A280FD10DE044F400140AE058
:1037500044F4801401E044F440146978814202D1B9
:1037600004F580146D1C6D1C28786E281ED00CDCAE
:10377000632830D004DC00288BD0582811D19FE07A
:10378000642867D069280CD164E073282DD004DC4C
:103790006F2872D0702804D194E075286ED07828F4
:1037A0006DD0DDE90F129047761C4BE1C4F3025057
:1037B000022806D0032809D0042801CF09D00660CA
:1037C00040E101CFF117C0E900613BE101CF068084
:1037D00038E1067036E117F8040B8DF80000002080
:1037E0008DF80100EB46012003E057F804BB4FF0D1
:1037F000FF3061074FF0000102D40DE008F1010134
:10380000884649450FDA8045F8DB1BF80810002987
:10381000F4D108E008F1010188468142FADB1BF887
:1038200008100029F6D1DDE90F23AAEB0800814634
:10383000214600F031F9304400EB080604E0DDE9F0
:103840000F121BF8010B9047B8F10108F7D221467F
:103850004846F2E00A21C4F302524FF0000B0891EF
:10386000022A04D001CFC117032A09D00AE0FF1DA4
:1038700027F00707F7E8020108E02CE01EE01FE050
:1038800000B2C117042A01D140B2C117021E71F162
:10389000000206DA0023D0EB030063EB01012D22C6
:1038A00002E0220504D52B228DF82420012203E01A
:1038B000E20701D02022F7E7904653E00A210BE00F
:1038C000102109E010214FF0000B44F004044FF0E8
:1038D0000809089103E008214FF0000B0891C4F398
:1038E0000252022A04D001CF0021032A06D006E0AA
:1038F000FF1D27F00707F7E8020103E080B2042A62
:1039000000D1C0B24FF0000822072BD52A78702AC8
:1039100007D0DDF820C08CF0100C5CEA0B0C05D051
:103920000EE040228DF82420012208E050EA010335
:1039300006D030238DF824308DF8252002229046C1
:10394000089B83F0080353EA0B030BD150EA0102F2
:1039500001D1620706D530228DF824204FF00108EE
:10396000A9F101092A78582A04D038A20B9208AA92
:103970000A920BE03AA2F9E75B46089AFCF7CEFD03
:103980000B9B9B5C0A9A521E0A92137050EA01022A
:10399000F2D10A98ADEB000000F1200B600702D5D0
:1039A00024F4803401E04FF00109D94502DDA9EB90
:1039B0000B0000E0002000EB0B0141440890AAEB53
:1039C000010AE00306D4DDE90F232146504600F04A
:1039D00063F806444FF0000908E009A911F809004E
:1039E000DDE90F12904709F10109761CC145F4DBAE
:1039F000E0030CD5DDE90F232146504600F04CF8DA
:103A0000064404E0DDE90F1230209047761C089947
:103A1000481E08900029F5DC08E00A980A99007809
:103A2000491C0A91DDE90F129047761CBBF1000199
:103A3000ABF1010BF1DC21465046DDE90F2300F02C
:103A400019F806446D1C21E6092801003031323393
:103A500034353637383961626364656600000000CA
:103A600030313233343536373839414243444546B4
:103A7000000000002DE9F041044600251E461746CF
:103A8000880404D405E039462020B0476D1C641E2C
:103A9000F9D52846BDE8F0812DE9F041044600251E
:103AA0001E469046C80301D5302700E02027880431
:103AB00004D505E041463846B0476D1C641EF9D573
:103AC0002846BDE8F081000008B525208DF80000EB
:103AD00002208DF8010001208DF802008DF803000E
:103AE0006846FEF7A3FB27208DF8000002208DF822
:103AF000010003208DF8020001208DF803006846C4
:103B0000FEF794FB34208DF8000002208DF80100B0
:103B100004208DF8020001208DF803006846FEF7AE
:103B200085FB35208DF8000002208DF8010005206E
:103B30008DF8020001208DF803006846FEF776FB41
:103B400047208DF8000002208DF8010006208DF836
:103B5000020001208DF803006846FEF767FB142081
:103B60008DF8000002208DF8010007208DF802007A
:103B700001208DF803006846FEF758FB012240F251
:103B800025511348FFF76FFB012240F225511148E0
:103B9000FFF769FB012240F225510F48FFF763FB55
:103BA000012240F225510D48FFF75DFB012240F252
:103BB00025510B48FFF757FB012240F224410848EA
:103BC000FFF751FB012202210648FCF705FE08BD64
:103BD0000010014000480040004C004000500040F0
:103BE000001401400064004010B5A82000F09AF8CD
:103BF000FEF7A8F9FDF7D2FDFDF7AAFD4FF4E1307D
:103C0000FFF78AF8FCF71EFF4FF4E130FFF754F995
:103C10004FF4E130FEF7F0FEFEF7D0FF4FF4E13055
:103C2000FFF7ECF901210846FEF732F900200349BD
:103C3000086001200249C1F8940210BD9002404280
:103C400000004042F0B504460D46991CCEB2A119C1
:103C50002944C8B2002104E0575C0744F8B24F1C65
:103C6000F9B29942F8DBC143C8B2F0BD02460E4832
:103C700000880E4B1B88984213D00C480078401CDB
:103C8000C1B20846CB1701EB13631B12A1EB032350
:103C9000D9B206480180064810F8111011700120B1
:103CA00070470020FCE700009401002096010020EE
:103CB000C40D002070B502460C46FF25FF2309E025
:103CC00012F8010B80EA05010648405C80EA030512
:103CD0000548435C201EA4F10106F4B2F0D145EA88
:103CE000032070BD806B0008806C000870B5024630
:103CF0000C46FF25FF2309E012F8010B80EA0501BD
:103D00000648405C80EA03050548435C201EA4F198
:103D10000106F4B2F0D145EA032070BD806D0008C1
:103D2000806E000810B504466FF00400FEF7CDFC6D
:103D3000E11704EB5171C1F3C701074A1170104636
:103D4000007800EB4001C1EBC0104FF6FF7101EAB3
:103D5000C0000249088010BDB2000020B40000205D
:103D600070B504464FF4077094FBF0F0C6B24FF400
:103D7000077094FBF0F100FB114085B205E04FF4B1
:103D8000077000F02FF8701EC6B2002EF7D115B1E3
:103D9000284600F027F870BD0146114A12784A43C0
:103DA0004FF0E0235A6100229A611A46126942F0EC
:103DB00001021A6100BF4FF0E022106900F0010219
:103DC0001AB100F48032002AF5D04FF0E0221269D7
:103DD00022F001024FF0E0231A6100229A6170473D
:103DE000B20000200146114A12884A434FF0E023F6
:103DF0005A6100229A611A46126942F001021A6160
:103E000000BF4FF0E022106900F001021AB100F487
:103E10008032002AF5D04FF0E022126922F0010230
:103E20004FF0E0231A6100229A617047B40000202D
:103E300010B540210548FDF746FD054908702021D1
:103E40000248FDF740FD0349087010BD000C024018
:103E5000FA040020FB04002000BF054A128802F08B
:103E60004002002AF9D0C2B2014B9A80704700008C
:103E70000010014010B52DED048B82B004465F4860
:103E8000007810287DD15E4821798172D4F8051020
:103E90000160D4F809104160607B01909DF8040036
:103EA00000F0800018B101205549087202E000209E
:103EB000534908729DF8040000F0400018B1012039
:103EC0004F49487202E000204D4948724C4890ED3D
:103ED000000A4C4880ED000A494890ED010A494823
:103EE00080ED020A4648807A00287FD1454890ED4F
:103EF000000A10EE101A0846FCF7C8FA41EC190B3C
:103F0000B0EE490AF0EE690AFFF799FBB0EE408A7D
:103F1000F0EE608A9FED3C0B53EC102B51EC180B2C
:103F2000FCF7C8FA04D29FED3A0A364880ED000A41
:103F3000344890ED000AF2EE0E0AB4EEE00AF1EE1B
:103F400010FA03DDB2EE0E0A80ED000A2D4890ED66
:103F5000000AFAEE0E0AB4EEE00AF1EE10FA03D20D
:103F6000BAEE0E0A80ED000A264890ED020A10EE25
:103F7000101A0846FCF78AFA41EC190BB0EE490A10
:103F800000E036E0F0EE690AFFF759FBB0EE408A38
:103F9000F0EE608A9FED1C0B53EC102B51EC180BCC
:103FA000FCF788FA04D29FED1A0A164880ED020A3F
:103FB000144890ED020AF1EE040AB4EEE00AF1EEC4
:103FC00010FA03DDB1EE040A80ED020A0D4890ED0F
:103FD000020AF9EE040AB4EEE00AF1EE10FA05D294
:103FE000B9EE040A00E001E080ED020A012009496F
:103FF000087002B0BDEC048B10BD00002A01002047
:10400000A4000020581200209A9999999999B93FD3
:1040100000000000B000002010B5FD48007828B175
:10402000FC480078102801D1012000E00020FA4966
:104030000978084380B30020F849488208829FED40
:10404000F80A0120FCF7E6FF9FEDF50A0220FDF7D4
:10405000F6F90021012001F057F80021022001F0BB
:1040600053F800F0B1FB02F077FD0020EA49087038
:10407000EC4800880A2807DDEB48006808B90120F1
:1040800000E00020E8490860E64800880A2802DDD0
:104090000020E449088010BDFFE735E0FFF786FA0D
:1040A000FEF70AF9E1480078E149097888420FD023
:1040B000DF480078012804D101210846FCF71DFFE4
:1040C00003E000210120FCF718FF052000F03CFB75
:1040D000D8480078D849097888420ED0D44800786A
:1040E00020B900210120FDF756F903E0012108461F
:1040F000FDF751F9052000F027FBCA4800880A287F
:1041000002DD0020C7490880C8480078C8490978FE
:104110008842C3D1C7480078C74909788842BDD1D1
:10412000C04800880A280ADDBF48006808B9012095
:1041300000E00020BC4908600A20BA49088001213B
:10414000084600F0E1FF0121022000F0DDFFB14848
:104150000078E8BB00F03EFEB8480079B749097B1B
:10416000084350B10121084600F0CEFF0121022092
:1041700000F0CAFF00F00AFA8DE7B04890ED000A9F
:10418000DFEDAF0AB4EEE00AF1EE10FA08DC90EDD4
:10419000000ADFEDAC0AB4EEE00AF1EE10FA0AD242
:1041A000A2480078012806D001210846FCF7A5FEA8
:1041B00001209F490870A14890ED020ADFEDA00A96
:1041C000B4EEE00AF1EE10FA0ADC90ED020A00E02B
:1041D00013E0DFED9C0AB4EEE00AF1EE10FA09D22A
:1041E0009448007830B100210220FDF7D4F8002077
:1041F0009149087000F022FA4DE7934800780028B2
:104200007ED08448007810287AD110E08F48007A58
:104210008F490978884200D10DE005220021012054
:1042200000F04AFF8948007A8949087003E087480E
:10423000007A0028EAD000BF11E08448007A84495F
:104240000978884200D10EE005224FF40061012078
:1042500000F032FF7D48007A7D49087003E07B481A
:10426000007A0028E9D100BF10E07848407A794907
:104270000978884200D10DE005220021022000F0DB
:104280001BFF7248407A7349087003E06F48407A18
:104290000028EAD000BF11E06C48407A6D490978E7
:1042A000884200D10EE005224FF40061022000F0A8
:1042B00003FF6648407A6749087003E06348407A24
:1042C0000028E9D100BF6148807A01287CD1574895
:1042D000007830B100210120FCF70FFE0020544986
:1042E00008705448007801284DD15B48007888B99F
:1042F000524890ED020AB5EEC00AF1EE10FA00E065
:10430000B5E007DD0220FDF7FBF89FED450A4B48BD
:1043100080ED020A5148007878B9484890ED020AC9
:10432000B5EEC00AF1EE10FA07D20220FDF7E8F868
:104330009FED3B0A414880ED020A4748007878B972
:104340003E4890ED020AB5EEC00AF1EE10FA07D22F
:104350000220FDF7BDF89FED320A384880ED020AD1
:104360003E48007878B9354890ED020AB5EEC00AAB
:10437000F1EE10FA07DD0220FDF7AAF89FED280AFA
:104380002E4880ED020A2D48D0ED000AB0EE600AFA
:104390000120FCF73FFE9FED220A284880ED000A2D
:1043A00024480078012806D001210220FCF7F3FF01
:1043B0000120214908702148D0ED020AB0EE600AC0
:1043C0000220FDF73CF800E005E09FED150A1B48D0
:1043D00080ED020A48E01D48807AC0B901201449E6
:1043E00008700020144908701048007810490978B6
:1043F000884203D001210846FCF77FFD0D48007874
:104400000D49097888422DD00021022028E02BE0B8
:104410007C0000202A010020F60400206812002001
:1044200000000000F004002094024042D804002064
:10443000DA040020D9040020DB04002058120020F8
:10444000CDCCCC3DCDCCCCBDB0000020A400002014
:10445000F8040020F9040020FA040020FB040020E6
:10446000FCF799FF00F0EAF800200249087000BF4D
:1044700011E60000B000002000B59DB01C222249CA
:1044800016A8FBF7FFFE002116A800F06EF91F49E1
:1044900008600846006808B900BFFEE71C221A49F8
:1044A0001C310FA8FBF7EEFE00210FA800F05DF90C
:1044B000174908600846006808B900BFFEE71C22DB
:1044C0001149383108A8FBF7DDFE002108A800F0EB
:1044D0004CF9104908600846006808B900BFFEE7BB
:1044E0001C220949543101A8FBF7CCFE002101A888
:1044F00000F03BF9084908600846006808B900BFA9
:10450000FEE71DB000BD0000806F0008E004002041
:10451000E4040020E8040020EC0400204FF4A06034
:10452000FDF7C0FEFFF760FB00F016F8FDF7D8F9C5
:10453000FEF73DFFFFF7C8FAFFF79EFF0A20FFF7DF
:104540000FFC00F00DF900BFFEE7014600208429B2
:1045500001D0CA1C1044704710B50220FCF7FDFEC4
:104560000120FCF75AFC0120044908700449087036
:104570000020044908700449087010BDD8040020C8
:10458000DA040020D9040020DB04002010B5224802
:104590000079C8B12148007818B100210120FCF74A
:1045A000ACFC1F480078012804D1B7EE000AFCF7E4
:1045B00031FD04E0BFEE000A0120FCF72BFD0020D6
:1045C00018490870144908711348007B10B3164845
:1045D0000078012803D001210220FCF7DCFE1348FB
:1045E0000078012808D11248007868B1B7EE000AB7
:1045F0000220FCF724FF07E00E48007820B1BFEE50
:10460000000A0220FCF71BFF01200B490870002064
:104610000149087310BD000058120020D804002082
:10462000F4040020DA040020D9040020F50400205E
:10463000FA040020FB040020DB04002010B53C48F5
:1046400090ED000AF2EE0E0AB4EEE00AF1EE10FA76
:1046500003DDB2EE0E0A80ED000A354890ED000A47
:10466000FAEE0E0AB4EEE00AF1EE10FA03D2BAEE58
:104670000E0A80ED000A2E4890ED020AF1EE040ABF
:10468000B4EEE00AF1EE10FA03DDB1EE040A80EDBB
:10469000020A274890ED020AF9EE040AB4EEE00A95
:1046A000F1EE10FA03D2B9EE040A80ED020A2048B6
:1046B00090ED000ADFED1F0A20EE200ADFED1E0A52
:1046C00020EE200ABDEEC00A10EE101A0120FCF701
:1046D00037FD1A48007858B9154890ED020AB5EE32
:1046E000C00AF1EE10FA03DD9FED150A80ED020A13
:1046F0001448007858B90E4890ED020AB5EEC00A89
:10470000F1EE10FA03D29FED0E0A80ED020A08487E
:1047100090ED020ADFED080A20EE200ABDEEC00A85
:1047200010EE100A01B20220FCF794FF10BD000049
:104730005812002000007A440000C842FA04002009
:1047400000000000FB04002070B5044625460DB1B2
:10475000294600E00121084601F0BEFE002070BDA0
:1047600010B501F0E7FE002010BD7FB504460D46F0
:10477000606998B1A06988B1B4F90800FFF7E5FE57
:104780000646D4E90510CDE9006102902B46226966
:10479000D4E9001002F05EF8039013E0B4F90800C9
:1047A000FFF7D3FE064603A8CDE90060238A9AB23C
:1047B0002B46D4E9001002F01BF8012802D000209B
:1047C00004B070BD0398FBE710B59FED080A0848D8
:1047D00080ED020A90ED020ABDEEC00A10EE100A4A
:1047E00001B20220FCF736FF10BD000000000000FF
:1047F000581200202DE9F04105460E46164807687C
:1048000016480068001D01F063FD681C38B936B118
:1048100012480168091D124801F0A4FD1AE07C1934
:104820000E4800684460BC4207D20C480168091D6C
:104830000C48006801F07CFD0CE008480168091D87
:104840000948006801F074FD08480068844201D2FC
:1048500006480460BDE8F0813C05002028050020E2
:10486000584F0020300500202C050020580500205E
:1048700010B5044601F082FD22480068401C214921
:1048800008602148006840B91F4804600846006875
:1048900001280DD100F03CF90AE01C48006838B945
:1048A00019480068C06AE16A884201D81648046065
:1048B00017480068401C164908601649E06A0968F4
:1048C000884202D91349E06A0860E16A01EB81017C
:1048D000114A02EB8100211D01F044FD01F078FD39
:1048E0000A48006868B108480068C06AE16A8842FE
:1048F00007D24FF0805009490860BFF34F8FBFF3D4
:104900006F8F10BD380500202805002044050020C9
:1049100054050020400500207C4E002004ED00E0FE
:1049200010B516E001F02AFD0C48C068C468201DCF
:1049300001F0CEFC0A480068401E09490860094899
:104940000068401E0749086001F042FD204600F063
:104950000BF8044800680028E4D110BD444F002043
:10496000380500203405002010B5044694F85100A5
:1049700030B9206B01F04AFD204601F047FD1AE0F6
:1049800094F85100012803D1204601F03FFD12E0C8
:1049900094F85100022801D1012000E0002050B914
:1049A00000BF502080F31188BFF34F8FBFF36F8F8C
:1049B00000BF00BFFEE710BD30B54FF4705317487D
:1049C00000F007042CB1C01D20F00700134C041B9D
:1049D0001B1B0246124C22600024114D6C60D01843
:1049E000083820F007000F4C206000240D4D2D6882
:1049F0006C600C4D2D682C601146441A4C60094CBB
:104A000024680C60084D4C682C60084D4C682C6084
:104A10004FF00044064D2C6030BD00007C12002099
:104A200008050020100500201805002014050020AE
:104A30002405002000BFFFF773FF06480068012827
:104A4000F9D94FF0805004490860BFF34F8FBFF38E
:104A50006F8FF0E77C4E002004ED00E02DE9FF5F52
:104A600081460E469246DDE90E7B109CAAF10100BC
:104A7000216B01EB800828F0070808F0070008B94F
:104A8000012000E0002050B900BF502080F31188C1
:104A9000BFF34F8FBFF36F8F00BF00BFFEE786B13C
:104AA000002507E0715D04F134004155705D00B9E7
:104AB00002E06D1C102DF5D300BF002143200155ED
:104AC00002E0002084F83400072F00D30627E762B5
:104AD00067640020A064201D01F027FC04F1180089
:104AE00001F023FC2461C7F10700A061646200208B
:104AF000E06484F8500049464046039A00F050F9BB
:104B00002060BBF1000F01D0CBF80040BDE8FF9F53
:104B100010B5002407E004EB84010F4A02EB81008A
:104B200001F0F6FB641C072CF5D30C4801F0F0FBF8
:104B30000B4801F0EDFB0B4801F0EAFB0A4801F0DD
:104B4000E7FB0A4801F0E4FB04480949086004480F
:104B50000849086010BD00007C4E0020084F00206E
:104B60001C4F0020304F0020444F0020584F0020A1
:104B70002C0500203005002010B50146164800E045
:104B8000006803688B42FBD30246436813448B42A0
:104B900004D143684C682344436001460A464B688D
:104BA00013440468A34211D10C4C03682468A34247
:104BB00008D04B680468646823444B6003681B6832
:104BC0000B6005E0054B1B680B6001E003680B60A0
:104BD000884200D0016010BD0805002010050020AB
:104BE0000A490968096809B9012100E0002121B1D9
:104BF0004FF0FF31064A116006E004490968C968B0
:104C0000C868034A41681160704700002C05002005
:104C1000580500200E480068401C08B9012000E03B
:104C2000002050B900BF502080F31188BFF34F8F90
:104C3000BFF36F8F00BF00BFFEE700BF502080F3BF
:104C40001188BFF34F8FBFF36F8F00BF00BFFEE728
:104C5000FC0400202DE9F04104464FF0000801F06B
:104C6000C1FC4948006808B9FFF7A6FE474800683C
:104C70002040002870D1D4B1083404F00700B0B14E
:104C800004F00700C0F10800044404F0070008B96C
:104C9000012000E0002050B900BF502080F31188AF
:104CA000BFF34F8FBFF36F8F00BF00BFFEE7002C35
:104CB00052D03748006884424ED8364E3046056898
:104CC00001E02E462D686868A04202D228680028BC
:104CD000F7D12D48006885423ED0306800F10808C1
:104CE000286830606868001B102819D92F1907F050
:104CF000070008B9012000E0002050B900BF502093
:104D000080F31188BFF34F8FBFF36F8F00BF00BFD9
:104D1000FEE76868001B78606C603846FFF72CFF80
:104D20001B4968680968081A19490860084600683C
:104D300019490968884203D2154800681649086075
:104D400012496868096808436860002028601348B1
:104D50000068401C1149086001F07CFE08F0070063
:104D600008B9012000E0002050B900BF502080F3B6
:104D70001188BFF34F8FBFF36F8F00BF00BFFEE7F7
:104D80004046BDE8F0810000100500202405002009
:104D90001405002008050020180500201C0500202F
:104DA000001F4FF080730360001F21F001030360B8
:104DB000001F054B036014380260001F6FF00203F0
:104DC0000360203870470000154C00080146086851
:104DD0007047000010B52DED068B8A484088A0F280
:104DE000BE308949086087488088C0F58260486085
:104DF0008448C088A0F57A70886082480089A0F550
:104E00006870C8607F48408908827E4880894882EF
:104E10000846008AC82806D0B0F57A7F07D0B0F5DA
:104E2000E16F0CD107E001207849087007E000200D
:104E30007649087003E002207449087000BF00BF83
:104E40007148408AC82806D0B0F57A7F07D0B0F5FF
:104E5000E16F0CD107E001206D49087007E00020E8
:104E60006B49087003E002206949087000BF00BF69
:104E70006848007858B16548007867490870644808
:104E800000786649087000206249087039E05F4880
:104E9000007861490978884216D05F48007830B9B7
:104EA0005A480078022802D101205D4908715A4809
:104EB000007828B955480078012801D1584908716F
:104EC000524800785449087051480078534909788D
:104ED000884216D05148007830B94D4800780228F1
:104EE00002D101204E4908734C48007828B948483F
:104EF0000078012801D14A4908734548007847499C
:104F000008704148C068642810DD3F4890ED030AEE
:104F1000B8EEC00ADFED430A80EE201AB2EE0E0AA8
:104F200021EE000A3E4880ED000A24E03648C068C1
:104F300010F1640F1ADA3449C868FBF796FA41ECAD
:104F40001A0B9FED390B53EC102BFBF71FFA41ECBA
:104F5000190B9FED370B53EC102BFBF7A5F941EC28
:104F6000180BFBF7BFFA2E49086004E09FED320AE8
:104F70002B4880ED000A24488068FA281ADD22496F
:104F80008868FBF772FA41EC1A0B9FED2C0B53EC7F
:104F9000102BFBF7FBF941EC190B9FED2A0B53EC9F
:104FA000102BFBF781F941EC180BFBF79BFA1C491E
:104FB000886024E01448806810F1DC0F1ADA124986
:104FC0008868FBF752FA41EC1A0B9FED200B53EC6B
:104FD000102BFBF7DBF941EC190B9FED1A0B53EC8F
:104FE000102BFBF761F941EC180BFBF77BFA0C492E
:104FF000886004E09FED100A094880ED020ABDECCC
:10500000068B10BD620D002068120020F204002003
:10501000F3040020F7040020F4040020F50400202D
:10502000581200200000C743000000000000794033
:105030000000000000002E40000000000000000002
:105040000000894000000000000014400000000043
:10505000008888402DE9F04306460F4615469846DD
:10506000DDE90794FF2013490870487008468670F0
:10507000E01CC870084605714771002006E018F86A
:105080000020811D0B4B5A54411CC8B2A042F6DBD4
:10509000601CC3B2074A521D29463046FEF7D2FDB6
:1050A000A11D044A5054E01D89F800001046BDE8D7
:1050B000F0830000381200202DE9FF4106460C461F
:1050C000154620128DF80C00E0B28DF80D00281264
:1050D0008DF80E00E8B28DF80F000520FFF734FBC5
:1050E000042002A903AB0322CDE900102A21304697
:1050F000FFF7B0FF07469DF80810FEF748F9642057
:10510000FFF722FBBDE8FF817FB505460C460394FF
:105110000520FFF719FB012002A903AB0322CDE90B
:10512000001028212846FFF795FF06469DF8081035
:10513000FEF72DF96420FFF707FB7FBD0146002035
:1051400081F80802002207E091F808028B5C5840C1
:1051500081F80802501CC2B28878C01C9042F3DC6F
:1051600091F8083291F80602401E085C834201D192
:10517000012070470020FCE770B505461348007811
:105180001349097888421ED0002240F22551114867
:10519000FEF769F80E480078401CC4B22046E117BB
:1051A00004EB11610912A4EB0121CCB20848047090
:1051B0000948005D2870012240F225510548FEF79C
:1051C00052F8012070BD0020FCE70000B80000206C
:1051D000B900002000100140E007002030B595B074
:1051E000054613AB12AA09A9284600F039FA04466D
:1051F00014B1204615B030BD0020149026E022499D
:1052000009689DF8502001EBC20113AB11AA486850
:1052100001A900F025FA04460CB12046EAE709A9E5
:1052200001A800F0BBFC60B99DF844009DF848104F
:10523000884201DD0220DDE79DF8500012498875A3
:105240000AE09DF85000401CC0B214900E48007D4A
:105250009DF850108842D2DC00BF0B48007D9DF8BD
:105260005010884201D10420C4E714A9284600F058
:10527000D7FA04460CB12046BCE79DF8500002491D
:1052800048750020B6E70000E40100202DE9F04158
:105290009AB09C48847D007DA04202DC1AB0BDE833
:1052A000F0819849096801EBC40106AB07AA486878
:1052B00008A900F0D5F908A993A0FEF787F9002600
:1052C00044E09048008B0121B1400840D8B1222130
:1052D0008FA0FEF77BF9304600F028FB8949243186
:1052E000471839468BA0FEF771F9222188A0FEF7F6
:1052F0006DF9304600F01AFB82492431084410A9A8
:1053000041F8260018E0304600F010FB7D492431BA
:10531000085810A941F826007A48C07D30B910A875
:1053200050F826107CA0FEF751F905E010A850F8BF
:1053300026107AA0FEF74AF99DF81C00401EB042E4
:1053400002D078A0FEF742F9701CC6B29DF81C008E
:105350008642B6DB74A0FEF739F900F039FB6948E4
:10536000407D0B280DD2DFE800F0060D151E273218
:105370003F4E5F7287006349096851F834008047E7
:10538000054690E05F4A126852F83410109888473A
:10539000054688E05B4B1B6853F83420DDE91001BB
:1053A000904705467FE0574F3F6857F8343010A8C4
:1053B00007C89847054676E0DFF848C1DCF800C02A
:1053C0005CF8347010A80FC8B84705466BE0149815
:1053D000DFF830C10090DCF800C05CF8347010A831
:1053E0000FC8B84705465EE0DDE91401DFF814C1D7
:1053F000CDE90001DCF800C05CF8347010A80FC8DB
:10540000B84705464FE0DDE914121698DFF8F4C0FE
:10541000CDE900120290DCF800C05CF8347010A8EE
:105420000FC8B84705463EE0DDE91423DDE9161054
:10543000DFF8D0C0CDE90023CDE90210DCF800C0D0
:105440005CF8347010A80FC8B84705462BE0DDE9BA
:105450001523DDE91710CDE90123CDE903101498D8
:10546000DFF8A0C00090DCF800C05CF8347010A831
:105470000FC8B847054616E0DDE91623DDE9181028
:10548000CDE90223CDE90410DDE91401DFF874C091
:10549000CDE90001DCF800C05CF8347010A80FC83A
:1054A000B847054600BF00BF00F050FA9DF818004D
:1054B00001280CD11348C07D20B929461BA0FEF756
:1054C00085F807E029461BA0FEF780F802E018A047
:1054D000FEF77CF80B4890F8EC0088B10948D0F84A
:1054E000F0000A21B0FBF1F201FB12070548D0F8E9
:1054F000F000B0FBF1F83A46414611A0FEF766F81D
:1055000000BFCBE6E40100200D0A2573280000004F
:105510002563000025730000256C75003058255860
:10552000000000002C000000290000003D256C75E3
:105530003B0D0A003D305825583B0D0A0000000085
:1055400046756E6374696F6E2052756E2054696D76
:10555000653A25642E2531646D730D0A0000000044
:10556000F0B503461546002000220026002455E031
:105570001F782C2F01D104B901221F78292F01D0C7
:105580001F780FB904B94AE0002E34D11F78302FAC
:1055900002DB1F78392F11DD1F78612F02DB1F78A6
:1055A000662F0BDD1F78412F02DB1F78462F05DDAC
:1055B0001F78582F02D01F78782F0CD102B12EE01F
:1055C0001F78612F03DB1F78203F0F7001E01F78E9
:1055D0000F70491C1FE01F78222F04D102B11EE07A
:1055E0000126012417E01F78202F14D01F782C2FBC
:1055F00011D0FF2613E01F78222F00D1002402B122
:105600000DE044B11F785C2F02D15B1C471CF8B23F
:105610001F780F70491C471CF8B25B1CA8E700BF3D
:1056200000270F702E70F0BD10B5044600201070DA
:105630000BE020780870641C491C1078401C107026
:105640001078984201DB012010BD2078202802D07C
:1056500020780028EDD10020087000BFF4E700009A
:105660002DE9FF4F85B08046894600270020049031
:105670000390012002904FF0000B002544461DE0EE
:105680002078202816D005F07F00052812DA0DB901
:1056900045F0800505F07F00042803D120782A28F2
:1056A00000D00EE0207805F07F010DF80100681CA5
:1056B000C5B202E0852D00D103E0641C20780028EB
:1056C000DED100BF8DB1002005F07F010DF8010093
:1056D00051A1684600F062FA18B9002108980170DB
:1056E00002E001210898017000254FF0000A4446AD
:1056F00014E0641C0AF1010000F0FF0A2078202861
:1057000002D020782A2809D1204600F0D7F9064691
:10571000282E03D02A2E01D0CDF810A020782828DA
:1057200002D020780028E4D14446049810B10498AF
:10573000401C04444FF0000A002654E0207810B9C1
:105740004FF0010A50E02078282803D116B9781CC0
:10575000C7B213E02078292808D13EB917B1781EC6
:10576000C7B201E04FF0010A47B93DE02078222896
:1057700004D10EB9012000E00020064647B9207888
:1057800020282FD0207889F8000009F1010929E0AC
:1057900020782C2804D101200290681CC5B214E0A6
:1057A0002078202811D0207828280ED04DB9BBF1C0
:1057B000050F06DA20780DF80B000BF1010000F060
:1057C000FF0B0298401CC0B20290012F0AD1029830
:1057D000022807D10298401CC0B202900398401CD6
:1057E000C0B20390641CA9E700BF0398012809D147
:1057F00000200DF80B0008A1684600F0CFF908B9A9
:1058000000200390079903980870002089F8000091
:10581000504609B0BDE8F08F766F69640000000063
:105820002DE9F043B5B005460F460024002604E0FC
:1058300000213D488155701CC6B20A2EF8DB06E0F7
:105840006D1C287818B9012035B0BDE8F0832878A0
:105850002828F5D16D1C61E034AA69462846FFF777
:105860007FFE064635449DF8D00020B1012827D0A0
:10587000FF284CD149E09DF8000000B333A96846E9
:1058800000F027F906460EB10220DDE7204600F0C1
:105890004DF825490A31339A0A50A1F12400008BB2
:1058A0000121A140884320491A39088304211E4858
:1058B0000155601CC4B20A2C01DD0320C4E726E0B8
:1058C000684600F087F9401C00F0FF08204600F011
:1058D0002DF815490A3100EB01094946684600F0E8
:1058E0006EF911481A38018B0120A040014388B29B
:1058F0000D491A3908830C4800F80480601CC4B2B2
:105900000A2C01DD03209FE701E002209CE700BF95
:105910002878292801D0287800B900E09CE700BF4A
:105920003C70002090E70000FE01002002460020AD
:10593000002105E0044B5B5C0344D8B24B1CD9B298
:105940009142F7DB70470000FE01002010B50121F5
:105950000D48FCF7A4FF012808D10C48D0F8F0004E
:105960004FF6FF7108440949C1F8F0000648FCF7FA
:1059700093FF0649D1F8F01008440449C1F8F0003B
:105980000846D0F8F00010BD00080040E4010020F7
:1059900010B5044604EBC40000EB04100122C2EB76
:1059A000800081B24FF47A70FCF7E2FF01200149D8
:1059B000C87510BDE401002010B50246012000E0CA
:1059C00050430B1EA1F10104E1B2F9D110BD00005A
:1059D00010B501210848FCF74DFF4FF6FF7106484E
:1059E000FCF780FF00210448FCF77EFF00200349FC
:1059F000C1F8F00010BD000000080040E4010020E4
:105A000070B51D48008800F40040002833D01A48C3
:105A10000578002019494855194881681748884772
:105A200004461CB91649C868804721E0134800F0B5
:105A3000DDF80546012D00D02C46CCB1012C06D056
:105A4000022C08D0032C0AD0042C10D10BE00DA09E
:105A5000FDF7BCFD0BE00EA0FDF7B8FD07E00FA0C1
:105A6000FDF7B4FD03E010A0FDF7B0FD00BF00BFDF
:105A700000200149088070BDC0000020F40B002008
:105A8000E4010020BAAFCAFDB4EDCEF3210D0A0047
:105A9000B2CECAFDB4EDCEF3210D0A00B2CECAFDDE
:105AA000CCABB6E0210D0A00CEB4D5D2B5BDC6A5AB
:105AB000C5E4B5C4BAAFCAFD210D0A000146491CB0
:105AC00000E0491C0878202801D10029F9D1087884
:105AD00070472DE9F04307460E4600254FF00A08AF
