:020000040800F2
:1000000070080020A10100082D4C0008F510000820
:10001000294C0008C1090008D39200080000000024
:10002000000000000000000000000000F97B000854
:10003000C5090008000000002D770008A984000809
:10004000BB010008BB010008BB010008BB010008A0
:10005000BB010008BB010008BB010008BB01000890
:10006000BB010008BB010008BB010008BB01000880
:10007000BB010008BB010008BB010008BB01000870
:10008000BB010008BB010008BB010008BB01000860
:10009000BB010008BB010008BB010008BB01000850
:1000A000BB010008BB010008BB010008BB01000840
:1000B000BB010008BB01000849860008BB0100081D
:1000C000BB010008BB010008BB010008BB01000820
:1000D000BB010008C18A0008198C00084D8D00087A
:1000E000BB010008BB010008BB010008BB01000800
:1000F000BB010008BB010008BB010008BB010008F0
:10010000BB010008BB010008BB010008BB010008DF
:10011000D987000855890008BB010008BB01000809
:10012000BB010008BB010008BB010008BB010008BF
:10013000BB010008BB010008BB010008BB010008AF
:10014000BB010008BB010008BB010008BB0100089F
:10015000BB010008BB010008BB010008C98E0008F4
:10016000BB010008BB010008BB010008BB0100087F
:10017000BB010008BB010008BB010008BB0100086F
:10018000BB010008BB010008DFF810D000F028FB1D
:1001900000480047A5A20008AFF3008070080020C7
:1001A0000648804706480047FEE7FEE7FEE7FEE711
:1001B000FEE7FEE7FEE7FEE7FEE7FEE7E185000873
:1001C000890100082DE9FE4F804681EA0300C00F37
:1001D0000C46009021F0004123F00045B8EB0200EE
:1001E000A94105D24046214690461C460B46024690
:1001F00023F00040104347D0270DC7F30A00C3F394
:100200000A510290401A019040286BDAC3F31300A0
:1002100040F4801B0098924620B10023D2EB030AE1
:1002200063EB0B0B01985946C0F14002504600F0B9
:10023000FAF906460D4650465946019A00F012FA60
:1002400010EB08006141002487EA115284EAE77349
:100250001A4340D0009A62B3019A012A4FEA07522A
:1002600015DC001B61EB02014FF0004202EA07526D
:10027000CDE90042001C41F5801132462B4600F0CA
:1002800049FA03B0BDE8F08F40462146F9E7001B6C
:1002900061EB0201001C41F5801300185B4120183E
:1002A000A2F5001747EB030140EAD570B6196D417E
:1002B00011E06D084FEA360645EAC0754FEA07526D
:1002C000001B61EB0201001C41F5801149084FEA57
:1002D00030000019514132462B4603B0BDE8F04FC3
:1002E00000F009BA0098012240000023D0EB02027E
:1002F00063EBE073009821464FEAE074B8EB00002E
:1003000061EB0401E9E783F000435BE781F0004122
:1003100058E72DE9FE4F81EA030404F0004421F080
:10032000004100944FF0000B23F0004350EA010419
:100330005ED052EA03045BD0C3F30A54C1F30A55FA
:100340002C44A4F2F3340194A0FB0254C1F3130132
:1003500041F48011C3F3130343F4801301FB0244FF
:1003600000FB034E840A970A44EA815447EA835704
:10037000A4FB076802958D0A05FB07854FEA932CBD
:1003800004FB0C542705029D4FEA065847EA16372E
:10039000B5EB08056EEB070C870E920E47EA811746
:1003A00042EA8312A7FB0201B6EB0B0164EB0004E7
:1003B0002B0D43EA0C335E1844EB1C50DA465146D1
:1003C000E7FB0201C5F313044FEA0B3343EA14536E
:1003D0004FEA0432019C43EA0603A4F10C040294A0
:1003E000009CCDE900B400F095F903B0BDE8F08FB2
:1003F00000200146F9E72DE9F04D81EA030404F0FD
:10040000004B21F0004514464FF0000A23F0004154
:1004100050EA050220D054EA01021DD0C5F30A5764
:100420000246C5F31303C1F31300C1F30A5640F4A7
:10043000801543F48013A7EB0608101BD64608F27C
:10044000FD3873EB050002D308F1010801E09218B2
:100450005B41B8F1000F03DA00200146BDE8F08DE2
:1004600000204FF48011064684460EE0171B73EB04
:10047000050705D3121B63EB050306434CEA010C89
:1004800049084FEA300092185B4150EA0107EDD16C
:1004900052EA030012D082EA040083EA050108430D
:1004A00005D0101BAB4106D20122002306E000223A
:1004B0004FF0004302E06FF0010253101AEB060008
:1004C0004CEB085110EB0A0041EB0B01BDE8F04D7D
:1004D00000F011B90EB5C10F80EAE0700844CA07F8
:1004E000002140F233438DE80E000A460B4600F02F
:1004F00011F903B000BD70B5C1F30A5201F0004517
:100500000024C1F3130140F2FF3341F480119A42F9
:1005100001DA002070BD40F233439A42A2F2334226
:1005200003DC524200F08EF800E090402C43F1D002
:10053000404270BDC1F30A5210B5C1F3130140F23D
:10054000FF3341F480119A4201DA002010BD40F2DD
:1005500033439A42A2F2334203DC524200F072F873
:1005600010BD904010BD00F0004230F000400AD0B5
:10057000C10D01F56071C0F3160042EA0151C208D5
:1005800040071143704700200146704701F00043C7
:1005900030B421F0004150EA010206D00A0DA2F564
:1005A0006072C1F31301002A02DC30BC00207047E6
:1005B000440F44EAC104C100E01830BC00EBC25053
:1005C00000F062B82DE9F05F0546002092469B4698
:1005D00088460646814640241BE028464146474659
:1005E000224600F02FF853465A46C01A914110D3C4
:1005F00011461846224600F016F82D1A67EB01083E
:100600004F4622460120002100F00DF817EB0009AB
:100610004E41201EA4F10104DFDC484631462A4643
:100620004346BDE8F09F202A04DB203A00FA02F19D
:10063000002070479140C2F1200320FA03F31943D0
:1006400090407047202A04DB203A21FA02F0002172
:10065000704721FA02F3D040C2F1200291400843D2
:1006600019467047202A06DBCB17203A41FA02F0E0
:1006700043EAE07306E041FA02F3D040C2F12002FF
:1006800091400843194670470029A8BF7047401C95
:10069000490008BF20F00100704710B4B0FA80FC98
:1006A00000FA0CF050EA010404BF10BC704749B1D5
:1006B000CCF1200421FA04F411FA0CF118BF012145
:1006C00021430843A3EB0C01CB1D4FEA00614FEA25
:1006D000102042BF002010BC704700EBC3501044F4
:1006E0000029A4BF10BC7047401C490008BF20F07F
:1006F000010010BC704710B5141E73F1000408DA35
:10070000401C41F1000192185B411A4301D120F0D5
:10071000010010BD2DE9F04D92469B4611B1B1FA92
:1007200081F202E0B0FA80F220329046FFF77BFFC0
:1007300004460F4640EA0A0041EA0B0153465A4676
:10074000084313D0114653EA010019D0C8F1400202
:100750005046FFF777FF05460E465046594642463B
:10076000FFF761FF084305D0012004E02046394629
:10077000BDE8F08D0020054346EAE0762C43374380
:100780000A986305E40AA0EB08000022FD0A44EA87
:1007900047540A3002D500200146E9E70105101947
:1007A0006941DDE9084500196941BDE8F04DA2E75E
:1007B00030B5041E71F1000404DB4FF000444042E8
:1007C00064EB0101141E73F1000405DB1C464FF0BD
:1007D0000043524263EB04038B4208BF824230BDA8
:1007E000064C074D06E0E06840F0010394E807007E
:1007F00098471034AC42F6D3FFF7CAFC64B800083F
:1008000084B8000870B58C1810F8015B15F0070368
:1008100001D110F8013B2A1106D110F8012B03E099
:1008200010F8016B01F8016B5B1EF9D12B0705D4A1
:100830000023521E0DD401F8013BFAE710F8013BEA
:10084000CB1A921C03E013F8015B01F8015B521E06
:10085000F9D5A142D8D3002070BD000010B53D48A5
:10086000007810B1102857D111E09FED3B0A3B48AA
:1008700080ED000A9FED380A394880ED000A9FEDAF
:10088000360A384880ED000A00F054FC60E04FF46E
:100890007A703549088035490880354908803548DF
:1008A000C088354908803348408934490880314838
:1008B0008089334908803348007801280CD13248B8
:1008C0000078401C3049087000F09AFA04F0F6F9FC
:1008D00000202C4908701EE02C48007801281AD10D
:1008E00000202B4908802B4908802B4908802B4980
:1008F00008802B4908802B4908804FF400602A4962
:1009000008802A4908802A4908802A4908802A49FB
:1009100008802A4908801BE000201D4908801D49E5
:1009200008801D4908801D4908801D4908801D490F
:1009300008804FF400601C4908801C4908801C494D
:1009400008801C4908801C4908801C49088000BF99
:1009500000BF10BD04010020000000005000002076
:100960005400002058000020F8000020FA00002069
:10097000FC00002026040020FE00002000010020D2
:10098000020100204F000020280000200E0000205F
:100990008C0000208E00002090000020920000209B
:1009A00094000020960000205C0000205E000020E3
:1009B000600000206200002064000020660000202B
:1009C00000BFFEE7704700001CB50121082006F0BB
:1009D000AFFE0121022006F0ABFE0121102006F03F
:1009E000A7FE8020009001208DF8040000208DF8E3
:1009F000060003208DF8050001208DF807006946E8
:100A00001A4800F039F88021184800F0A0F84FF497
:100A10007E70009001208DF8040000208DF8060003
:100A200003208DF8050001208DF807006946104865
:100A300000F022F84FF47E710D4800F088F8032092
:100A4000009001208DF8040000208DF8060003209E
:100A50008DF8050001208DF807006946054800F073
:100A60000BF80321034800F072F81CBD000C024093
:100A70000004024000100240F0B50A4600210023A5
:100A8000002400BF3DE0012505FA01F3156805EAE1
:100A900003049C4234D105684F000326BE40B54391
:100AA000056015794E00B540066835430560157937
:100AB000012D02D01579022D16D185684F0003262D
:100AC000BE40B543856055794E00B54086683543D4
:100AD0008560456801268E40B54345604568967936
:100AE0008E40B6B235434560C5684F000326BE4010
:100AF000B543C560D5794E00B540C6683543C5607D
:100B0000491C1029BFD3F0BDF0B5002300244D07C8
:100B1000ED0E02FA05F3CE1000F1200555F826502F
:100B20004E07F70E0F26BE40B543CF1000F120064A
:100B300046F82750CE1000F1200555F8265045EA1A
:100B40000304CE1000F1200545F82640F0BD0183D6
:100B5000704700001E480078012837D11D480078F2
:100B6000DD2833D11B48807880BB1A4890F82100DB
:100B700077282BD1174800791749487015484079D4
:100B8000087008460178407801EB0020134908807E
:100B900010488079124948700E48C079087008469C
:100BA0000178407801EB00200E4908800948C07D9B
:100BB0000D4908700748007D0C4948700548407D84
:100BC0000870002003490870014908707047000050
:100BD0000901002048040020110100201401002018
:100BE00016010020180100201A0100201B0100201E
:100BF0002748007801284AD1264800785A2846D14B
:100C0000244840780E2842D12248407B69283ED1B2
:100C10002048C079072835D2DFE800F034040C14EE
:100C20001C242C001B48C178807801EB00201A4955
:100C3000088028E01748C178807801EB0020174928
:100C4000088020E01348C178807801EB0020144927
:100C5000088018E00F48C178807801EB0020114926
:100C6000088010E00B48C178807801EB00200E4925
:100C7000088008E00748C178807801EB00200B4924
:100C8000088000E000BF00BF0020014908707047E5
:100C9000D7000020FD030020D8000020DA0000204B
:100CA000DC000020DE000020E0000020E200002048
:100CB0004548007801286FD144480078AA28FAD125
:100CC000424880780A287DD14048C078002879D1F0
:100CD0003E484078072873D2DFE800F072041628F7
:100CE0003A4C5F003948C0793849897900EB0120D6
:100CF00000B237490880354840793449097900EB1A
:100D00000120344908805CE03048C0792F49897956
:100D100000EB012000B2304908802C4840792B4973
:100D2000097900EB01202D4908804AE02748C07965
:100D30002649897900EB012000B22949088023481F
:100D400040792249097900EB01202649088038E0E2
:100D50001E48C0791D49897900EB012000B2224963
:100D600008801A4840791949097900EB01201F4988
:100D7000088026E01548C0791449897900EB0120E4
:100D800000B21B490880114840791049097900EBED
:100D900001201849088014E014E00C48C0790B4980
:100DA000897900EB012000B2134908800748407997
:100DB0000649097900EB01201049088001E0FFE7AE
:100DC00000BF00BF704700008B000020AD03002073
:100DD000720000207E0000207400002080000020AF
:100DE000760000208200002078000020840000208F
:100DF0007A000020860000207C000020880000206F
:100E000011480078AA281ED10F48407855281AD1D9
:100E10000D4880780F2816D101200C490870002059
:100E20000B4908800B4908700B480749D1F8061098
:100E300001600A480449D1F80A10016008480249D3
:100E4000D1F80E10016070476A03002036000020C0
:100E50000C0000200E000020500000205400002054
:100E6000580000209848007801287CD197480078E5
:100E7000012879D19648C07D10B1102875D1FBE0CA
:100E8000934800780F2871D191484078904989782B
:100E900040EA0120C0F30A008E4948808C488078DF
:100EA000C0108B49C97840EA4110C0F30A00894953
:100EB00088808748C07880118549097940EA810097
:100EC0008349497940EA8120C0F30A008149C880FA
:100ED0007F48407940107E49897940EAC110C0F3CB
:100EE0000A007C4908817A48807900117849C979DB
:100EF00040EA0110C0F30A00764948817448C0797D
:100F0000C0117349097A40EA41007149497A40EABF
:100F10004120C0F30A006F4988816D48407A8010F3
:100F20006B49897A40EA8110C0F30A006949C88197
:100F30006748807A40116649C97A40EAC10065492C
:100F400008826348007B6249497B40EA0120C0F384
:100F50000A00604948825E48407BC0105C49897B3A
:100F600040EA411003E09EE0ADE09AE073E0C0F398
:100F70000A00584988825648807B80115449C97BB1
:100F800040EA81005249097C40EA8120C0F30A000E
:100F90005049C8824E48007C40104D49497C40EA87
:100FA000C110C0F30A004B4908834948407C001136
:100FB0004749897C40EA0110C0F30A00454948834B
:100FC0004348807CC0114249C97C40EA4100404905
:100FD000097D40EA4120C0F30A003E4988833C482D
:100FE000007D80103A49497D40EA8110C0F30A0033
:100FF0003849C8833648407D40113549897D40EAEB
:10100000C100344908840846408833490880314883
:101010008088324908802F480089314908802D484E
:10102000C088304908802B4840892F4908802948CA
:1010300080892E4908802648C07D2D4908700120EE
:101040002349087000202149087021490870487020
:101050008870C8700FE01E48007860B91C4840785E
:1010600048B94FF47A701C4908801C4908801C4913
:1010700008801C49088015E04FF47A7016490880F2
:1010800016490880164908801248C088154908800A
:1010900010484089144908800E4880891349088007
:1010A00000E000BF0FE010200949C8750846C07D68
:1010B0000F4908700020084908800849088008493D
:1010C000088008490880704705010020F7000020CB
:1010D0000C04002026040020FC000020F800002062
:1010E000FA000020FE000020000100200201002084
:1010F0000401002000BFFEE71CB50121084606F0F0
:1011000017FB3020009001208DF8040000208DF89E
:10111000060003208DF8050001208DF807006946C0
:101120000348FFF7A9FC30210148FFF710FD1CBD63
:101130000000024000B52DED028B91B0FE48008802
:1011400028BBFE48008810BBFD480088F8B9FD4860
:101150000088E0B90020FC490880FC490880FC496F
:101160000880FC490880FC490880FC4908804FF44D
:101170000060FB490880FB490880FB490880FB4967
:101180000880FB490880FB49088003F03CBDEB4820
:101190000088A0F57A7000EE100AB8EEC00A8DED56
:1011A0000F0A9DED0F0A09F036F9F3EE040AB4EECA
:1011B000E00AF1EE10FA7CDDE0480088A0F57A70D4
:1011C00000B2ED4908800846B0F90000FFF782F947
:1011D0009FEDEA0B53EC102BCDE908019DED080BB8
:1011E00051EC100BFFF795F89FEDE60B53EC102B2D
:1011F000CDE90A019DED0A0B51EC100BFFF789F8C0
:101200009FEDE20B53EC102BCDE90C019DED0C0B87
:1012100051EC100BFFF7EFF8CDE90E019DED0E0B31
:1012200051EC100BFFF767F900B2C7490880D248AC
:10123000B0F90000FFF74EF99FEDD00B53EC102BE7
:10124000CDE908019DED080B51EC100BFFF761F89B
:101250009FEDCC0B53EC102BCDE90A019DED0A0B51
:1012600051EC100BFFF755F89FEDC80B53EC102B0A
:10127000CDE90C019DED0C0B51EC100BFFF7BBF809
:10128000CDE90E019DED0E0B51EC100BFFF733F97C
:1012900000B2AE490880B848B0F90000FFF71AF96B
:1012A0009FEDB60B53EC102BCDE908019DED080B1B
:1012B00000E0D3E051EC100BFFF72BF89FEDB10BE2
:1012C00053EC102BCDE90A019DED0A0B51EC100BEC
:1012D000FFF71FF89FEDAD0B53EC102BCDE90C0180
:1012E0009DED0C0B51EC100BFFF785F8CDE90E01CD
:1012F0009DED0E0B51EC100BFFF7FDF800B2944979
:1013000008809D48B0F90000FFF7E4F89FED9B0BC3
:1013100053EC102BCDE908019DED080B51EC100B9F
:10132000FEF7F7FF9FED970B53EC102BCDE90A0169
:101330009DED0A0B51EC100BFEF7EBFF9FED930BAD
:1013400053EC102BCDE90C019DED0C0B51EC100B67
:10135000FFF751F8CDE90E019DED0E0B51EC100B8E
:10136000FFF7C9F800B27B4908808348B0F9000054
:10137000FFF7B0F89FED810B53EC102BCDE908017E
:101380009DED080B51EC100BFEF7C3FF9FED7D0B9D
:1013900053EC102BCDE90A019DED0A0B51EC100B1B
:1013A000FEF7B7FF9FED790B53EC102BCDE90C0145
:1013B0009DED0C0B51EC100BFFF71DF8CDE90E0164
:1013C0009DED0E0B51EC100BFFF795F800B2624942
:1013D00008806948B0F90000FFF77CF89FED670BC3
:1013E00053EC102BCDE908019DED080B51EC100BCF
:1013F000FEF78FFF9FED630B53EC102BCDE90A0135
:101400009DED0A0B51EC100BFEF783FF9FED5F0B78
:1014100053EC102BCDE90C019DED0C0B51EC100B96
:10142000FEF7E9FFCDE90E019DED0E0B51EC100B1F
:10143000FFF761F800B2494908804FF480604849DD
:10144000088048490880484908804FF4406047496F
:101450000880474908804749088096E63748008851
:10146000A0F57A7000EE100AB8EEC00A8DED0F0AF2
:101470009DED0F0A08F0CFFFF3EE040AB4EEE00A88
:10148000F1EE10FAE9D22C480088A0F57A7000EE4F
:10149000100AB8EEC00A8DED0F0A9DED0F0A08F094
:1014A000BAFFF3EE040AB4EEE00AF1EE10FA42DD00
:1014B00023480088A0F57A7000EE100AB8EEC00A42
:1014C0008DED0F0A9DED0F0A08F0A5FFF3EE040A5B
:1014D000B4EEE00AF1EE10FA2DD217480088A0F51C
:1014E0007A7000B22B4908800846B0F900004042EB
:1014F000FEF7F0FF9FED210B53EC102BCDE9080117
:101500009DED080B51EC100BFEF703FF9FED1D0B3B
:1015100053EC102BCDE90A019DED0A0B51EC100B99
:10152000FEF7F7FE9FED190B53EC102BCDE90C01E4
:101530009DED0C0B30E053E1F8000020FA00002094
:10154000FC000020FE0000208C0000208E00002007
:1015500090000020920000209400002096000020BF
:101560005C0000205E00002060000020620000207F
:101570006400002066000020320000207715527EB3
:10158000D2732D400000000000004E40000000001B
:10159000000089403000002051EC100BFEF72BFFBB
:1015A000CDE90E019DED0E0B51EC100BFEF7A3FFE4
:1015B00000B2FE490880FE48B0F900004042FEF744
:1015C00089FF1FED120B53EC102BCDE908019DEDA7
:1015D000080B51EC100BFEF79CFE1FED160B53ECA5
:1015E000102BCDE90A019DED0A0B51EC100BFEF713
:1015F00090FE1FED1A0B53EC102BCDE90C019DED65
:101600000C0B51EC100BFEF7F6FECDE90E019DED33
:101610000E0B51EC100BFEF76EFF00B2E54908808F
:10162000E348B0F900004042FEF754FF1FED2D0BD8
:1016300053EC102BCDE908019DED080B51EC100B7C
:10164000FEF767FE1FED310B53EC102BCDE90A01BD
:101650009DED0A0B51EC100BFEF75BFE1FED350BF9
:1016600053EC102BCDE90C019DED0C0B51EC100B44
:10167000FEF7C1FECDE90E019DED0E0B51EC100BF6
:10168000FEF739FF00B2CC490880C948B0F9000024
:10169000FEF720FF1FED470B53EC102BCDE908019F
:1016A0009DED080B51EC100BFEF733FE1FED4B0BBD
:1016B00053EC102BCDE90A019DED0A0B51EC100BF8
:1016C000FEF727FE1FED4F0B53EC102BCDE90C015D
:1016D0009DED0C0B51EC100BFEF78DFECDE90E01CC
:1016E0009DED0E0B51EC100BFEF705FF00B2B34958
:1016F0000880AF48B0F90000FEF7ECFE1FED610B6B
:1017000053EC102BCDE908019DED080B51EC100BAB
:10171000FEF7FFFD1FED650B53EC102BCDE90A0121
:101720009DED0A0B51EC100BFEF7F3FD1FED690B5D
:1017300053EC102BCDE90C019DED0C0B51EC100B73
:10174000FEF759FECDE90E019DED0E0B51EC100B8D
:10175000FEF7D1FE00B29A4908809548B0F9000022
:10176000FEF7B8FE1FED7B0B53EC102BCDE9080103
:101770009DED080B51EC100BFEF7CBFD1FED7F0B21
:1017800053EC102BCDE90A019DED0A0B51EC100B27
:10179000FEF7BFFD1FED830B53EC102BCDE90C01C1
:1017A0009DED0C0B51EC100BFEF725FECDE90E0163
:1017B0009DED0E0B51EC100BFEF79DFE00B2814922
:1017C00008804FF400608049088080490880804983
:1017D0000880804908808049088080490880D4E4D6
:1017E0007F480088A0F57A7000EE100AB8EEC00AB3
:1017F0008DED0F0A9DED0F0A08F00DFEF3EE040AC1
:10180000B4EEE00AF1EE10FA7ED276480088A0F538
:101810007A7000EE100AB8EEC00A8DED0F0A9DED49
:101820000F0A08F0F8FDF3EE040AB4EEE00AF1EE58
:1018300010FA69DD6B480088C0F57A7000B26A4919
:1018400008809FED6A0A08F05DF9B0EE408A9FEDCE
:10185000680A08F057F9C8EE000A6348B0F90000BA
:1018600000EE100AB8EEC00A20EE800A8DED070ADD
:101870000798FEF778FE1FEDBF0B53EC102BCDE958
:1018800008019DED080B51EC100BFEF742FD1FED1A
:10189000C30B53EC102BCDE90A019DED0A0B51EC63
:1018A000100BFEF736FD1FEDC70B53EC102BCDE9E7
:1018B0000C019DED0C0B51EC100BFEF79CFDCDE9DE
:1018C0000E019DED0E0B51EC100BFEF714FE00B255
:1018D000364908804448B0F90000FEF7FBFD1FEDD3
:1018E000D90B53EC102BCDE908019DED080B51EC01
:1018F000100BFEF70EFD1FEDDD0B53EC102BCDE9A9
:101900000A019DED0A0B00E012E251EC100BFEF70C
:1019100000FD1FEDE20B53EC102BCDE90C019DED0A
:101920000C0B51EC100BFEF766FDCDE90E019DEDA1
:101930000E0B51EC100BFEF7DEFD00B21D490880C6
:101940009FED2C0A08F0DEF8B0EE408A9FED280AE1
:1019500008F0D8F8C8EE000A2348B0F9000000EEFD
:10196000100AB8EEC00A20EE800A8DED070A07982B
:10197000FEF7F9FD9FED200B53EC102BCDE908018C
:101980009DED080B51EC100BFEF7C3FC9FED1C0BFB
:1019900053EC102BCDE90A019DED0A0B51EC100B15
:1019A000FEF7B7FC9FED180B32E000008C00002022
:1019B000300000208E0000209000002092000020C7
:1019C00094000020960000205C0000205E000020B3
:1019D00060000020620000206400002066000020FB
:1019E000F8000020FC00002034000020DF4F2D3FD5
:1019F000A089003F355E5A3F7715527ED2732D4045
:101A00000000000000004E4000000000000089407F
:101A100053EC102BCDE90C019DED0C0B51EC100B90
:101A2000FEF7E9FCCDE90E019DED0E0B51EC100B1C
:101A3000FEF761FD00B2FE4908801FED140A08F0B0
:101A400061F8B0EE408A1FED160A08F05BF8C8EEA8
:101A5000000AF848B0F9000000EE100AB8EEC00A1B
:101A600020EE800A8DED070A0798FEF77CFD1FED3A
:101A70001E0B53EC102BCDE908019DED080B51EC2A
:101A8000100BFEF746FC1FED220B53EC102BCDE99B
:101A90000A019DED0A0B51EC100BFEF73AFC1FED0D
:101AA000260B53EC102BCDE90C019DED0C0B51ECEA
:101AB000100BFEF7A0FCCDE90E019DED0E0B51ECD5
:101AC000100BFEF718FD00B2DB490880D948B0F9C9
:101AD0000000FEF7FFFC1FED380B53EC102BCDE997
:101AE00008019DED080B51EC100BFEF712FC1FEDE9
:101AF0003C0B53EC102BCDE90A019DED0A0B51EC88
:101B0000100BFEF706FC1FED400B53EC102BCDE93C
:101B10000C019DED0C0B51EC100BFEF76CFCCDE9AC
:101B20000E019DED0E0B51EC100BFEF7E4FC00B224
:101B3000C24908801FED510A07F0E4FFB0EE408A69
:101B40001FED550A07F0DEFFC8EE000AB948B0F9EC
:101B5000000000EE100AB8EEC00A20EE800A8DEDFB
:101B6000070A0798FEF7FFFC1FED5D0B53EC102BE7
:101B7000CDE908019DED080B51EC100BFEF7C9FBF8
:101B80001FED610B53EC102BCDE90A019DED0A0B03
:101B900051EC100BFEF7BDFB1FED650B53EC102B4A
:101BA000CDE90C019DED0C0B51EC100BFEF723FC65
:101BB000CDE90E019DED0E0B51EC100BFEF79BFCD9
:101BC00000B29F4908809FED9F1B9FEDA00B07F07F
:101BD00043FD8DED0C0B9FED9F0B53EC102B9DEDFA
:101BE0000C0B51EC100BFEF794FBCDE90E019DEDB3
:101BF0000E0B51EC100BFEF79DFC00F58060974931
:101C000008809FED971B9FED980B07F025FD8DED4C
:101C10000C0B9FED900B53EC102B9DED0C0B51EC2E
:101C2000100BFEF776FBCDE90E019DED0E0B51EC8E
:101C3000100BFEF77FFC00F580608D4908809FED5A
:101C4000811B9FED8C0B07F007FD8DED0C0B9FEDBD
:101C5000810B53EC102B9DED0C0B51EC100BFEF790
:101C600058FBCDE90E019DED0E0B51EC100BFEF76C
:101C700061FCC0F54060814908809FED721B9FEDBB
:101C8000730B07F0E9FC8DED0C0B9FED720B53EC21
:101C9000102B9DED0C0B51EC100BFEF73AFBCDE930
:101CA0000E019DED0E0B51EC100BFEF743FCC0F541
:101CB0004060734908809FED6A1B9FED6B0B07F036
:101CC000CBFC8DED0C0B9FED630B53EC102B9DEDBE
:101CD0000C0B51EC100BFEF71CFBCDE90E019DED3A
:101CE0000E0B51EC100BFEF725FCC0F5406065496A
:101CF00008809FED541B9FED5F0B07F0ADFC8DED51
:101D00000C0B9FED540B53EC102B9DED0C0B51EC79
:101D1000100BFEF7FEFACDE90E019DED0E0B51EC16
:101D2000100BFEF707FC00F580605749088056E568
:101D300056480088A0F57A7000EE100AB8EEC00A86
:101D40008DED0F0A9DED0F0A08F065FBF3EE040A16
:101D5000B4EEE00AF1EE10FA42F3E4864C48008853
:101D6000A0F57A7000EE100AB8EEC00A8DED0F0AE9
:101D70009DED0F0A08F04FFBF3EE040AB4EEE00A03
:101D8000F1EE10FAE8DD41480088A0F57A7000B263
:101D9000404908803E480088C0F57A7000B2254965
:101DA00008803C48B0F90000002879DD0846B0F909
:101DB00000000028F9DD3748B0F9000000EE100AF5
:101DC000F8EEC00A0846B0F9000000EE100AB8EEBE
:101DD000C00A80EE801A304880ED001A0846B0F93B
:101DE000000000EE100AB8EEC00A08F014FBB0EED6
:101DF000408A294890ED000ADFED280A30EE600A9B
:101E00008DED000A9DED000A08F005FBF0EE401A8A
:101E1000214890ED000ADFED210A30EE600A8DEDD9
:101E2000000A9DED000A08F0F6FA21EE800A38E07B
:101E30009000002034000020920000209400002038
:101E400096000020A4703D0AD7A3E83F8FC2F52872
:101E50005C8FD23FC971A774305F84405C00002062
:101E6000295C8FC2F528BC3F666666666666E63FFB
:101E70005E00002052B81E85EB51E03F600000205C
:101E8000620000206400002066000020F8000020AE
:101E9000FC0000203000002024000020E17A943E65
:101EA000FEE38DED010A0198FEF75DFB9FEDFE0B51
:101EB00053EC102BCDE902019DED020B51EC100B00
:101EC000FEF780F9CDE904019DED040B51EC100BF8
:101ED000FEF75CFB06909DED060A07F013FE28EE68
:101EE000400A8DED070A0798FEF73DFB9FEDF00BCA
:101EF00053EC102BCDE908019DED080B51EC100BB4
:101F0000FEF707FA9FEDEC0B53EC102BCDE90A011D
:101F10009DED0A0B51EC100BFEF7FBF99FEDE80B62
:101F200053EC102BCDE90C019DED0C0B51EC100B7B
:101F3000FEF761FACDE90E019DED0E0B51EC100B91
:101F4000FEF7D9FA00B2E0490880E048B0F9000095
:101F500000EE100AB8EEC00A08F05DFAB0EE408A52
:101F6000DB4890ED000ADFEDDB0A30EE600A8DED14
:101F7000000A9DED000A08F04EFAF0EE401AD4482F
:101F800090ED000ADFEDD30A30EE600A8DED000A15
:101F90009DED000A08F03FFA21EE800A8DED010A5E
:101FA0000198FEF7E0FA9FEDCC0B53EC102BCDE936
:101FB00002019DED020B51EC100BFEF703F9CDE988
:101FC00004019DED040B51EC100BFEF7DFFA0690B7
:101FD0009DED060A07F096FD28EE400A8DED070AF2
:101FE0000798FEF7C0FA9FEDB20B53EC102BCDE92A
:101FF00008019DED080B51EC100BFEF78AF99FEDDF
:10200000AE0B53EC102BCDE90A019DED0A0B51EC00
:10201000100BFEF77EF99FEDAA0B53EC102BCDE9C8
:102020000C019DED0C0B51EC100BFEF7E4F9CDE922
:102030000E019DED0E0B51EC100BFEF75CFA00B299
:10204000A7490880A148B0F9000000EE100AB8EED8
:10205000C00A08F0E0F9B0EE408A9D4890ED000A11
:10206000DFEDA00A30EE600A8DED000A9DED000A5A
:1020700008F0D1F9F0EE401A954890ED000ADFED36
:10208000990A30EE600A8DED000A9DED000A08F015
:10209000C2F921EE800A8DED010A0198FEF763FA7C
:1020A0009FED810B53EC102BCDE902019DED020B4E
:1020B00051EC100BFEF786F8CDE904019DED040B01
:1020C00051EC100BFEF762FA06909DED060A07F040
:1020D00019FD28EE400A8DED070A0798FEF743FA2E
:1020E0009FED730B53EC102BCDE908019DED080B10
:1020F00051EC100BFEF70DF99FED6F0B53EC102B0D
:10210000CDE90A019DED0A0B51EC100BFEF701F928
:102110009FED6B0B53EC102BCDE90C019DED0C0BDF
:1021200051EC100BFEF767F9CDE90E019DED0E0B9A
:1021300051EC100BFEF7DFF900B26B4908806348E1
:10214000B0F9000000EE100AB8EEC00A08F063F91A
:10215000B0EE408A5E4890ED000A5FEDB00A30EEC6
:10216000200A8DED000A9DED000A08F054F9F0EE0A
:10217000401A574890ED000A5FEDB80A30EE200A89
:102180008DED000A9DED000A08F045F921EE800A68
:102190008DED010A0198FEF7E6F99FED430B53EC34
:1021A000102BCDE902019DED020B51EC100BFEF757
:1021B00009F8CDE904019DED040B51EC100BFEF77D
:1021C000E5F906909DED060A07F09CFC28EE000A52
:1021D0008DED070A0798FEF7C6F99FED350B53EC16
:1021E000102BCDE908019DED080B51EC100BFEF70B
:1021F00090F89FED310B53EC102BCDE90A019DEDCA
:102200000A0B51EC100BFEF784F89FED2D0B53ECED
:10221000102BCDE90C019DED0C0B51EC100BFEF7D2
:10222000EAF8CDE90E019DED0E0B51EC100BFEF717
:1022300062F900B22D4908802448B0F9000000EE90
:10224000100AB8EEC00A08F0E6F8B0EE408A20485E
:1022500090ED000ADFED1F0A30EE200A8DED000A36
:102260009DED000A08F0D7F8F0EE401A184890EDFE
:10227000000ADFED180A30EE200A8DED000A9DED10
:10228000000A08F0C8F821EE800A8DED010A0198D5
:10229000FEF769F99FED100B53EC102BCDE902010D
:1022A0009DED020B24E000007E8CB96B09F9E23F42
:1022B0007715527ED2732D400000000000004E4082
:1022C00000000000000089408C0000203400002045
:1022D000240000203333333F80B74082E2C7883F79
:1022E0008E0000205C8F023F9000002092000020B2
:1022F00051EC100BFDF766FFCDE904019DED040BD9
:1023000051EC100BFEF742F906909DED060A07F01E
:10231000F9FB28EE000A8DED070A0798FEF723F96E
:102320001FED1D0B53EC102BCDE908019DED080BA3
:1023300051EC100BFDF7EDFF1FED210B53EC102BB3
:10234000CDE90A019DED0A0B51EC100BFDF7E1FF01
:102350001FED250B53EC102BCDE90C019DED0C0B63
:1023600051EC100BFEF747F8CDE90E019DED0E0B79
:1023700051EC100BFEF7BFF800B2FE490880FE4892
:10238000B0F9000000EE100AB8EEC00A08F043F8F9
:10239000B0EE408AF94890ED000A5FED2E0A30EE6B
:1023A000200A8DED000A9DED000A08F034F8F0EEE9
:1023B000401AF24890ED000A5FED360A30EE200A2E
:1023C0008DED000A9DED000A08F025F821EE800A47
:1023D0008DED010A0198FEF7C6F81FED4D0B53EC89
:1023E000102BCDE902019DED020B51EC100BFDF716
:1023F000E9FECDE904019DED040B51EC100BFEF755
:10240000C5F806909DED060A07F07CFB28EE000A51
:102410008DED070A0798FEF7A6F81FED5B0B53EC4E
:10242000102BCDE908019DED080B51EC100BFDF7C9
:1024300070FF1FED5F0B53EC102BCDE90A019DEDF2
:102440000A0B51EC100BFDF764FF1FED630B53EC0F
:10245000102BCDE90C019DED0C0B51EC100BFDF791
:10246000CAFFCDE90E019DED0E0B51EC100BFEF7EE
:1024700042F800B2C2490880C04890ED000A5FED02
:102480006B0AB4EEE00AF1EE10FA7ADD90ED000A84
:10249000DFEDBC0A30EE600A8DED0F0ADDED0F0AAC
:1024A0009FEDB90A07F0D8F9DFEDB80A20EE200A4F
:1024B000BCEEC00A10EE100A00F50060B4490880B6
:1024C000AE4890ED000A5FED7D0A30EE600A8DEDBA
:1024D0000F0ADDED0F0A9FEDAF0A07F0BDF9DFED42
:1024E000AB0A20EE200ABCEEC00A10EE100A00F57E
:1024F0000060A9490880A14890ED000A5FED870AB5
:1025000030EE600A8DED0F0ADDED0F0A9FED9E0A99
:1025100007F0A2F9DFED9D0A20EE200ABCEEC00A0A
:1025200010EE100AC0F500609C490880934890EDB9
:10253000000ADFED940A30EE200A8DED0F0ADDED82
:102540000F0A9FED910A07F087F9DFED900A20EE60
:10255000200ABCEEC00A10EE100A00F50060904997
:102560000880864890ED000A5FEDA60A30EE200A4A
:102570008DED0F0ADDED0F0A9FED860A07F06CF96D
:1025800000E026E0DFED810A20EE200ABCEEC00A62
:1025900010EE100A00F5006082490880774890ED3F
:1025A000000A5FEDB00A30EE200A8DED0F0ADDED76
:1025B0000F0A9FED750A07F04FF9DFED740A20EE60
:1025C000200ABCEEC00A10EE100AC0F50060764981
:1025D00008806A4890ED000A5FEDC20AB4EEE00A96
:1025E000F1EE10FA7DD890ED000A5FEDC20AB4EE6C
:1025F000E00AF1EE10FA74DD90ED000ADFED610AF9
:1026000030EE600A8DED0F0ADDED0F0A9FED5E0AD8
:1026100007F022F9DFED5D0A20EE200ABCEEC00AC9
:1026200010EE100A00F5006059490880534890EDFB
:10263000000A5FEDD80A30EEC00A8DED0F0ADDED1D
:102640000F0A9FED540A07F007F9DFED500A20EE5C
:10265000200ABCEEC00A10EE100AC0F580504E49A8
:102660000880464890ED000A5FEDE20A30EE600A0D
:102670008DED0F0ADDED0F0A9FED430A07F0ECF830
:10268000DFED420A20EE200ABCEEC00A10EE100A6E
:10269000C0F5006041490880384890ED000A00E02C
:1026A00051E1DFED380A30EE200A8DED0F0ADDED45
:1026B0000F0A9FED350A07F0CFF8DFED340A20EE60
:1026C000200ABCEEC00A10EE100A00F50060344982
:1026D00008802A4890ED000ADFED340A30EE200A27
:1026E00000E02EE08DED0F0ADDED0F0A9FED290AC7
:1026F00007F0B2F8DFED250A20EE200ABCEEC00A92
:1027000010EE100A00F50060264908801B4890ED85
:10271000000ADFED270A30EE200A8DED0F0ADDED0D
:102720000F0A9FED190A07F097F8DFED180A20EE5F
:10273000200ABCEEC00A10EE100AC0F500601A496B
:1027400008800E4890ED000ADFED190AB4EEE00AA9
:10275000F1EE10FA7ED890ED000ADFED0A0A30EEB5
:10276000600A8DED0F0ADDED0F0A9FED070A07F0F5
:1027700073F81FE0940000203400002024000020A3
:1027800096000020E17A943EB81E453F84F9224429
:102790005C000020AE47E13D5E00002060000020AC
:1027A0006200002064000020660000203333333FC5
:1027B0005C8F023F5FED0B0A20EE200ABCEEC00AE0
:1027C00010EE100A00F50060FE490880FE4890ED0A
:1027D000000A5FED0A0A30EEC00A8DED0F0ADDED4A
:1027E0000F0A1FED140A07F037F85FED180A20EE04
:1027F000200ABCEEC00A10EE100AC0F58050F34962
:102800000880F14890ED000A5FED170A30EEC00A2B
:102810008DED0F0ADDED0F0A1FED250A07F01CF8FC
:102820005FED260A20EE200ABCEEC00A10EE100A68
:10283000E7490880E44890ED000A5FED2E0A30EE8B
:10284000200A8DED0F0ADDED0F0A1FED310A07F0AA
:1028500003F800E041E05FED330A20EE200ABCEE11
:10286000C00A10EE100A00F50060DA490880D64868
:1028700090ED000A5FED330A30EE200A8DED0F0A6D
:10288000DDED0F0A1FED3D0A06F0E6FF5FED410AA0
:1028900020EE200ABCEEC00A10EE100A00F500601F
:1028A000CD490880C84890ED000A5FED3F0A30EE40
:1028B000200A8DED0F0ADDED0F0A1FED4D0A06F01F
:1028C000CBFF5FED4E0A20EE200ABCEEC00A10EEF0
:1028D000100AC0F50060C1490880BA480088B0F508
:1028E000406F03DB4FF44060B6490880B74800886A
:1028F000B0F5406F03DB4FF44060B4490880B44842
:102900000088B0F5806F03DC4FF48060B049088028
:10291000B0480088B0F5406F03DB4FF44060AD492C
:102920000880AD480088B0F5406F03DB4FF440608D
:10293000A9490880A9480088B0F5806F03DC4FF4EE
:102940008060A6490880A648B0F9000000287CDA1B
:10295000A448B0F90000002877DDA148B0F90000D4
:1029600000EE100AB8EEC00AF1EE400A9D48B0F938
:10297000000000EE100AB8EEC00A80EE801A9248FD
:1029800080ED001A9748B0F9000000EE100AB8EE8A
:10299000C00A07F040FDB0EE408A8B4890ED000A77
:1029A0005FED880A30EE600A8DED000A9DED000AA9
:1029B00007F031FDF0EE401A834890ED000A5FED1C
:1029C0008F0A30EE600A8DED000A9DED000A07F0D7
:1029D00022FD21EE800A8DED010A0198FDF7C3FD6D
:1029E0009FED810B53EC102BCDE902019DED020B05
:1029F00051EC100BFDF7E6FBCDE904019DED040B56
:102A000051EC100BFDF7C2FD06909DED060A07F094
:102A100079F828EE000A8DED070A0798FDF7A3FD67
:102A20009FED730B53EC102BCDE908019DED080BC6
:102A300051EC100BFDF76DFC9FED6F0B53EC102B61
:102A4000CDE90A019DED0A0B00E0FDE351EC100B0E
:102A5000FDF75FFC9FED6A0B53EC102BCDE90C01E9
:102A60009DED0C0B51EC100BFDF7C5FCCDE90E01F3
:102A70009DED0E0B51EC100BFDF73DFD00B26249D0
:102A800008805848B0F9000000EE100AB8EEC00AFD
:102A900007F0C1FCB0EE408A4B4890ED000A5FEDB4
:102AA000BD0A30EE600A8DED000A9DED000A07F0C8
:102AB000B2FCF0EE401A444890ED000A5FEDC50A02
:102AC00030EE600A8DED000A9DED000A07F0A3FCD0
:102AD00021EE800A8DED010A0198FDF744FD9FED7E
:102AE0004B0B53EC102BCDE902019DED020B51EC89
:102AF000100BFDF767FBCDE904019DED040B51ECD4
:102B0000100BFDF743FD06909DED060A06F0FAFF57
:102B100028EE000A8DED070A0798FDF724FD9FEDCA
:102B2000340B53EC102BCDE908019DED080B51EC53
:102B3000100BFDF7EEFB9FED300B53EC102BCDE9A6
:102B40000A019DED0A0B51EC100BFDF7E2FB9FED26
:102B50002C0B53EC102BCDE90C019DED0C0B51EC23
:102B6000100BFDF748FCCDE90E019DED0E0B51EC6D
:102B7000100BFDF7C0FC00B2264908801948B0F9D7
:102B8000000000EE100AB8EEC00A07F044FCB0EEF8
:102B9000408A0D4890ED000A5FEDFB0A30EE600AB6
:102BA0008DED000A9DED000A07F035FCF0EE401AAD
:102BB000054890ED000ADFED180A30EE600A8DED51
:102BC000000A2BE05C000020240000205E000020B2
:102BD00060000020620000206400002066000020E9
:102BE00030000020340000207E8CB96B09F9E23FF0
:102BF0007715527ED2732D400000000000004E4039
:102C000000000000000089408C00002080B7408256
:102C1000E2C7883F8E0000205C8F023F9DED000AD6
:102C200007F0F9FB21EE800A8DED010A0198FDF70E
:102C30009AFC1FED130B53EC102BCDE902019DED17
:102C4000020B51EC100BFDF7BDFACDE904019DED2F
:102C5000040B51EC100BFDF799FC06909DED060A54
:102C600006F050FF28EE000A8DED070A0798FDF7E1
:102C70007AFC1FED210B53EC102BCDE908019DEDE3
:102C8000080B51EC100BFDF744FB1FED250B53EC2B
:102C9000102BCDE90A019DED0A0B51EC100BFDF74D
:102CA00038FB1FED290B53EC102BCDE90C019DEDEA
:102CB0000C0B51EC100BFDF79EFBCDE90E019DEDC9
:102CC0000E0B51EC100BFDF716FC00B2FD4908800D
:102CD000FD48B0F9000000EE100AB8EEC00A07F097
:102CE0009AFBB0EE408AF94890ED000ADFEDF80A51
:102CF00030EE200A8DED000A9DED000A07F08BFBF7
:102D0000F0EE401AF14890ED000ADFEDF10A30EEE6
:102D1000200A8DED000A9DED000A07F07CFB21EEF4
:102D2000800A8DED010A0198FDF71DFC1FED520B85
:102D300053EC102BCDE902019DED020B51EC100B71
:102D4000FDF740FACDE904019DED040B51EC100BA9
:102D5000FDF71CFC06909DED060A06F0D3FE28EE5A
:102D6000400A8DED070A0798FDF7FDFB1FED600B8C
:102D700053EC102BCDE908019DED080B51EC100B25
:102D8000FDF7C7FA1FED640B53EC102BCDE90A01D8
:102D90009DED0A0B51EC100BFDF7BBFA1FED680B14
:102DA00053EC102BCDE90C019DED0C0B51EC100BED
:102DB000FDF721FBCDE90E019DED0E0B51EC100B43
:102DC000FDF799FB00B2C3490880BF48B0F9000085
:102DD00000EE100AB8EEC00A07F01DFBB0EE408A04
:102DE000BA4890ED000ADFEDBC0A30EE200A8DED06
:102DF000000A9DED000A07F00EFBF0EE401AB34802
:102E000090ED000ADFEDB40A30EE200A8DED000AE5
:102E10009DED000A07F0FFFA21EE800A8DED010A10
:102E20000198FDF7A0FB1FED870B53EC102BCDE9AC
:102E300002019DED020B51EC100BFDF7C3F9CDE93A
:102E400004019DED040B51EC100BFDF79FFB069068
:102E50009DED060A06F056FE28EE400A8DED070AA3
:102E60000798FDF780FB1FED9E0B53EC102BCDE96F
:102E700008019DED080B51EC100BFDF74AFA1FED10
:102E8000A20B53EC102BCDE90A019DED0A0B51EC7E
:102E9000100BFDF73EFA1FEDA60B53EC102BCDE9FE
:102EA0000C019DED0C0B51EC100BFDF7A4FACDE9D4
:102EB0000E019DED0E0B51EC100BFDF71CFB00B24B
:102EC000864908808048B0F9000000EE100AB8EE8C
:102ED000C00A07F0A0FAB0EE408A7C4890ED000AE4
:102EE0005FEDB30A30EE200A8DED000A9DED000A79
:102EF00007F091FAF0EE401A744890ED000A5FED89
:102F0000BA0A30EE200A8DED000A9DED000A07F0A6
:102F100082FA21EE800A8DED010A0198FDF723FB6C
:102F20001FEDCF0B53EC102BCDE902019DED020BF1
:102F300051EC100BFDF746F9CDE904019DED040BB2
:102F400051EC100BFDF722FB06909DED060A06F0F2
:102F5000D9FD28EE400A8DED070A0798FDF703FB1F
:102F60001FEDDD0B53EC102BCDE908019DED080B97
:102F700051EC100BFDF7CDF91FEDE10B53EC102BCD
:102F8000CDE90A019DED0A0B51EC100BFDF7C1F9DB
:102F90001FEDE50B53EC102BCDE90C019DED0C0B57
:102FA00051EC100BFDF727FACDE90E019DED0E0B4C
:102FB00051EC100BFDF79FFA00B2494908804348D5
:102FC00090ED000ADFED440AB4EEE00AF1EE10FAEB
:102FD00076DD90ED000ADFED3E0A30EE600A8DED01
:102FE0000F0ADDED0F0A9FED3F0A06F035FCDFED1D
:102FF0003E0A20EE200ABCEEC00A10EE100A00F5D0
:1030000000603A490880314890ED000ADFED320A4D
:1030100030EE600A8DED0F0ADDED0F0A9FED340AE8
:1030200006F01AFCDFED300A20EE200ABCEEC00AE2
:1030300010EE100A00F500602E490880234890ED3C
:10304000000ADFED2D0A30EE600A8DED0F0ADDED8E
:103050000F0A9FED240A06F0FFFBDFED230A20EEA6
:10306000200ABCEEC00A10EE100AC0F50060234929
:103070000880164890ED000ADFED150A30EE200AB0
:103080008DED0F0ADDED0F0A9FED160A06F0E4FB49
:10309000DFED150A20EE200ABCEEC00A10EE100A81
:1030A00000F5006016490880084890ED000ADFED41
:1030B0000A0A30EE200A8DED0F0ADDED0F0A21E03D
:1030C0004BE000009000002034000020240000208D
:1030D000E17A943E920000203333333F9400002085
:1030E00096000020B81E453F84F922445C00002071
:1030F000AE47E13D5E0000205C8F023F6000002093
:10310000620000201FED060A06F0A6FB5FED0A0A2A
:1031100020EE200ABCEEC00A10EE100A00F5006096
:10312000FE490880FE4890ED000A5FED0D0A30EE82
:10313000200A8DED0F0ADDED0F0A1FED160A06F0CD
:103140008BFB5FED170A20EE200ABCEEC00A10EEE2
:10315000100AC0F50060F3490880F14890ED000ABC
:103160005FED230AB4EEE00AF1EE10FA6DD890EDAF
:10317000000A5FED1F0AB4EEE00AF1EE10FA64DD1A
:1031800090ED000A5FED2E0A30EE600A8DED0F0A19
:10319000DDED0F0A1FED2D0A06F05EFB5FED2E0A36
:1031A00020EE200ABCEEC00A10EE100A00F5006006
:1031B000DD490880DA4890ED000A5FED390A30EE0B
:1031C000C00A8DED0F0ADDED0F0A1FED370A06F07C
:1031D00043FB5FED3B0A20EE200ABCEEC00A10EE76
:1031E000100AC0F58050D1490880CD4890ED000A02
:1031F0005FED3F0A30EE600A8DED0F0ADDED0F0A3C
:103200001FED480A06F028FB5FED490A20EE200A70
:10321000BCEEC00A10EE100AC0F50060C449088078
:10322000BF4890ED000A5FED560A30EE200A8DEDA2
:103230000F0ADDED0F0A1FED550A06F00DFB5FEDDD
:10324000560A20EE200A01E01FE13DE0BCEEC00A74
:1032500010EE100A00F50060B6490880B04890ED05
:10326000000A5FED630A30EE200A8DED0F0ADDEDF6
:103270000F0A1FED610A06F0EFFA5FED650A20EE16
:10328000200ABCEEC00A10EE100A00F50060A34947
:103290000880A34890ED000A5FED690A30EE200A2D
:1032A0008DED0F0ADDED0F0A1FED720A06F0D4FA5C
:1032B0005FED730A20EE200ABCEEC00A10EE100A81
:1032C000C0F5006097490880954890ED000A5FEDD1
:1032D000760AB4EEE00AF1EE10FA7CD890ED000A1E
:1032E0005FED850A30EE600A8DED0F0ADDED0F0A05
:1032F0001FED840A06F0B0FA5FED850A20EE200A81
:10330000BCEEC00A10EE100A00F500608649088085
:10331000834890ED000A5FED900A30EEC00A8DED13
:103320000F0ADDED0F0A1FED8E0A06F095FA5FED2C
:10333000920A20EE200ABCEEC00A10EE100AC0F578
:1033400080507A490880764890ED000A5FED960A31
:1033500030EEC00A8DED0F0ADDED0F0A1FED9F0A5A
:1033600006F07AFA5FEDA00A20EE200ABCEEC00A51
:1033700010EE100A6E490880694890ED000A5FED72
:10338000AC0A30EE200A8DED0F0ADDED0F0A1FEDBD
:10339000AB0A06F061FA5FEDAC0A20EE200ABCEE43
:1033A000C00A10EE100A00F50060624908805C480F
:1033B00090ED000A5FEDB80A30EE200A8DED0F0A9D
:1033C000DDED0F0A1FEDB60A06F046FA5FEDBA0A08
:1033D00020EE200A00E022E0BCEEC00A10EE100A47
:1033E00000F500604D4908804D4890ED000A5FED02
:1033F000BE0A30EE200A8DED0F0ADDED0F0A1FED3B
:10340000C70A06F029FA5FEDC80A20EE200ABCEED2
:10341000C00A10EE100AC0F5006042490880424818
:103420000088B0F5406F03DB4FF440603E490880F0
:103430003E480088B0F5406F03DB4FF440603B49E5
:1034400008803B480088B0F5806F03DC4FF4806053
:103450003749088037480088B0F5406F03DB4FF4E8
:103460004060344908802D480088B0F5406F03DB88
:103470004FF44060294908802A480088B0F5806FE1
:1034800003DC4FF48060274908802B48B0F9000026
:1034900000287DDD2948B0F90000002878DA2648A8
:1034A000B0F9000000EE100AB8EEC00AF1EE400AD2
:1034B0002248B0F9000000EE100AB8EEC00A80EE13
:1034C000801A174880ED001A1C48B0F9000000EE81
:1034D000100AB8EEC00A06F09EFFB0EE408A10480F
:1034E00090ED000ADFED160A30EE200A8DED000A9D
:1034F0009DED000A06F08FFFF0EE401A084890EDAF
:10350000000ADFED0F0A30EE200A8DED000A9DED76
:10351000000A06F080FF21EE800A13E0640000201C
:1035200024000020660000205C0000205E000020D7
:1035300060000020620000203000002034000020E5
:10354000E17A943E8DED010A0198FDF70CF89FEDAC
:10355000FE0B53EC102BCDE902019DED020B51EC5B
:10356000100BFCF72FFECDE904019DED040B51EC8F
:10357000100BFDF70BF806909DED060A06F0C2FA57
:1035800028EE400A8DED070A0798FCF7ECFF00E0F3
:10359000FAE39FEDEF0B53EC102BCDE908019DED05
:1035A000080B51EC100BFCF7B4FE9FEDEB0B53EC4A
:1035B000102BCDE90A019DED0A0B51EC100BFCF725
:1035C000A8FE9FEDE70B53EC102BCDE90C019DED10
:1035D0000C0B51EC100BFCF70EFFCDE90E019DED2D
:1035E0000E0B51EC100BFCF786FF00B2DE49088091
:1035F000DE48B0F9000000EE100AB8EEC00A06F08E
:103600000AFFB0EE408ADA4890ED000ADFEDD90AF1
:1036100030EE200A8DED000A9DED000A06F0FBFE5B
:10362000F0EE401AD24890ED000ADFEDD20A30EEFB
:10363000200A8DED000A9DED000A06F0ECFE21EE59
:10364000800A8DED010A0198FCF78DFF9FEDCA0BF2
:1036500053EC102BCDE902019DED020B51EC100B48
:10366000FCF7B0FDCDE904019DED040B51EC100B0E
:10367000FCF78CFF06909DED060A06F043FA28EE53
:10368000400A8DED070A0798FCF76DFF9FEDB00B20
:1036900053EC102BCDE908019DED080B51EC100BFC
:1036A000FCF737FE9FEDAC0B53EC102BCDE90A0174
:1036B0009DED0A0B51EC100BFCF72BFE9FEDA80BB8
:1036C00053EC102BCDE90C019DED0C0B51EC100BC4
:1036D000FCF791FECDE90E019DED0E0B51EC100BA8
:1036E000FCF709FF00B2A6490880A048B0F9000025
:1036F00000EE100AB8EEC00A06F08DFEB0EE408A69
:103700009B4890ED000ADFED9F0A30EE200A8DED18
:10371000000A9DED000A06F07EFEF0EE401A944885
:1037200090ED000ADFED970A30EE200A8DED000AD9
:103730009DED000A06F06FFE21EE800A8DED010A74
:103740000198FCF710FF9FED800B53EC102BCDE997
:1037500002019DED020B51EC100BFCF733FDCDE99E
:1037600004019DED040B51EC100BFCF70FFF0690CC
:103770009DED060A06F0C6F928EE400A8DED070A0F
:103780000798FCF7F0FE9FED720B53EC102BCDE980
:1037900008019DED080B51EC100BFCF7BAFD9FEDF5
:1037A0006E0B53EC102BCDE90A019DED0A0B51EC89
:1037B000100BFCF7AEFD9FED6A0B53EC102BCDE91F
:1037C0000C019DED0C0B51EC100BFCF714FECDE938
:1037D0000E019DED0E0B51EC100BFCF78CFE00B2B0
:1037E000694908806148B0F9000000EE100AB8EE9F
:1037F000C00A06F010FEB0EE408A5D4890ED000A67
:103800005FEDB10A30EE600A8DED000A9DED000A11
:1038100006F001FEF0EE401A554890ED000A5FED0B
:10382000B80A30EE600A8DED000A9DED000A06F040
:10383000F2FD21EE800A8DED010A0198FCF793FE5E
:103840009FED410B53EC102BCDE902019DED020BD6
:1038500051EC100BFCF7B6FCCDE904019DED040B17
:1038600051EC100BFCF792FE06909DED060A06F057
:1038700049F928EE000A8DED070A0798FCF773FE58
:103880009FED330B53EC102BCDE908019DED080B98
:1038900051EC100BFCF73DFD9FED2F0B53EC102B63
:1038A000CDE90A019DED0A0B51EC100BFCF731FD3F
:1038B0009FED2B0B53EC102BCDE90C019DED0C0B68
:1038C00051EC100BFCF797FDCDE90E019DED0E0BB1
:1038D00051EC100BFCF70FFE00B22C490880234876
:1038E000B0F9000000EE100AB8EEC00A06F093FD31
:1038F000B0EE408A1E4890ED000ADFED1E0A30EE61
:10390000600A8DED000A9DED000A06F084FDF0EEE0
:10391000401A174890ED000ADFED160A30EE600AF3
:103920008DED000A9DED000A06F075FD21EE800A7E
:103930008DED010A0198FCF716FE9FED0F0B53EC7D
:10394000102BCDE9020123E07E8CB96B09F9E23F2F
:103950007715527ED2732D400000000000004E40CB
:1039600000000000000089408C000020340000208E
:10397000240000203333333F80B74082E2C7883FC2
:103980008E0000205C8F023F9000002092000020FB
:103990009DED020B51EC100BFCF714FCCDE904017A
:1039A0009DED040B51EC100BFCF7F0FD06909DED26
:1039B000060A06F0A7F828EE000A8DED070A079818
:1039C000FCF7D1FD1FED1E0B53EC102BCDE90801C8
:1039D0009DED080B51EC100BFCF79BFC1FED220B2F
:1039E00053EC102BCDE90A019DED0A0B51EC100BA5
:1039F000FCF78FFC1FED260B53EC102BCDE90C01CF
:103A00009DED0C0B51EC100BFCF7F5FCCDE90E0114
:103A10009DED0E0B51EC100BFCF76DFD00B2FD4956
:103A20000880FD48B0F9000000EE100AB8EEC00AA8
:103A300006F0F1FCB0EE408AF84890ED000A5FED28
:103A40002F0A30EE600A8DED000A9DED000A06F0A7
:103A5000E2FCF0EE401AF14890ED000A5FED370A03
:103A600030EE600A8DED000A9DED000A06F0D3FCF1
:103A700021EE800A8DED010A0198FCF774FD1FED1F
:103A80004E0B53EC102BCDE902019DED020B51ECD6
:103A9000100BFCF797FBCDE904019DED040B51ECF5
:103AA000100BFCF773FD06909DED060A06F02AF850
:103AB00028EE000A8DED070A0798FCF754FD1FED6C
:103AC0005C0B53EC102BCDE908019DED080B51EC7C
:103AD000100BFCF71EFC1FED600B53EC102BCDE917
:103AE0000A019DED0A0B51EC100BFCF712FC1FEDC7
:103AF000640B53EC102BCDE90C019DED0C0B51EC3C
:103B0000100BFCF778FCCDE90E019DED0E0B51EC8E
:103B1000100BFCF7F0FC00B2C1490880BF4890EDE3
:103B2000000A5FED6C0AB4EEE00AF1EE10FA7CDDFB
:103B300090ED000ADFEDBB0A30EE200A8DED0F0A92
:103B4000DDED0F0A9FEDB80A05F086FEDFEDB70A3E
:103B500020EE200ABCEEC00A10EE100AC0F500608C
:103B6000B3490880AD4890ED000A5FED7E0A30EE63
:103B7000200A8DED0F0ADDED0F0A9FEDAE0A05F06C
:103B80006BFEDFEDAA0A20EE200ABCEEC00A10EEA2
:103B9000100AC0F50060A8490880A04890ED000A0E
:103BA0005FED880A30EE200A8DED0F0ADDED0F0A79
:103BB0009FED9D0A05F050FEDFED9C0A20EE200AE5
:103BC000BCEEC00A10EE100A00F500609B490880A8
:103BD000924890ED000ADFED930A30EE600A8DED19
:103BE0000F0ADDED0F0A9FED900A05F035FEDFEDBF
:103BF0008F0A20EE200ABCEEC00A10EE100AC0F5B3
:103C000000608F490880854890ED000A5FEDA70AA3
:103C100030EE600A8DED0F0ADDED0F0A9FED850A8B
:103C200005F01AFEDFED810A00E024E020EE200A14
:103C3000BCEEC00A10EE100AC0F500608149088091
:103C4000764890ED000A5FEDB10A30EE600A8DED26
:103C50000F0ADDED0F0A9FED740A05F0FDFDDFEDA3
:103C6000730A20EE200ABCEEC00A10EE100A00F51E
:103C7000006075490880694890ED000A5FEDC30A4D
:103C8000B4EEE00AF1EE10FA7DD290ED000A5FED9D
:103C9000C30AB4EEE00AF1EE10FA74DD90ED000A0A
:103CA000DFED600A30EE200A8DED0F0ADDED0F0A20
:103CB0009FED5D0A05F0D0FDDFED5C0A20EE200AE5
:103CC000BCEEC00A10EE100AC0F50060584908802A
:103CD000524890ED000A5FEDD90A30EE200A8DEDD2
:103CE0000F0ADDED0F0A9FED530A05F0B5FDDFED7C
:103CF0004F0A20EE200ABCEEC00A10EE100AC0F5F2
:103D000000604D490880454890ED000A5FEDE30AE8
:103D100030EE200A8DED0F0ADDED0F0A9FED420A0D
:103D200005F09AFDDFED410A20EE200ABCEEC00A44
:103D300010EE100A00F5006040490880374890ED09
:103D4000000ADFED380A30EE600A8DED0F0ADDED76
:103D50000F0A9FED350A05F07FFDDFED340A20EEF6
:103D6000200ABCEEC00A10EE100AC0F5006034490B
:103D700008802A4890ED000ADFED340A30EEC00AD0
:103D80008DED0F0A01E02BE02DE1DDED0F0A9FED37
:103D9000290A05F061FDDFED250A20EE200ABCEEC0
:103DA000C00A10EE100A274908801C4890ED000A4E
:103DB000DFED270A30EE600A8DED0F0ADDED0F0A08
:103DC0009FED190A05F048FDDFED180A20EE200AE4
:103DD000BCEEC00A10EE100A00F500601A49088017
:103DE0000E4890ED000ADFED1A0AB4EEE00AF1EE9B
:103DF00010FA7DD290ED000ADFED0A0A30EE200ABB
:103E00008DED0F0ADDED0F0A9FED070A05F024FD89
:103E100020E0000094000020340000202400002056
:103E200096000020E17A943EB81E453F84F9224472
:103E30005C000020AE47E13D5E00002060000020F5
:103E40006200002064000020660000203333333F0E
:103E50005C8F023F5FED0B0A20EE200ABCEEC00A29
:103E600010EE100AC0F50060FE490880FE4890ED93
:103E7000000A5FED0A0A30EE200A8DED0F0ADDED33
:103E80000F0A1FED140A05F0E7FC5FED180A20EE9B
:103E9000200ABCEEC00A10EE100AC0F50060F3491B
:103EA0000880F14890ED000A5FED170A30EE200A15
:103EB0008DED0F0ADDED0F0A1FED250A05F0CCFC94
:103EC0005FED260A20EE200ABCEEC00A10EE100AB2
:103ED00000F50060E6490880E34890ED000A5FEDD8
:103EE0002F0A30EE600A8DED0F0ADDED0F0A00E0BB
:103EF00043E01FED330A05F0AFFC5FED340A20EE1E
:103F0000200ABCEEC00A10EE100AC0F50060D949C4
:103F10000880D54890ED000A5FED340A30EEC00A03
:103F20008DED0F0ADDED0F0A1FED3E0A05F094FC42
:103F30005FED420A20EE200ABCEEC00A10EE100A25
:103F4000CD490880C84890ED000A5FED3F0A30EE89
:103F5000C00A8DED0F0ADDED0F0A1FED4D0A05F0C9
:103F60007BFC5FED4E0A20EE200ABCEEC00A10EE8C
:103F7000100AC0F58050C1490880BA480088B0F5E1
:103F8000806F03DC4FF48060B6490880B748008832
:103F9000B0F5406F03DB4FF44060B4490880B4488B
:103FA0000088B0F5406F03DB4FF44060B0490880F3
:103FB000B0480088B0F5806F03DC4FF48060AD49F5
:103FC0000880AD480088B0F5806F03DC4FF4806056
:103FD000A9490880A9480088B0F5406F03DB4FF479
:103FE0004060A6490880A648B0F9000000287CDAA5
:103FF000A448B0F900000028F9DAA148B0F900009F
:1040000000EE100AF8EEC00A9E48B0F9000000EE7B
:10401000100AB8EEC00A80EE801A934880ED001AAC
:104020009848B0F9000000EE100AB8EEC00A06F099
:10403000F2F9B0EE408A8C4890ED000A5FED870AF5
:1040400030EE200A8DED000A9DED000A06F0E3F93E
:10405000F0EE401A844890ED000A5FED8E0A30EED3
:10406000200A8DED000A9DED000A06F0D4F921EE3C
:10407000800A8DED010A0198FCF775FA9FED820B1D
:1040800053EC102BCDE902019DED020B51EC100B0E
:10409000FCF798F8CDE904019DED040B51EC100BF1
:1040A000FCF774FA06909DED060A05F02BFD28EE4C
:1040B000000A8DED070A0798FCF755FA9FED740B7F
:1040C00053EC102BCDE908019DED080B51EC100BC2
:1040D000FCF71FF99FED700B53EC102BCDE90A0193
:1040E0009DED0A0B51EC100B00E0FDE3FCF711F91C
:1040F0009FED6B0B53EC102BCDE90C019DED0C0BE0
:1041000051EC100BFCF777F9CDE90E019DED0E0B8C
:1041100051EC100BFCF7EFF900B2634908805948E5
:10412000B0F9000000EE100AB8EEC00A06F073F90C
:10413000B0EE408A4C4890ED000A5FEDBC0A30EECC
:10414000200A8DED000A9DED000A06F064F9F0EEFC
:10415000401A454890ED000A5FEDC40A30EE200A8F
:104160008DED000A9DED000A06F055F921EE800A5A
:104170008DED010A0198FCF7F6F99FED4C0B53EC1D
:10418000102BCDE902019DED020B51EC100BFCF759
:1041900019F8CDE904019DED040B51EC100BFCF76F
:1041A000F5F906909DED060A05F0ACFC28EE000A34
:1041B0008DED070A0798FCF7D6F99FED350B53EC08
:1041C000102BCDE908019DED080B51EC100BFCF70D
:1041D000A0F89FED310B53EC102BCDE90A019DEDBA
:1041E0000A0B51EC100BFCF794F89FED2D0B53ECE0
:1041F000102BCDE90C019DED0C0B51EC100BFCF7D5
:10420000FAF8CDE90E019DED0E0B51EC100BFCF709
:1042100072F900B2274908801A48B0F9000000EE90
:10422000100AB8EEC00A06F0F6F8B0EE408A0E4862
:1042300090ED000A5FEDFA0A30EE200A8DED000ADB
:104240009DED000A06F0E7F8F0EE401A064890ED02
:10425000000ADFED190A30EE200A8DED000A9DED0F
:10426000000A2BE05C000020240000205E000020FB
:104270006000002062000020640000206600002032
:1042800030000020340000207E8CB96B09F9E23F39
:104290007715527ED2732D400000000000004E4082
:1042A00000000000000089408C00002080B74082A0
:1042B000E2C7883F8E0000205C8F023F06F0ABF81B
:1042C00021EE800A8DED010A0198FCF74CF91FEDF3
:1042D000120B53EC102BCDE902019DED020B51ECBA
:1042E000100BFBF76FFFCDE904019DED040B51ECC2
:1042F000100BFCF74BF906909DED060A05F002FC49
:1043000028EE000A8DED070A0798FCF72CF91FED3F
:10431000200B53EC102BCDE908019DED080B51EC5F
:10432000100BFBF7F6FF1FED240B53EC102BCDE920
:104330000A019DED0A0B51EC100BFBF7EAFF1FED94
:10434000280B53EC102BCDE90C019DED0C0B51EC1F
:10435000100BFCF750F8CDE90E019DED0E0B51EC62
:10436000100BFCF7C8F800B2FD490880FD48B0F911
:10437000000000EE100AB8EEC00A06F04CF8B0EEED
:10438000408AF94890ED000ADFEDF80A30EE600A45
:104390008DED000A9DED000A06F03DF8F0EE401AA2
:1043A000F14890ED000ADFEDF10A30EE600A8DED84
:1043B000000A9DED000A06F02EF821EE800A8DED30
:1043C000010A0198FCF7CFF81FED510B53EC102BAD
:1043D000CDE902019DED020B51EC100BFBF7F2FE53
:1043E000CDE904019DED040B51EC100BFCF7CEF868
:1043F00006909DED060A05F085FB28EE400A8DED3E
:10440000070A0798FCF7AFF81FED5F0B53EC102B72
:10441000CDE908019DED080B51EC100BFBF779FF7E
:104420001FED630B53EC102BCDE90A019DED0A0B38
:1044300051EC100BFBF76DFF1FED670B53EC102BCE
:10444000CDE90C019DED0C0B51EC100BFBF7D3FFEC
:10445000CDE90E019DED0E0B51EC100BFCF74BF866
:1044600000B2C3490880BF48B0F9000000EE100A4E
:10447000B8EEC00A05F0CFFFB0EE408ABA4890ED22
:10448000000ADFEDBC0A30EE600A8DED000A9DEDFA
:10449000000A05F0C0FFF0EE401AB34890ED000AA4
:1044A000DFEDB40A30EE600A8DED000A9DED000AE2
:1044B00005F0B1FF21EE800A8DED010A0198FCF7AD
:1044C00052F81FED860B53EC102BCDE902019DED48
:1044D000020B51EC100BFBF775FECDE904019DEDCD
:1044E000040B51EC100BFCF751F806909DED060AF9
:1044F00005F008FB28EE400A8DED070A0798FCF747
:1045000032F81FED9D0B53EC102BCDE908019DED0A
:10451000080B51EC100BFBF7FCFE1FEDA10B53EC4D
:10452000102BCDE90A019DED0A0B51EC100BFBF7A6
:10453000F0FE1FEDA50B53EC102BCDE90C019DED0A
:104540000C0B51EC100BFBF756FFCDE90E019DED66
:104550000E0B51EC100BFBF7CEFF00B28649088022
:104560008048B0F9000000EE100AB8EEC00A05F06D
:1045700052FFB0EE408A7C4890ED000A5FEDB20A2F
:1045800030EE600A8DED000A9DED000A05F043FF54
:10459000F0EE401A744890ED000A5FEDB90A30EE73
:1045A000600A8DED000A9DED000A05F034FF21EE52
:1045B000800A8DED010A0198FBF7D5FF1FEDCE0BA8
:1045C00053EC102BCDE902019DED020B51EC100BC9
:1045D000FBF7F8FDCDE904019DED040B51EC100B48
:1045E000FBF7D4FF06909DED060A05F08BFA28EE46
:1045F000400A8DED070A0798FBF7B5FF1FEDDC0BAE
:1046000053EC102BCDE908019DED080B51EC100B7C
:10461000FBF77FFE1FEDE00B53EC102BCDE90A01F9
:104620009DED0A0B51EC100BFBF773FE1FEDE40B35
:1046300053EC102BCDE90C019DED0C0B51EC100B44
:10464000FBF7D9FECDE90E019DED0E0B51EC100BE1
:10465000FBF751FF00B249490880434890ED000A3A
:10466000DFED440AB4EEE00AF1EE10FA76DD90EDEB
:10467000000ADFED3E0A30EE200A8DED0F0ADDED77
:104680000F0A9FED3F0A05F0E7F8DFED3E0A20EE46
:10469000200ABCEEC00A10EE100AC0F500603A49CC
:1046A0000880314890ED000ADFED320A30EE200A32
:1046B0008DED0F0ADDED0F0A9FED340A05F0CCF801
:1046C000DFED300A20EE200ABCEEC00A10EE100A20
:1046D000C0F500602E490880234890ED000ADFED08
:1046E0002D0A30EE200A8DED0F0ADDED0F0A9FED49
:1046F000240A05F0B1F8DFED230A20EE200ABCEE13
:10470000C00A10EE100A00F5006023490880164820
:1047100090ED000ADFED150A30EE600A8DED0F0A0C
:10472000DDED0F0A9FED160A05F096F8DFED150A8C
:1047300020EE200ABCEEC00A10EE100AC0F50060A0
:1047400016490880084890ED000ADFED0A0A30EEAD
:10475000600A8DED0F0ADDED0F0A21E04BE000004D
:10476000900000203400002024000020E17A943ED4
:10477000920000203333333F940000209600002045
:10478000B81E453F84F922445C000020AE47E13D5D
:104790005E0000205C8F023F60000020620000206D
:1047A0001FED060A05F058F85FED0A0A20EE200A10
:1047B000BCEEC00A10EE100AC0F50060FC4908808B
:1047C000FC4890ED000A5FED0D0A30EE600A8DEDB9
:1047D0000F0ADDED0F0A1FED160A05F03DF85FED3B
:1047E000170A20EE200ABCEEC00A10EE100A00F5EF
:1047F0000060F1490880EF4890ED000A5FED230A60
:10480000B4EEE00AF1EE10FA6FD290ED000A5FED1F
:104810001F0AB4EEE00AF1EE10FA66DD90ED000A30
:104820005FED2E0A30EE200A8DED0F0ADDED0F0A46
:104830001FED2D0A05F010F85FED2E0A20EE200A7C
:10484000BCEEC00A10EE100AC0F50060DB4908801B
:10485000D84890ED000A5FED390A30EE200A8DED60
:104860000F0ADDED0F0A1FED370A04F0F5FF5FEDCB
:104870003B0A20EE200ABCEEC00A10EE100AC0F57A
:104880000060CF490880CB4890ED000A5FED3F0AF9
:1048900030EE200A8DED0F0ADDED0F0A1FED480AFC
:1048A00004F0DAFF5FED490A20EE200ABCEEC00AF0
:1048B00010EE100A00F50060C2490880BD4890ED76
:1048C000000A5FED560A30EE600A8DED0F0ADDED4D
:1048D0000F0A1FED550A04F0BFFF5FED560A20EEE8
:1048E000200ABCEEC00A01E01BE139E010EE100A1C
:1048F000C0F50060B4490880AE4890ED000A5FED55
:10490000630A30EEC00A8DED0F0ADDED0F0A1FEDD0
:10491000610A04F0A1FF5FED650A20EE200ABCEEFB
:10492000C00A10EE100AA2490880A24890ED000AC1
:104930005FED680A30EE600A8DED0F0ADDED0F0ABB
:104940001FED710A04F088FF5FED720A20EE200A65
:10495000BCEEC00A10EE100A00F50060964908800F
:10496000944890ED000A5FED750AB4EEE00AF1EEAE
:1049700010FA7AD290ED000A5FED840A30EE200A38
:104980008DED0F0ADDED0F0A1FED830A04F064FFC1
:104990005FED840A20EE200ABCEEC00A10EE100A79
:1049A000C0F5006085490880824890ED000A5FEDFF
:1049B0008F0A30EE200A8DED0F0ADDED0F0A1FED94
:1049C0008D0A04F049FF5FED910A20EE200ABCEE4B
:1049D000C00A10EE100AC0F50060794908807548D9
:1049E00090ED000A5FED950A30EE200A8DED0F0A7A
:1049F000DDED0F0A1FED9E0A04F02EFF5FED9F0A0A
:104A000020EE200ABCEEC00A10EE100A00F500608D
:104A10006C490880674890ED000A5FEDAC0A30EE03
:104A2000600A8DED0F0ADDED0F0A1FEDAB0A04F0F1
:104A300013FF5FEDAC0A20EE200ABCEEC00A10EEB8
:104A4000100AC0F50060604908805A4890ED000ADD
:104A50005FEDB80A30EEC00A8DED0F0ADDED0F0AEA
:104A60001FEDB60A04F0F8FE00E024E05FEDBB0A9B
:104A700020EE200ABCEEC00A10EE100A4C49088055
:104A80004C4890ED000A5FEDBD0A30EEC00A8DED96
:104A90000F0ADDED0F0A1FEDC60A04F0DDFE5FED23
:104AA000C70A20EE200ABCEEC00A10EE100AC0F5BC
:104AB00080504149088041480088B0F5806F03DC90
:104AC0004FF480603D4908803D480088B0F5406F54
:104AD00003DB4FF440603A4908803A480088B0F55B
:104AE000406F03DB4FF44060364908803648008849
:104AF000B0F5806F03DC4FF48060334908802C48A8
:104B00000088B0F5806F03DC4FF48060284908808E
:104B100029480088B0F5406F75DB4FF440602649A6
:104B2000088070E029480088A0F57A7000EE100A2D
:104B3000B8EEC00A8DED0F0A9DED0F0A05F06BFC73
:104B4000F3EE040AB4EEE00AF1EE10FA4ED8204873
:104B50000088A0F57A7000EE100AB8EEC00A8DED5C
:104B60000F0A9DED0F0A05F056FCF3EE040AB4EEB1
:104B7000E00AF1EE10FA39D80020164908801649EB
:104B80000880164908801649088016490880164989
:104B900008804FF4006009490880094908800949E4
:104BA00008800949088002490880034908802AE0F2
:104BB0006400002024000020660000205C0000202B
:104BC0005E0000206000002062000020F80000204D
:104BD000FC0000208C0000208E00002090000020AF
:104BE0009200002094000020960000200020084938
:104BF0000880084908800849088008490880084951
:104C000008800849088011B0BDEC028B00BD00008F
:104C10008C0000208E0000209000002092000020D8
:104C2000940000209600002000BFFEE770470000BF
:104C300070B5002100230F22C4781CB3174C2468E0
:104C400004F4E064C4F5E064C4F30721C1F1040492
:104C5000E3B20A4144789C40E1B284781440214395
:104C60000C07210E0E4C05786155047804F01F05E1
:104C70000124AC4005786D11AD0005F1E025C5F8C3
:104C8000004109E0047804F01F050124AC40054D03
:104C90000678761145F8264070BD00000CED00E066
:104CA00000E400E080E100E002490143024A1160B3
:104CB000704700000000FA050CED00E000B52DED96
:104CC000028B87B0FD4890ED000AB5EEC00AF1EE08
:104CD00010FA2CD1FA4890ED000AB5EEC00AF1EEB8
:104CE00010FA24D1F74890ED000AB5EEC00AF1EEB3
:104CF00010FA1CD10020F4490880F4490880F449D6
:104D00000880F4490880F4490880F44908804FF489
:104D10000060F3490880F3490880F3490880F349AB
:104D20000880F3490880F349088002F0D7BCE348C3
:104D300090ED000AB5EEC00AF1EE10FA79D0E04825
:104D400090ED000AB5EEC00AF1EE10FA71D1DD481F
:104D500090ED000AB5EEC00AF1EE10FA69D1D7481D
:104D600090ED000AB1EE400ADFEDE30A20EE200AE2
:104D7000BDEEC00A10EE100A00B2D3490880CF4839
:104D800090ED000AB1EE400ADFEDDB0A20EE200ACA
:104D9000BDEEC00A10EE100A00B2CC490880C74828
:104DA00090ED000AB1EE400ADFEDD30A20EE200AB2
:104DB000BDEEC00A10EE100A00B2C5490880BF4817
:104DC00090ED000ADFEDCC0A20EE200ABDEEC00A0D
:104DD00010EE100A00B2BF490880B84890ED000AF2
:104DE000DFEDC50A20EE200ABDEEC00A10EE100A63
:104DF00000B2B9490880B14890ED000ADFEDBE0A63
:104E000020EE200ABDEEC00A10EE100A00B2B3492F
:104E100008804FF40060B2490880B2490880B24966
:104E20000880B2490880B2490880B24908807CE70E
:104E3000FFE7A24890ED000AB5EEC00AF1EE10FAC5
:104E40007ED19F4890ED000AB5EEC00AF1EE10FA4F
:104E5000F6D19C4890ED000AB5EEC00AF1EE10FACA
:104E60006ED09FEDA60A04F04DFEB0EE408A9FED95
:104E7000A40A04F047FEC8EE000A924890ED000A2A
:104E800020EE800ADFED9C0A20EE200ABDEEC00A6B
:104E900010EE100A00B28C4908808A4890ED000A92
:104EA000DFED950A20EE200ABDEEC00A10EE100AD2
:104EB00000B2864908809FED930A04F023FEB0EE0D
:104EC000408A9FED8F0A04F01DFEC8EE000A7D485F
:104ED00090ED000A20EE800ADFED870A20EE200A1E
:104EE000BDEEC00A10EE100A00B2794908809FEDAD
:104EF000850A04F007FEB0EE408A9FED810A04F0B7
:104F000001FEC8EE000A6F4890ED000A20EE800A0C
:104F1000DFED790A20EE200ABDEEC00A10EE100A7D
:104F200000B26C490880674890ED000ADFED720A14
:104F300020EE200ABDEEC00A10EE100A00B200E01A
:104F400011E1654908809FED6F0A04F0DBFDB0EECA
:104F5000408A9FED6B0A04F0D5FDC8EE000A59485F
:104F600090ED000A20EE800ADFED630A20EE200AB1
:104F7000BDEEC00A10EE100A00B2584908809FED3D
:104F8000621B9FED630B04F067FB8DED020B9FED41
:104F9000620B53EC102B9DED020B51EC100BFBF749
:104FA000B8F9CDE904019DED040B51EC100BFBF7B2
:104FB000C1FA00F580604A4908809FED591B9FEDBA
:104FC0005A0B04F049FB8DED020B9FED530B53EC94
:104FD000102B9DED020B51EC100BFBF79AF9CDE96C
:104FE00004019DED040B51EC100BFBF7A3FA00F547
:104FF00080603C4908809FED441B9FED4D0B04F001
:105000002BFB8DED020B9FED440B53EC102B9DED14
:10501000020B51EC100BFBF77CF9CDE904019DED7F
:10502000040B51EC100BFBF785FAC0F540602E49DC
:1050300008809FED351B9FED360B04F00DFB8DEDC9
:10504000020B9FED350B53EC102B9DED020B51EC39
:10505000100BFBF75EF9CDE904019DED040B51EC5B
:10506000100BFBF767FAC0F54060204908809FED00
:105070002C1B9FED2D0B04F0EFFA8DED020B9FED35
:10508000260B53EC102B9DED020B51EC100BFBF794
:1050900040F9CDE904019DED040B51EC100BFBF739
:1050A00049FAC0F54060124908809FED171B9FED3B
:1050B000200B04F0D1FA8DED020B3DE050000020F2
:1050C00054000020580000208C0000208E0000209A
:1050D0009000002092000020940000209600002004
:1050E0005C0000205E0000206000002062000020C4
:1050F000640000206600002000009643DF4F2D3F33
:10510000A089003F355E5A3FA4703D0AD7A3E83F0F
:105110008FC2F5285C8FD23FC971A774305F84407D
:10512000295C8FC2F528BC3F666666666666E63F08
:1051300052B81E85EB51E03F1FED090B53EC102BCD
:105140009DED020B51EC100BFBF7E3F8CDE90401E8
:105150009DED040B51EC100BFBF7ECF900F58060B2
:10516000FE490880E1E5FE4890ED000AB5EEC00A70
:10517000F1EE10FA02F03682FA4890ED000AB5EE30
:10518000C00AF1EE10FA42F02D82F74890ED000AC5
:10519000B5EEC00AF1EE10FAECD0F14890ED000A3D
:1051A000B5EEC00AF1EE10FA7CDDEF4890ED000A92
:1051B000B5EEC00AF1EE10FAF6DDE94890ED000A0E
:1051C000E948D0ED000A80EE201AE84880ED001A88
:1051D000E54890ED000A05F01EF9B0EE408AE3487C
:1051E00090ED000ADFEDE20A30EE600A8DED000A74
:1051F0009DED000A05F00FF9F0EE401ADB4890ED46
:10520000000ADFEDDB0A30EE600A8DED000A9DED4D
:10521000000A05F000F921EE800A8DED010A0198DF
:10522000FBF7A1F99FEDD30B53EC102BCDE9020155
:105230009DED020B51EC100BFAF7C4FFCDE9040110
:105240009DED040B51EC100BFBF7A0F906909DEDC2
:10525000060A04F057FC28EE400A5FED590A20EEDA
:10526000200ABDEEC00A10EE100A00B2C349088041
:10527000BD4890ED000A05F0CEF8B0EE408ABB487C
:1052800090ED000ADFEDBE0A30EE600A8DED000AF7
:105290009DED000A05F0BFF8F0EE401AB34890ED1E
:1052A000000A00E0F9E3DFEDB60A30EE600A8DEDAA
:1052B000000A9DED000A05F0AEF821EE800A8DEDA2
:1052C000010A0198FBF74FF99FEDAE0B53EC102B41
:1052D000CDE902019DED020B51EC100BFAF772FFC4
:1052E000CDE904019DED040B51EC100BFBF74EF9D9
:1052F00006909DED060A04F005FC28EE400A5FEDDD
:10530000820A20EE200ABDEEC00A10EE100A00B29A
:105310009E490880944890ED000A05F07CF8B0EEB4
:10532000408A924890ED000ADFED990A30EE600A5B
:105330008DED000A9DED000A05F06DF8F0EE401AC3
:105340008A4890ED000ADFED920A30EE600A8DED9A
:10535000000A9DED000A05F05EF821EE800A8DED51
:10536000010A0198FBF7FFF89FED820B53EC102B1D
:10537000CDE902019DED020B51EC100BFAF722FF73
:10538000CDE904019DED040B51EC100BFBF7FEF889
:1053900006909DED060A04F0B5FB28EE400A5FED8D
:1053A000AA0A20EE200ABDEEC00A10EE100A00B2D2
:1053B000784908806C4890ED000A05F02CF8B0EEB2
:1053C000408A6A4890ED000ADFED690A30EE200A53
:1053D0008DED000A9DED000A05F01DF8F0EE401A73
:1053E000624890ED000ADFED620A30EE200A8DED92
:1053F000000A9DED000A05F00EF821EE800A8DED01
:10540000010A0198FBF7AFF89FED5A0B53EC102BF4
:10541000CDE902019DED020B51EC100BFAF7D2FE23
:10542000CDE904019DED040B51EC100BFBF7AEF838
:1054300006909DED060A04F065FB28EE000A5FED7C
:10544000D20A20EE200ABDEEC00A10EE100A00B209
:1054500051490880444890ED000A04F0DCFFB0EEAA
:10546000408A424890ED000ADFED450A30EE200AFE
:105470008DED000A9DED000A04F0CDFFF0EE401A1C
:105480003A4890ED000ADFED3E0A30EE200A8DED3D
:10549000000A9DED000A04F0BEFF21EE800A8DEDAA
:1054A000010A0198FBF75FF89FED360B53EC102BC8
:1054B000CDE902019DED020B51EC100BFAF782FED3
:1054C000CDE904019DED040B51EC100BFBF75EF8E8
:1054D00006909DED060A04F015FB28EE000A5FED2C
:1054E000FA0A20EE200ABDEEC00A10EE100A00B241
:1054F0002A4908801C4890ED000A04F08CFFB0EEA9
:10550000408A1A4890ED000ADFED210A30EE200AA9
:105510008DED000A9DED000A04F07DFFF0EE401ACB
:10552000124890ED000ADFED1A0A30EE200A8DEDE8
:10553000000A9DED000A04F06EFF21EE800A8DED59
:10554000010A0198FBF70FF89FED0A0B53EC102BA3
:10555000CDE902019DED020B22E000006600002073
:10556000500000205400002058000020240000209B
:10557000E17A943E7E8CB96B09F9E23F8C00002001
:105580003333333F80B74082E2C7883F8E0000202C
:105590005C8F023F900000209200002094000020C9
:1055A00051EC100BFAF70EFECDE904019DED040B52
:1055B00051EC100BFAF7EAFF06909DED060A04F095
:1055C000A1FA28EE000ADFEDFC0A20EE200ABDEE6B
:1055D000C00A10EE100A00B2F8490880F84890EDB1
:1055E000000A5FED190AB4EEE00AF1EE10FA7CDD74
:1055F00090ED000A5FED220A30EE600A8DED060A9A
:10560000DDED060A9FEDEF0A04F026F9DFEDEE0A64
:1056100020EE200ABCEEC00A10EE100A00F5006071
:10562000EA490880E64890ED000A5FED2B0A30EE6B
:10563000600A8DED060ADDED060A9FEDE50A04F02D
:105640000BF9DFEDE10A20EE200ABCEEC00A10EEF5
:10565000100A00F50060DF490880D94890ED000A83
:105660005FED350A30EE600A8DED060ADDED060AC3
:105670009FEDD40A04F0F0F8DFEDD30A20EE200A03
:10568000BCEEC00A10EE100AC0F50060D2490880D6
:10569000CB4890ED000A5FED4A0A30EE200A8DED0E
:1056A000060ADDED060A9FEDC70A04F0D5F8DFED26
:1056B000C60A20EE200ABCEEC00A10EE100A00F561
:1056C0000060C6490880BE4890ED000A5FED540AAC
:1056D00030EE200A8DED060ADDED060A9FEDBC0ACC
:1056E00004F0BAF8DFEDB80A00E024E020EE200A6A
:1056F000BCEEC00A10EE100A00F50060B849088040
:10570000AF4890ED000A5FED5E0A30EE200A8DEDA5
:10571000060ADDED060A9FEDAB0A04F09DF8DFED09
:10572000AA0A20EE200ABCEEC00A10EE100AC0F54C
:105730000060AC490880A24890ED000A5FED700A55
:10574000B4EEE00AF1EE10FA7DD890ED000A5FEDBC
:10575000700AB4EEE00AF1EE10FA74DD90ED000A82
:105760005FED7D0A30EE600A8DED060ADDED060A7A
:105770009FED940A04F070F8DFED930A20EE200A02
:10578000BCEEC00A10EE100A00F500608F490880D8
:105790008B4890ED000A5FED860A30EEC00A8DED71
:1057A000060ADDED060A9FED8A0A04F055F8DFEDE2
:1057B000860A20EE200ABCEEC00A10EE100AC0F5E0
:1057C0008050844908807E4890ED000A5FED900A81
:1057D00030EE600A8DED060ADDED060A9FED790ACE
:1057E00004F03AF8DFED780A20EE200ABCEEC00A99
:1057F00010EE100AC0F5006077490880704890EDFF
:10580000000A5FEDA50A30EE200A8DED060ADDEDF7
:10581000060A9FED6C0A04F01FF8DFED6B0A20EE1C
:10582000200ABCEEC00A10EE100A00F500606B49B9
:105830000880634890ED000A5FEDAF0A30EE200A61
:105840008DED060A00E02CE0DDED060A9FED600A12
:1058500004F002F8DFED5C0A20EE200ABCEEC00A7C
:1058600010EE100A00F500605D490880544890ED84
:10587000000A5FEDB90A30EE200A8DED060ADDED73
:10588000060A9FED500A03F0E7FFDFED4F0A20EE16
:10589000200ABCEEC00A10EE100AC0F500605149A3
:1058A0000880474890ED000A5FEDC70AB4EEE00AB1
:1058B000F1EE10FA7ED890ED000A5FEDD30A30EEDB
:1058C000600A8DED060ADDED060A9FED3E0A03F043
:1058D000C3FFDFED3D0A20EE200ABCEEC00A10EE49
:1058E000100A00F5006039490880354890ED000A3B
:1058F0005FEDDD0A30EEC00A8DED060ADDED060A29
:105900009FED330A03F0A8FFDFED2F0A20EE200AF7
:10591000BCEEC00A10EE100AC0F580502D49088078
:10592000274890ED000A5FEDE60A30EEC00A8DEDE3
:10593000060ADDED060A9FED230A03F08DFFDFED79
:10594000220A20EE200ABCEEC00A10EE100A2249FC
:1059500008801B4890ED000A5FEDFB0A30EE200A3C
:105960008DED060ADDED060A9FED160A03F074FFC1
:10597000DFED150A20EE200ABCEEC00A10EE100A78
:1059800000F50060154908800D4890ED000ADFED34
:10599000160A30EE200A8DED060ADDED060A9FEDAF
:1059A0000C0A03F059FFDFED080A20EE200ABCEED6
:1059B000C00A1BE03BE00000000096439600002078
:1059C00024000020B81E453F84F922445C000020DA
:1059D000AE47E13D5E000020600000206200002034
:1059E00064000020660000203333333F10EE100ABD
:1059F00000F50060FE490880FE4890ED000ADFEDEA
:105A0000FE0A30EE200A8DED060ADDED060A1FEDD6
:105A1000130A03F021FF5FED140A20EE200ABCEE0A
:105A2000C00A10EE100AC0F50060F4490880F4487E
:105A30000088B0F5406F03DB4FF44060F049088008
:105A4000F0480088B0F5406F03DB4FF44060ED494B
:105A50000880ED480088B0F5806F03DC4FF480606B
:105A6000E9490880E9480088B0F5406F03DB4FF44E
:105A70004060E6490880DE480088B0F5406F03DBEF
:105A80004FF44060DA490880DC480088B0F5806F48
:105A900003DC4FF48060D9490880DD4890ED000AAE
:105AA000B5EEC00AF1EE10FA7ED2DA4890ED000AA7
:105AB000B5EEC00AF1EE10FA76DDD54890ED000A99
:105AC000B1EE400AD348D0ED000A80EE201AC94852
:105AD00080ED001ACF4890ED000A04F09CFCB0EE77
