:020000040800F2
:10000000800800209D010008A94C0008B9100008D4
:10001000A54C0008E9090008CF9200080000000084
:10002000000000000000000000000000D17C00087B
:10003000ED09000800000000A977000845840008C9
:10004000B7010008B7010008B7010008B7010008B0
:10005000B7010008B7010008B7010008B7010008A0
:10006000B7010008B7010008B7010008B701000890
:10007000B7010008B7010008B7010008B701000880
:10008000B7010008B7010008B7010008B701000870
:10009000B7010008B7010008B7010008B701000860
:1000A000B7010008B7010008B7010008B701000850
:1000B000B7010008B701000845860008B70100082D
:1000C000B7010008B7010008B7010008B701000830
:1000D000B7010008BD8A0008158C0008498D00088A
:1000E000B7010008B7010008B7010008B701000810
:1000F000B7010008B7010008B7010008B701000800
:10010000B7010008B7010008B7010008B7010008EF
:10011000D587000851890008B7010008B701000819
:10012000B7010008B7010008B7010008B7010008CF
:10013000B7010008B7010008B7010008B7010008BF
:10014000B7010008B7010008B7010008B7010008AF
:10015000B7010008B7010008B7010008C58E000804
:10016000B7010008B7010008B7010008B70100088F
:10017000B7010008B7010008B7010008B70100087F
:10018000B7010008B7010008DFF80CD000F00EFB43
:100190000048004741A20008800800200648804728
:1001A00006480047FEE7FEE7FEE7FEE7FEE7FEE75C
:1001B000FEE7FEE7FEE7FEE7DD85000889010008AF
:1001C0002DE9FE4F804681EA0300C00F0C460090E7
:1001D00021F0004123F00045B8EB0200A94105D20F
:1001E0004046214690461C460B46024623F00040FE
:1001F000104347D0270DC7F30A00C3F30A510290FA
:10020000401A019040286BDAC3F3130040F4801BBE
:100210000098924620B10023D2EB030A63EB0B0B4C
:1002200001985946C0F14002504600F0FAF90646DE
:100230000D4650465946019A00F012FA10EB08009C
:100240006141002487EA115284EAE7731A4340D0DF
:10025000009A62B3019A012A4FEA075215DC001B8B
:1002600061EB02014FF0004202EA0752CDE9004281
:10027000001C41F5801132462B4600F049FA03B0CC
:10028000BDE8F08F40462146F9E7001B61EB020113
:10029000001C41F5801300185B412018A2F50017DF
:1002A00047EB030140EAD570B6196D4111E06D08C6
:1002B0004FEA360645EAC0754FEA0752001B61EB6C
:1002C0000201001C41F5801149084FEA3000001975
:1002D000514132462B4603B0BDE8F04F00F009BA59
:1002E0000098012240000023D0EB020263EBE07390
:1002F000009821464FEAE074B8EB000061EB04017E
:10030000E9E783F000435BE781F0004158E72DE91E
:10031000FE4F81EA030404F0004421F00041009400
:100320004FF0000B23F0004350EA01045ED052EA84
:1003300003045BD0C3F30A54C1F30A552C44A4F25E
:10034000F3340194A0FB0254C1F3130141F4801172
:10035000C3F3130343F4801301FB024400FB034E79
:10036000840A970A44EA815447EA8357A4FB076842
:1003700002958D0A05FB07854FEA932C04FB0C546C
:100380002705029D4FEA065847EA1637B5EB0805E0
:100390006EEB070C870E920E47EA811742EA831232
:1003A000A7FB0201B6EB0B0164EB00042B0D43EA43
:1003B0000C335E1844EB1C50DA465146E7FB020151
:1003C000C5F313044FEA0B3343EA14534FEA0432E4
:1003D000019C43EA0603A4F10C040294009CCDE9BD
:1003E00000B400F095F903B0BDE8F08F002001469D
:1003F000F9E72DE9F04D81EA030404F0004B21F008
:10040000004514464FF0000A23F0004150EA05026F
:1004100020D054EA01021DD0C5F30A570246C5F3A5
:100420001303C1F31300C1F30A5640F4801543F4DB
:100430008013A7EB0608101BD64608F2FD3873EBB5
:10044000050002D308F1010801E092185B41B8F100
:10045000000F03DA00200146BDE8F08D00204FF4C4
:100460008011064684460EE0171B73EB050705D383
:10047000121B63EB050306434CEA010C49084FEAE3
:10048000300092185B4150EA0107EDD152EA0300B7
:1004900012D082EA040083EA0501084305D0101B4C
:1004A000AB4106D20122002306E000224FF00043B8
:1004B00002E06FF0010253101AEB06004CEB0851FA
:1004C00010EB0A0041EB0B01BDE8F04D00F011B953
:1004D0000EB5C10F80EAE0700844CA07002140F25F
:1004E00033438DE80E000A460B4600F011F903B0C5
:1004F00000BD70B5C1F30A5201F000450024C1F3FC
:10050000130140F2FF3341F480119A4201DA0020D6
:1005100070BD40F233439A42A2F2334203DC5242AE
:1005200000F08EF800E090402C43F1D0404270BDC6
:10053000C1F30A5210B5C1F3130140F2FF3341F485
:1005400080119A4201DA002010BD40F233439A42F2
:10055000A2F2334203DC524200F072F810BD904028
:1005600010BD00F0004230F000400AD0C10D01F58E
:100570006071C0F3160042EA0151C20840071143FE
:10058000704700200146704701F0004330B421F06D
:10059000004150EA010206D00A0DA2F56072C1F3D3
:1005A0001301002A02DC30BC00207047440F44EAEB
:1005B000C104C100E01830BC00EBC25000F062B8CA
:1005C0002DE9F05F0546002092469B468846064688
:1005D000814640241BE0284641464746224600F01B
:1005E0002FF853465A46C01A914110D31146184667
:1005F000224600F016F82D1A67EB01084F462246F6
:100600000120002100F00DF817EB00094E41201EDB
:10061000A4F10104DFDC484631462A464346BDE8E2
:10062000F09F202A04DB203A00FA02F100207047F4
:100630009140C2F1200320FA03F319439040704720
:10064000202A04DB203A21FA02F00021704721FA27
:1006500002F3D040C2F1200291400843194670478E
:10066000202A06DBCB17203A41FA02F043EAE07376
:1006700006E041FA02F3D040C2F120029140084363
:10068000194670470029A8BF7047401C490008BFA1
:1006900020F00100704710B4B0FA80FC00FA0CF0B2
:1006A00050EA010404BF10BC704749B1CCF12004EA
:1006B00021FA04F411FA0CF118BF01212143084377
:1006C000A3EB0C01CB1D4FEA00614FEA102042BFA3
:1006D000002010BC704700EBC35010440029A4BF99
:1006E00010BC7047401C490008BF20F0010010BC3E
:1006F000704710B5141E73F1000408DA401C41F174
:10070000000192185B411A4301D120F0010010BD95
:100710002DE9F04D92469B4611B1B1FA81F202E00B
:10072000B0FA80F220329046FFF77BFF04460F4676
:1007300040EA0A0041EA0B0153465A46084313D0E7
:10074000114653EA010019D0C8F140025046FFF7A4
:1007500077FF05460E46504659464246FFF761FF71
:10076000084305D0012004E020463946BDE8F08D5D
:100770000020054346EAE0762C4337430A98630598
:10078000E40AA0EB08000022FD0A44EA47540A30BC
:1007900002D500200146E9E7010510196941DDE9AC
:1007A000084500196941BDE8F04DA2E7064C074D28
:1007B00006E0E06840F0010394E807009847103431
:1007C000AC42F6D3FFF7E4FC0CB800082CB80008E4
:1007D00070B58C1810F8015B15F0070301D110F803
:1007E000013B2A1106D110F8012B03E010F8016B30
:1007F00001F8016B5B1EF9D12B0705D40023521EB3
:100800000DD401F8013BFAE710F8013BCB1A921C1A
:1008100003E013F8015B01F8015B521EF9D5A14218
:10082000D8D3002070BD000010B53D48007810B14D
:10083000102857D111E09FED3B0A3B4880ED000A9C
:100840009FED380A394880ED000A9FED360A384896
:1008500080ED000A00F0ACFC60E04FF47A7035499E
:10086000088035490880354908803548C0883549B1
:1008700008803348408934490880314880893349A9
:1008800008803348007801280CD132480078401C99
:100890003049087000F096FA04F04EFA00202C4916
:1008A00008701EE02C48007801281AD100202B493E
:1008B00008802B4908802B4908802B4908802B4948
:1008C00008802B4908804FF400602A4908802A4993
:1008D00008802A4908802A4908802A4908802A492C
:1008E00008801BE000201D4908801D4908801D4923
:1008F00008801D4908801D4908801D4908804FF463
:1009000000601C4908801C4908801C4908801C495B
:1009100008801C4908801C49088000BF00BF10BD2A
:10092000140100200000000060000020640000208E
:1009300068000020080100200A0100200C010020AE
:10094000360400200E0100201001002012010020BA
:100950005F000020340000200E0000209C000020DA
:100960009E000020A0000020A2000020A400002083
:10097000A60000206C0000206E0000207000002007
:100980007200002074000020760000201CB50121B8
:10099000102006F00BFF012000908DF804000020CD
:1009A0008DF8060003208DF8050002208DF8070061
:1009B0006946024800F040F81CBD000000100240EB
:1009C00010B500240121074800F0A3F800BF00E0A3
:1009D000641C4EF660208442FAD30121014800F0E5
:1009E00096F810BD0010024000BFFEE770470000FF
:1009F0001CB50121022006F0D9FE4FF47E70009054
:100A000001208DF8040000208DF8060003208DF8E9
:100A1000050001208DF807006946064800F00CF833
:100A20003821044800F075F84FF47071014800F067
:100A30006EF81CBD00040240F0B50A4600210023F8
:100A4000002400BF3DE0012505FA01F3156805EA21
:100A500003049C4234D105684F000326BE40B543D1
:100A6000056015794E00B540066835430560157977
:100A7000012D02D01579022D16D185684F0003266D
:100A8000BE40B543856055794E00B5408668354314
:100A90008560456801268E40B54345604568967976
:100AA0008E40B6B235434560C5684F000326BE4050
:100AB000B543C560D5794E00B540C6683543C560BD
:100AC000491C1029BFD3F0BDF0B5002300244D0709
:100AD000ED0E02FA05F3CE1000F1200555F8265070
:100AE0004E07F70E0F26BE40B543CF1000F120068B
:100AF00046F82750CE1000F1200555F8265045EA5B
:100B00000304CE1000F1200545F82640F0BD4183D6
:100B100070470183704700001E480078012837D1D4
:100B20001D480078DD2833D11B48807880BB1A48E7
:100B300090F8210077282BD1174800791749487081
:100B400015484079087008460178407801EB00208C
:100B50001349088010488079124948700E48C079BE
:100B6000087008460178407801EB00200E490880A3
:100B70000948C07D0D4908700748007D0C49487040
:100B80000548407D0870002003490870014908703D
:100B900070470000190100205804002021010020A6
:100BA0002401002026010020280100202A01002025
:100BB0002B0100202748007801284AD126480078D8
:100BC0005A2846D1244840780E2842D12248407BFA
:100BD00069283ED12048C079072835D2DFE800F0E7
:100BE00034040C141C242C001B48C178807801EBC1
:100BF00000201A49088028E01748C178807801EB66
:100C000000201749088020E01348C178807801EB64
:100C100000201449088018E00F48C178807801EB63
:100C200000201149088010E00B48C178807801EB62
:100C300000200E49088008E00748C178807801EB61
:100C400000200B49088000E000BF00BF00200149E0
:100C500008707047E70000200D040020E800002025
:100C6000EA000020EC000020EE000020F000002050
:100C7000F20000204548007801286FD144480078F0
:100C8000AA28FAD1424880780A287DD14048C07805
:100C9000002879D13E484078072873D2DFE800F079
:100CA000720416283A4C5F003948C079384989796E
:100CB00000EB012000B237490880354840793449BB
:100CC000097900EB0120344908805CE03048C079A4
:100CD0002F49897900EB012000B2304908802C4867
:100CE00040792B49097900EB01202D4908804AE021
:100CF0002748C0792649897900EB012000B22949AB
:100D00000880234840792249097900EB01202649CF
:100D1000088038E01E48C0791D49897900EB012020
:100D200000B2224908801A4840791949097900EB34
:100D300001201F49088026E01548C07914498979A7
:100D400000EB012000B21B4908801148407910498E
:100D5000097900EB01201849088014E014E00C48E0
:100D6000C0790B49897900EB012000B21349088052
:100D7000074840790649097900EB012010490880AD
:100D800001E0FFE700BF00BF704700009B000020AC
:100D9000BD030020820000208E000020840000207F
:100DA0009000002086000020920000208800002093
:100DB000940000208A000020960000208C00002073
:100DC0009800002011480078AA281ED10F484078CA
:100DD00055281AD10D4880780F2816D101200C49CA
:100DE000087000200B4908800B4908700B48074920
:100DF000D1F8061001600A480449D1F80A100160D0
:100E000008480249D1F80E10016070477A030020AB
:100E1000420000200C0000200E0000206000002096
:100E200064000020680000209848007801287CD1E8
:100E300097480078012879D19648C07D10B11028D4
:100E400075D1FBE0934800780F2871D19148407824
:100E50009049897840EA0120C0F30A008E49488011
:100E60008C488078C0108B49C97840EA4110C0F3A3
:100E70000A00894988808748C078801185490979A6
:100E800040EA81008349497940EA8120C0F30A00A1
:100E90008149C8807F48407940107E49897940EA7D
:100EA000C110C0F30A007C4908817A48807900119A
:100EB0007849C97940EA0110C0F30A0076494881AF
:100EC0007448C079C0117349097A40EA41007149F8
:100ED000497A40EA4120C0F30A006F4988816D4891
:100EE000407A80106B49897A40EA8110C0F30A0089
:100EF0006949C8816748807A40116649C97A40EAE1
:100F0000C100654908826348007B6249497B40EA29
:100F10000120C0F30A00604948825E48407BC0104F
:100F20005C49897B40EA411003E09EE0ADE09AE035
:100F300073E0C0F30A00584988825648807B8011CC
:100F40005449C97B40EA81005249097C40EA81202A
:100F5000C0F30A005049C8824E48007C40104D49F9
:100F6000497C40EAC110C0F30A004B490883494854
:100F7000407C00114749897C40EA0110C0F30A0017
:100F8000454948834348807CC0114249C97C40EAB6
:100F900041004049097D40EA4120C0F30A003E4932
:100FA00088833C48007D80103A49497D40EA8110A1
:100FB000C0F30A003849C8833648407D401135499E
:100FC000897D40EAC1003449088408464088334995
:100FD000088031488088324908802F48008931498B
:100FE00008802D48C088304908802B4840892F4907
:100FF0000880294880892E4908802648C07D2D49CF
:1010000008700120234908700020214908702149F7
:10101000087048708870C8700FE01E48007860B98A
:101020001C48407848B94FF47A701C4908801C4924
:1010300008801C4908801C49088015E04FF47A702C
:101040001649088016490880164908801248C08849
:101050001549088010484089144908800E48808945
:101060001349088000E000BF0FE010200949C8754F
:101070000846C07D0F4908700020084908800849CB
:101080000880084908800849088070471501002039
:10109000070100201C040020360400200C01002061
:1010A000080100200A0100200E010020100100208C
:1010B000120100201401002000BFFEE77CB50446A9
:1010C0000D4600200090019042F21070B4FBF0F049
:1010D000C0B28DF804004FF47A70B4FBF0F00A212E
:1010E000B0FBF1F201FB12008DF803006420B4FBA9
:1010F000F0F0B0FBF1F201FB12008DF802000A20C3
:10110000B4FBF0F0B0FBF1F201FB12008DF801002E
:101110004FF470711548FFF7FCFC1DF80510144AD8
:10112000505C06F0ADFD012D06D0022D09D0032D37
:101130000CD0042D16D10FE040210C48FFF7E7FC3E
:1011400011E080210948FFF7E2FC0CE04FF48071C8
:101150000648FFF7DCFC06E04FF400710348FFF798
:10116000D6FC00E000BF00BF7CBD000000040240D0
:10117000440000201CB50121084606F017FB302072
:10118000009001208DF8040000208DF80600032057
:101190008DF8050001208DF8070069460348FFF728
:1011A0004BFC30210148FFF7B4FC1CBD000002409D
:1011B00000B52DED028B91B0FE48008828BBFE489B
:1011C000008810BBFD480088F8B9FD480088E0B9E8
:1011D0000020FC490880FC490880FC490880FC4943
:1011E0000880FC490880FC4908804FF40060FB49F6
:1011F0000880FB490880FB490880FB490880FB49BF
:101200000880FB49088003F03CBDEB480088A0F54E
:101210007A7000EE100AB8EEC00A8DED0F0A9DED4F
:101220000F0A09F0CCF8F3EE040AB4EEE00AF1EE8E
:1012300010FA7CDDE0480088A0F57A7000B2ED4934
:1012400008800846B0F90000FFF742F99FEDEA0B6D
:1012500053EC102BCDE908019DED080B51EC100B60
:10126000FFF755F89FEDE60B53EC102BCDE90A0183
:101270009DED0A0B51EC100BFFF749F89FEDE20BC7
:1012800053EC102BCDE90C019DED0C0B51EC100B28
:10129000FFF7AFF8CDE90E019DED0E0B51EC100BF1
:1012A000FFF727F900B2C7490880D248B0F900001B
:1012B000FFF70EF99FEDD00B53EC102BCDE9080191
:1012C0009DED080B51EC100BFFF721F89FEDCC0BB7
:1012D00053EC102BCDE90A019DED0A0B51EC100BDC
:1012E000FFF715F89FEDC80B53EC102BCDE90C015F
:1012F0009DED0C0B51EC100BFFF77BF8CDE90E01C7
:101300009DED0E0B51EC100BFFF7F3F800B2AE4958
:101310000880B848B0F90000FFF7DAF89FEDB60B87
:1013200053EC102BCDE908019DED080B00E0D3E054
:1013300051EC100BFEF7EBFF9FEDB10B53EC102BB4
:10134000CDE90A019DED0A0B51EC100BFEF7DFFF12
:101350009FEDAD0B53EC102BCDE90C019DED0C0B6B
:1013600051EC100BFFF745F8CDE90E019DED0E0B8A
:1013700051EC100BFFF7BDF800B2944908809D486E
:10138000B0F90000FFF7A4F89FED9B0B53EC102B76
:10139000CDE908019DED080B51EC100BFEF7B7FFEE
:1013A0009FED970B53EC102BCDE90A019DED0A0B35
:1013B00051EC100BFEF7ABFF9FED930B53EC102B92
:1013C000CDE90C019DED0C0B51EC100BFFF711F862
:1013D000CDE90E019DED0E0B51EC100BFFF789F8D6
:1013E00000B27B4908808348B0F90000FFF770F82D
:1013F0009FED810B53EC102BCDE908019DED080BFF
:1014000051EC100BFEF783FF9FED7D0B53EC102B7F
:10141000CDE90A019DED0A0B51EC100BFEF777FFA9
:101420009FED790B53EC102BCDE90C019DED0C0BCE
:1014300051EC100BFEF7DDFFCDE90E019DED0E0B1B
:1014400051EC100BFFF755F800B26249088069486B
:10145000B0F90000FFF73CF89FED670B53EC102B41
:10146000CDE908019DED080B51EC100BFEF74FFF85
:101470009FED630B53EC102BCDE90A019DED0A0B98
:1014800051EC100BFEF743FF9FED5F0B53EC102B5D
:10149000CDE90C019DED0C0B51EC100BFEF7A9FFF3
:1014A000CDE90E019DED0E0B51EC100BFFF721F86D
:1014B00000B2494908804FF4806048490880484993
:1014C0000880484908804FF44060474908804749F0
:1014D00008804749088096E637480088A0F57A706A
:1014E00000EE100AB8EEC00A8DED0F0A9DED0F0A4E
:1014F00008F065FFF3EE040AB4EEE00AF1EE10FA2C
:10150000E9D22C480088A0F57A7000EE100AB8EEF7
:10151000C00A8DED0F0A9DED0F0A08F050FFF3EEA3
:10152000040AB4EEE00AF1EE10FA42DD2348008826
:10153000A0F57A7000EE100AB8EEC00A8DED0F0A21
:101540009DED0F0A08F03BFFF3EE040AB4EEE00A4B
:10155000F1EE10FA2DD217480088A0F57A7000B28B
:101560002B4908800846B0F900004042FEF7B0FF62
:101570009FED210B53EC102BCDE908019DED080BDD
:1015800051EC100BFEF7C3FE9FED1D0B53EC102B1F
:10159000CDE90A019DED0A0B51EC100BFEF7B7FEE9
:1015A0009FED190B53EC102BCDE90C019DED0C0BAD
:1015B00030E053E1080100200A0100200C01002066
:1015C0000E0100209C0000209E000020A0000020B2
:1015D000A2000020A4000020A60000206C00002033
:1015E0006E000020700000207200002074000020B7
:1015F000760000203E0000207715527ED2732D40E9
:101600000000000000004E40000000000000894083
:101610003C00002051EC100BFEF7EBFECDE90E0173
:101620009DED0E0B51EC100BFEF763FF00B2FE496F
:101630000880FE48B0F900004042FEF749FF1FED68
:10164000120B53EC102BCDE908019DED080B51EC6A
:10165000100BFEF75CFE1FED160B53EC102BCDE9C3
:101660000A019DED0A0B51EC100BFEF750FE1FED29
:101670001A0B53EC102BCDE90C019DED0C0B51EC2A
:10168000100BFEF7B6FECDE90E019DED0E0B51ECF1
:10169000100BFEF72EFF00B2E5490880E348B0F9D1
:1016A00000004042FEF714FF1FED2D0B53EC102BF2
:1016B000CDE908019DED080B51EC100BFEF727FE5C
:1016C0001FED310B53EC102BCDE90A019DED0A0BF8
:1016D00051EC100BFEF71BFE1FED350B53EC102BDE
:1016E000CDE90C019DED0C0B51EC100BFEF781FECA
:1016F000CDE90E019DED0E0B51EC100BFEF7F9FE3E
:1017000000B2CC490880C948B0F90000FEF7E0FEFD
:101710001FED470B53EC102BCDE908019DED080B95
:1017200051EC100BFEF7F3FD1FED4B0B53EC102BA0
:10173000CDE90A019DED0A0B51EC100BFEF7E7FD18
:101740001FED4F0B53EC102BCDE90C019DED0C0B55
:1017500051EC100BFEF74DFECDE90E019DED0E0B89
:1017600051EC100BFEF7C5FE00B2B3490880AF483C
:10177000B0F90000FEF7ACFE1FED610B53EC102B2F
:10178000CDE908019DED080B51EC100BFEF7BFFDF4
:101790001FED650B53EC102BCDE90A019DED0A0BF3
:1017A00051EC100BFEF7B3FD1FED690B53EC102B42
:1017B000CDE90C019DED0C0B51EC100BFEF719FE61
:1017C000CDE90E019DED0E0B51EC100BFEF791FED5
:1017D00000B29A4908809548B0F90000FEF778FEFB
:1017E0001FED7B0B53EC102BCDE908019DED080B91
:1017F00051EC100BFEF78BFD1FED7F0B53EC102B04
:10180000CDE90A019DED0A0B51EC100BFEF77FFDAF
:101810001FED830B53EC102BCDE90C019DED0C0B50
:1018200051EC100BFEF7E5FDCDE90E019DED0E0B21
:1018300051EC100BFEF75DFE00B2814908804FF4B9
:10184000006080490880804908808049088080497C
:1018500008808049088080490880D4E47F48008857
:10186000A0F57A7000EE100AB8EEC00A8DED0F0AEE
:101870009DED0F0A08F0A3FDF3EE040AB4EEE00AB2
:10188000F1EE10FA7ED276480088A0F57A7000EE6C
:10189000100AB8EEC00A8DED0F0A9DED0F0A08F090
:1018A0008EFDF3EE040AB4EEE00AF1EE10FA69DD03
:1018B0006B480088C0F57A7000B26A4908809FEDD5
:1018C0006A0A08F0E5F8B0EE408A9FED680A08F071
:1018D000DFF8C8EE000A6348B0F9000000EE100A15
:1018E000B8EEC00A20EE800A8DED070A0798FEF7D1
:1018F00038FE1FEDBF0B53EC102BCDE908019DED19
:10190000080B51EC100BFEF702FD1FEDC30B53EC5F
:10191000102BCDE90A019DED0A0B51EC100BFEF7DF
:10192000F6FC1FEDC70B53EC102BCDE90C019DED20
:101930000C0B51EC100BFEF75CFDCDE90E019DED9B
:101940000E0B51EC100BFEF7D4FD00B236490880A7
:101950004448B0F90000FEF7BBFD1FEDD90B53EC76
:10196000102BCDE908019DED080B51EC100BFEF793
:10197000CEFC1FEDDD0B53EC102BCDE90A019DEDE4
:101980000A0B00E012E251EC100BFEF7C0FC1FED59
:10199000E20B53EC102BCDE90C019DED0C0B51EC3F
:1019A000100BFEF726FDCDE90E019DED0E0B51EC5F
:1019B000100BFEF79EFD00B21D4908809FED2C0A1A
:1019C00008F066F8B0EE408A9FED280A08F060F84B
:1019D000C8EE000A2348B0F9000000EE100AB8EE85
:1019E000C00A20EE800A8DED070A0798FEF7B9FDC0
:1019F0009FED200B53EC102BCDE908019DED080B5A
:101A000051EC100BFEF783FC9FED1C0B53EC102BDD
:101A1000CDE90A019DED0A0B51EC100BFEF777FCA6
:101A20009FED180B32E000009C0000203C000020DD
:101A30009E000020A0000020A2000020A4000020A2
:101A4000A60000206C0000206E0000207000002026
:101A500072000020740000207600002008010020A1
:101A60000C01002040000020DF4F2D3FA089003FE7
:101A7000355E5A3F7715527ED2732D40000000002C
:101A800000004E40000000000000894053EC102B85
:101A9000CDE90C019DED0C0B51EC100BFEF7A9FCF0
:101AA000CDE90E019DED0E0B51EC100BFEF721FD63
:101AB00000B2FE4908801FED140A07F0E9FFB0EEFE
:101AC000408A1FED160A07F0E3FFC8EE000AF84847
:101AD000B0F9000000EE100AB8EEC00A20EE800A4D
:101AE0008DED070A0798FEF73CFD1FED1E0B53EC2A
:101AF000102BCDE908019DED080B51EC100BFEF702
:101B000006FC1FED220B53EC102BCDE90A019DEDD5
:101B10000A0B51EC100BFEF7FAFB1FED260B53ECF2
:101B2000102BCDE90C019DED0C0B51EC100BFEF7C9
:101B300060FCCDE90E019DED0E0B51EC100BFEF794
:101B4000D8FC00B2DB490880D948B0F90000FEF7A4
:101B5000BFFC1FED380B53EC102BCDE908019DEDB8
:101B6000080B51EC100BFEF7D2FB1FED3C0B53ECB6
:101B7000102BCDE90A019DED0A0B51EC100BFEF77D
:101B8000C6FB1FED400B53EC102BCDE90C019DED76
:101B90000C0B51EC100BFEF72CFCCDE90E019DED6A
:101BA0000E0B51EC100BFEF7A4FC00B2C2490880EA
:101BB0001FED510A07F06CFFB0EE408A1FED550A89
:101BC00007F066FFC8EE000AB948B0F9000000EE61
:101BD000100AB8EEC00A20EE800A8DED070A0798B9
:101BE000FEF7BFFC1FED5D0B53EC102BCDE9080198
:101BF0009DED080B51EC100BFEF789FB1FED610BFF
:101C000053EC102BCDE90A019DED0A0B51EC100BA2
:101C1000FEF77DFB1FED650B53EC102BCDE90C019E
:101C20009DED0C0B51EC100BFEF7E3FBCDE90E0123
:101C30009DED0E0B51EC100BFEF75BFC00B29F49C3
:101C400008809FED9F1B9FEDA00B07F001FD8DED20
:101C50000C0B9FED9F0B53EC102B9DED0C0B51ECDF
:101C6000100BFEF754FBCDE90E019DED0E0B51EC70
:101C7000100BFEF75DFC00F58060974908809FED32
:101C8000971B9FED980B07F0E3FC8DED0C0B9FED80
:101C9000900B53EC102B9DED0C0B51EC100BFEF741
:101CA00036FBCDE90E019DED0E0B51EC100BFEF74E
:101CB0003FFC00F580608D4908809FED811B9FED02
:101CC0008C0B07F0C5FC8DED0C0B9FED810B53ECDD
:101CD000102B9DED0C0B51EC100BFEF718FBCDE912
:101CE0000E019DED0E0B51EC100BFEF721FCC0F523
:101CF0004060814908809FED721B9FED730B07F0D8
:101D0000A7FC8DED0C0B9FED720B53EC102B9DED92
:101D10000C0B51EC100BFEF7FAFACDE90E019DED1C
:101D20000E0B51EC100BFEF703FCC0F5406073493D
:101D300008809FED6A1B9FED6B0B07F089FC8DED12
:101D40000C0B9FED630B53EC102B9DED0C0B51EC2A
:101D5000100BFEF7DCFACDE90E019DED0E0B51ECF8
:101D6000100BFEF7E5FBC0F54060654908809FED6C
:101D7000541B9FED5F0B07F06BFC8DED0C0B9FED83
:101D8000540B53EC102B9DED0C0B51EC100BFEF78C
:101D9000BEFACDE90E019DED0E0B51EC100BFEF7D6
:101DA000C7FB00F580605749088056E55648008813
:101DB000A0F57A7000EE100AB8EEC00A8DED0F0A99
:101DC0009DED0F0A08F0FBFAF3EE040AB4EEE00A08
:101DD000F1EE10FA42F3E4864C480088A0F57A70E0
:101DE00000EE100AB8EEC00A8DED0F0A9DED0F0A45
:101DF00008F0E5FAF3EE040AB4EEE00AF1EE10FAA8
:101E0000E8DD41480088A0F57A7000B240490880BA
:101E10003E480088C0F57A7000B2254908803C48E9
:101E2000B0F90000002879DD0846B0F9000000286C
:101E3000F9DD3748B0F9000000EE100AF8EEC00AEC
:101E40000846B0F9000000EE100AB8EEC00A80EEB5
:101E5000801A304880ED001A0846B0F9000000EE04
:101E6000100AB8EEC00A08F0AAFAB0EE408A294873
:101E700090ED000ADFED280A30EE600A8DED000AD1
:101E80009DED000A08F09BFAF0EE401A214890ED13
:101E9000000ADFED210A30EE600A8DED000A9DEDAB
:101EA000000A08F08CFA21EE800A38E0A000002039
:101EB00040000020A2000020A4000020A600002076
:101EC000A4703D0AD7A3E83F8FC2F5285C8FD23FAC
:101ED000C971A774305F84406C000020295C8FC2F8
:101EE000F528BC3F666666666666E63F6E000020C3
:101EF00052B81E85EB51E03F7000002072000020B8
:101F00007400002076000020080100200C01002051
:101F10003C00002030000020E17A943EFEE38DED8D
:101F2000010A0198FEF71DFB9FEDFE0B53EC102BF1
:101F3000CDE902019DED020B51EC100BFEF740F9CB
:101F4000CDE904019DED040B51EC100BFEF71CFBD9
:101F500006909DED060A07F09BFD28EE400A8DEDE8
:101F6000070A0798FEF7FDFA9FEDF00B53EC102BD4
:101F7000CDE908019DED080B51EC100BFEF7C7F9F8
:101F80009FEDEC0B53EC102BCDE90A019DED0A0BF4
:101F900051EC100BFEF7BBF99FEDE80B53EC102B47
:101FA000CDE90C019DED0C0B51EC100BFEF721FA65
:101FB000CDE90E019DED0E0B51EC100BFEF799FAD9
:101FC00000B2E0490880E048B0F9000000EE100AD5
:101FD000B8EEC00A08F0F3F9B0EE408ADB4890EDA5
:101FE000000ADFEDDB0A30EE600A8DED000A9DEDA0
:101FF000000A08F0E4F9F0EE401AD44890ED000A27
:10200000DFEDD30A30EE600A8DED000A9DED000A87
:1020100008F0D5F921EE800A8DED010A0198FEF74E
:10202000A0FA9FEDCC0B53EC102BCDE902019DEDF6
:10203000020B51EC100BFEF7C3F8CDE904019DED46
:10204000040B51EC100BFEF79FFA06909DED060A6B
:1020500007F01EFD28EE400A8DED070A0798FEF7EF
:1020600080FA9FEDB20B53EC102BCDE908019DEDEA
:10207000080B51EC100BFEF74AF99FEDAE0B53EC39
:10208000102BCDE90A019DED0A0B51EC100BFEF768
:102090003EF99FEDAA0B53EC102BCDE90C019DED01
:1020A0000C0B51EC100BFEF7A4F9CDE90E019DEDE0
:1020B0000E0B51EC100BFEF71CFA00B2A74908807A
:1020C000A148B0F9000000EE100AB8EEC00A08F00E
:1020D00076F9B0EE408A9D4890ED000ADFEDA00A47
:1020E00030EE600A8DED000A9DED000A08F067F9F8
:1020F000F0EE401A954890ED000ADFED990A30EEB7
:10210000600A8DED000A9DED000A08F058F921EEF5
:10211000800A8DED010A0198FEF723FA9FED810BED
:1021200053EC102BCDE902019DED020B51EC100B8D
:10213000FEF746F8CDE904019DED040B51EC100BC0
:10214000FEF722FA06909DED060A07F0A1FC28EEA4
:10215000400A8DED070A0798FEF703FA9FED730B0F
:1021600053EC102BCDE908019DED080B51EC100B41
:10217000FEF7CDF89FED6F0B53EC102BCDE90A0164
:102180009DED0A0B51EC100BFEF7C1F89FED6B0BA8
:1021900053EC102BCDE90C019DED0C0B51EC100B09
:1021A000FEF727F9CDE90E019DED0E0B51EC100B5A
:1021B000FEF79FF900B26B4908806348B0F9000050
:1021C00000EE100AB8EEC00A08F0F9F8B0EE408A46
:1021D0005E4890ED000A5FEDB00A30EE200A8DED0A
:1021E000000A9DED000A08F0EAF8F0EE401A5748A0
:1021F00090ED000A5FEDB80A30EE200A8DED000A7E
:102200009DED000A08F0DBF821EE800A8DED010A51
:102210000198FEF7A6F99FED430B53EC102BCDE987
:1022200002019DED020B51EC100BFDF7C9FFCDE94A
:1022300004019DED040B51EC100BFEF7A5F906907F
:102240009DED060A07F024FC28EE000A8DED070A32
:102250000798FEF786F99FED350B53EC102BCDE96F
:1022600008019DED080B51EC100BFEF750F89FEDA7
:10227000310B53EC102BCDE90A019DED0A0B51EC0B
:10228000100BFEF744F89FED2D0B53EC102BCDE90E
:102290000C019DED0C0B51EC100BFEF7AAF8CDE9EB
:1022A0000E019DED0E0B51EC100BFEF722F900B262
:1022B0002D4908802448B0F9000000EE100AB8EE5D
:1022C000C00A08F07CF8B0EE408A204890ED000A81
:1022D000DFED1F0A30EE200A8DED000A9DED000AA9
:1022E00008F06DF8F0EE401A184890ED000ADFEDA6
:1022F000180A30EE200A8DED000A9DED000A08F064
:102300005EF821EE800A8DED010A0198FEF729F9A9
:102310009FED100B53EC102BCDE902019DED020B4C
:1023200024E000007E8CB96B09F9E23F7715527EFC
:10233000D2732D400000000000004E40000000005D
:10234000000089409C000020400000203000002058
:102350003333333F80B74082E2C7883F9E0000207E
:102360005C8F023FA0000020A200002051EC100B67
:10237000FDF726FFCDE904019DED040B51EC100B98
:10238000FEF702F906909DED060A07F081FB28EEA4
:10239000000A8DED070A0798FEF7E3F81FED1D0B05
:1023A00053EC102BCDE908019DED080B51EC100BFF
:1023B000FDF7ADFF1FED210B53EC102BCDE90A010A
:1023C0009DED0A0B51EC100BFDF7A1FF1FED250B46
:1023D00053EC102BCDE90C019DED0C0B51EC100BC7
:1023E000FEF707F8CDE90E019DED0E0B51EC100B39
:1023F000FEF77FF800B2FE490880FE48B0F9000001
:1024000000EE100AB8EEC00A07F0D9FFB0EE408A1D
:10241000F94890ED000A5FED2E0A30EE200A8DEDAE
:10242000000A9DED000A07F0CAFFF0EE401AF248DC
:1024300090ED000A5FED360A30EE200A8DED000ABD
:102440009DED000A07F0BBFF21EE800A8DED010A29
:102450000198FEF786F81FED4D0B53EC102BCDE9DC
:1024600002019DED020B51EC100BFDF7A9FECDE929
:1024700004019DED040B51EC100BFEF785F806905E
:102480009DED060A07F004FB28EE000A8DED070A11
:102490000798FEF766F81FED5B0B53EC102BCDE9A8
:1024A00008019DED080B51EC100BFDF730FF1FEDFF
:1024B0005F0B53EC102BCDE90A019DED0A0B51EC9B
:1024C000100BFDF724FF1FED630B53EC102BCDE930
:1024D0000C019DED0C0B51EC100BFDF78AFFCDE9C3
:1024E0000E019DED0E0B51EC100BFEF702F800B241
:1024F000C2490880C04890ED000A5FED6B0AB4EE57
:10250000E00AF1EE10FA7ADD90ED000ADFEDBC0A88
:1025100030EE600A8DED0F0ADDED0F0A9FEDB90A6E
:1025200007F08EF9DFEDB80A20EE200ABCEEC00AF3
:1025300010EE100A00F50060B4490880AE4890ED36
:10254000000A5FED7D0A30EE600A8DED0F0ADDEDC9
:102550000F0A9FEDAF0A07F073F9DFEDAB0A20EE2B
:10256000200ABCEEC00A10EE100A00F50060A9496E
:102570000880A14890ED000A5FED870A30EE600AFE
:102580008DED0F0ADDED0F0A9FED9E0A07F058F959
:10259000DFED9D0A20EE200ABCEEC00A10EE100A04
:1025A000C0F500609C490880934890ED000ADFED7B
:1025B000940A30EE200A8DED0F0ADDED0F0A9FED33
:1025C000910A07F03DF9DFED900A20EE200ABCEEFB
:1025D000C00A10EE100A00F5006090490880864895
:1025E00090ED000A5FEDA60A30EE200A8DED0F0A8D
:1025F000DDED0F0A9FED860A07F022F900E026E0E4
:10260000DFED810A20EE200ABCEEC00A10EE100AAF
:1026100000F5006082490880774890ED000A5FED80
:10262000B00A30EE200A8DED0F0ADDED0F0A9FEDA6
:10263000750A07F005F9DFED740A20EE200ABCEEFA
:10264000C00A10EE100AC0F50060764908806A489A
:1026500090ED000A5FEDC20AB4EEE00AF1EE10FA66
:102660007DD890ED000A5FEDC20AB4EEE00AF1EE0B
:1026700010FA74DD90ED000ADFED610A30EE600AB9
:102680008DED0F0ADDED0F0A9FED5E0A07F0D8F819
:10269000DFED5D0A20EE200ABCEEC00A10EE100A43
:1026A00000F5006059490880534890ED000A5FED3D
:1026B000D80A30EEC00A8DED0F0ADDED0F0A9FED4E
:1026C000540A07F0BDF8DFED500A20EE200ABCEEF8
:1026D000C00A10EE100AC0F580504E4908804648E6
:1026E00090ED000A5FEDE20A30EE600A8DED0F0A10
:1026F000DDED0F0A9FED430A07F0A2F8DFED420A75
:1027000020EE200ABCEEC00A10EE100AC0F50060F0
:1027100041490880384890ED000A00E051E1DFEDC2
:10272000380A30EE200A8DED0F0ADDED0F0A9FED1D
:10273000350A07F085F8DFED340A20EE200ABCEEFA
:10274000C00A10EE100A00F50060344908802A48DB
:1027500090ED000ADFED340A30EE200A00E02EE0B2
:102760008DED0F0ADDED0F0A9FED290A07F068F8DD
:10277000DFED250A20EE200ABCEEC00A10EE100A9A
:1027800000F50060264908801B4890ED000ADFED47
:10279000270A30EE200A8DED0F0ADDED0F0A9FEDBE
:1027A000190A07F04DF8DFED180A20EE200ABCEEFA
:1027B000C00A10EE100AC0F500601A4908800E48E1
:1027C00090ED000ADFED190AB4EEE00AF1EE10FA1E
:1027D0007ED890ED000ADFED0A0A30EE600A8DED3A
:1027E0000F0ADDED0F0A9FED070A07F029F81FE039
:1027F000A40000204000002030000020A60000209F
:10280000E17A943EB81E453F84F922446C000020D2
:10281000AE47E13D6E0000207000002072000020F5
:1028200074000020760000203333333F5C8F023F7A
:102830005FED0B0A20EE200ABCEEC00A10EE100A73
:1028400000F50060FE490880FE4890ED000A5FED4B
:102850000A0A30EEC00A8DED0F0ADDED0F0A1FEDFA
:10286000140A06F0EDFF5FED180A20EE200ABCEE18
:10287000C00A10EE100AC0F58050F3490880F148F4
:1028800090ED000A5FED170A30EEC00A8DED0F0AD9
:10289000DDED0F0A1FED250A06F0D2FF5FED260AD7
:1028A00020EE200ABCEEC00A10EE100AE7490880AC
:1028B000E44890ED000A5FED2E0A30EE200A8DED1F
:1028C0000F0ADDED0F0A1FED310A06F0B9FF00E037
:1028D00041E05FED330A20EE200ABCEEC00A10EEA4
:1028E000100A00F50060DA490880D64890ED000A29
:1028F0005FED330A30EE200A8DED0F0ADDED0F0A91
:102900001FED3D0A06F09CFF5FED410A20EE200A14
:10291000BCEEC00A10EE100A00F50060CD49088038
:10292000C84890ED000A5FED3F0A30EE200A8DEDB9
:102930000F0ADDED0F0A1FED4D0A06F081FF5FED76
:102940004E0A20EE200ABCEEC00A10EE100AC0F5B6
:102950000060C1490880BA480088B0F5406F03DBC9
:102960004FF44060B6490880B7480088B0F5406F22
:1029700003DB4FF44060B4490880B4480088B0F5E8
:10298000806F03DC4FF48060B0490880B048008855
:10299000B0F5406F03DB4FF44060AD490880AD48AF
:1029A0000088B0F5406F03DB4FF44060A949088010
:1029B000A9480088B0F5806F03DC4FF48060A64919
:1029C0000880A648B0F9000000287CDAA448B0F9D5
:1029D0000000002877DDA148B0F9000000EE100AE1
:1029E000B8EEC00AF1EE400A9D48B0F9000000EED2
:1029F000100AB8EEC00A80EE801A924880ED001AE4
:102A00009748B0F9000000EE100AB8EEC00A07F0CF
:102A1000D6FCB0EE408A8B4890ED000A5FED880A44
:102A200030EE600A8DED000A9DED000A07F0C7FC4C
:102A3000F0EE401A834890ED000A5FED8F0A30EE09
:102A4000600A8DED000A9DED000A07F0B8FC21EE4A
:102A5000800A8DED010A0198FDF783FD9FED810B42
:102A600053EC102BCDE902019DED020B51EC100B44
:102A7000FDF7A6FBCDE904019DED040B51EC100B15
:102A8000FDF782FD06909DED060A07F001F828EE9D
:102A9000000A8DED070A0798FDF763FD9FED730BA4
:102AA00053EC102BCDE908019DED080B51EC100BF8
:102AB000FDF72DFC9FED6F0B53EC102BCDE90A01B8
:102AC0009DED0A0B00E0FDE351EC100BFDF71FFC40
:102AD0009FED6A0B53EC102BCDE90C019DED0C0B17
:102AE00051EC100BFDF785FCCDE90E019DED0E0BB1
:102AF00051EC100BFDF7FDFC00B26249088058480C
:102B0000B0F9000000EE100AB8EEC00A07F057FC5A
:102B1000B0EE408A4B4890ED000A5FEDBD0A30EE02
:102B2000600A8DED000A9DED000A07F048FCF0EE0A
:102B3000401A444890ED000A5FEDC50A30EE600A85
:102B40008DED000A9DED000A07F039FC21EE800AA8
:102B50008DED010A0198FDF704FD9FED4B0B53EC41
:102B6000102BCDE902019DED020B51EC100BFDF78E
:102B700027FBCDE904019DED040B51EC100BFDF793
:102B800003FD06909DED060A06F082FF28EE000A7E
:102B90008DED070A0798FDF7E4FC9FED340B53EC2D
:102BA000102BCDE908019DED080B51EC100BFDF742
:102BB000AEFB9FED300B53EC102BCDE90A019DEDE0
:102BC0000A0B51EC100BFDF7A2FB9FED2C0B53EC05
:102BD000102BCDE90C019DED0C0B51EC100BFDF70A
:102BE00008FCCDE90E019DED0E0B51EC100BFDF72D
:102BF00080FC00B2264908801948B0F9000000EEB8
:102C0000100AB8EEC00A07F0DAFBB0EE408A0D48B1
:102C100090ED000A5FEDFB0A30EE600A8DED000AD0
:102C20009DED000A07F0CBFBF0EE401A054890ED51
:102C3000000ADFED180A30EE600A8DED000A2BE085
:102C40006C000020300000206E000020700000208A
:102C50007200002074000020760000203C0000205C
:102C6000400000207E8CB96B09F9E23F7715527E57
:102C7000D2732D400000000000004E400000000014
:102C8000000089409C00002080B74082E2C7883F56
:102C90009E0000205C8F023F9DED000A07F08FFB35
:102CA00021EE800A8DED010A0198FDF75AFC1FED17
:102CB000130B53EC102BCDE902019DED020B51ECEF
:102CC000100BFDF77DFACDE904019DED040B51ECED
:102CD000100BFDF759FC06909DED060A06F0D8FE94
:102CE00028EE000A8DED070A0798FDF73AFC1FED64
:102CF000210B53EC102BCDE908019DED080B51EC95
:102D0000100BFDF704FB1FED250B53EC102BCDE949
:102D10000A019DED0A0B51EC100BFDF7F8FA1FEDBF
:102D2000290B53EC102BCDE90C019DED0C0B51EC54
:102D3000100BFDF75EFBCDE90E019DED0E0B51EC86
:102D4000100BFDF7D6FB00B2FD490880FD48B0F935
:102D5000000000EE100AB8EEC00A07F030FBB0EE3B
:102D6000408AF94890ED000ADFEDF80A30EE200ABB
:102D70008DED000A9DED000A07F021FBF0EE401AF0
:102D8000F14890ED000ADFEDF10A30EE200A8DEDFA
:102D9000000A9DED000A07F012FB21EE800A8DED7E
:102DA000010A0198FDF7DDFB1FED520B53EC102BD0
:102DB000CDE902019DED020B51EC100BFDF700FA7D
:102DC000CDE904019DED040B51EC100BFDF7DCFB8C
:102DD00006909DED060A06F05BFE28EE400A8DED9A
:102DE000070A0798FDF7BDFB1FED600B53EC102B96
:102DF000CDE908019DED080B51EC100BFDF787FAAA
:102E00001FED640B53EC102BCDE90A019DED0A0B6D
:102E100051EC100BFDF77BFA1FED680B53EC102BF8
:102E2000CDE90C019DED0C0B51EC100BFDF7E1FA17
:102E3000CDE90E019DED0E0B51EC100BFDF759FB8A
:102E400000B2C3490880BF48B0F9000000EE100A84
:102E5000B8EEC00A07F0B3FAB0EE408ABA4890ED77
:102E6000000ADFEDBC0A30EE200A8DED000A9DED70
:102E7000000A07F0A4FAF0EE401AB34890ED000AF9
:102E8000DFEDB40A30EE200A8DED000A9DED000A58
:102E900007F095FA21EE800A8DED010A0198FDF701
:102EA00060FB1FED870B53EC102BCDE902019DED6C
:102EB000020B51EC100BFDF783F9CDE904019DEDF8
:102EC000040B51EC100BFDF75FFB06909DED060A1D
:102ED00006F0DEFD28EE400A8DED070A0798FDF7A3
:102EE00040FB1FED9E0B53EC102BCDE908019DED2F
:102EF000080B51EC100BFDF70AFA1FEDA20B53EC77
:102F0000102BCDE90A019DED0A0B51EC100BFDF7DA
:102F1000FEF91FEDA60B53EC102BCDE90C019DED36
:102F20000C0B51EC100BFDF764FACDE90E019DED91
:102F30000E0B51EC100BFDF7DCFA00B2864908804D
:102F40008048B0F9000000EE100AB8EEC00A07F0A1
:102F500036FAB0EE408A7C4890ED000A5FEDB30A85
:102F600030EE200A8DED000A9DED000A07F027FAE9
:102F7000F0EE401A744890ED000A5FEDBA0A30EEA8
:102F8000200A8DED000A9DED000A07F018FA21EEE7
:102F9000800A8DED010A0198FDF7E3FA1FEDCF0BD2
:102FA00053EC102BCDE902019DED020B51EC100BFF
:102FB000FDF706F9CDE904019DED040B51EC100B72
:102FC000FDF7E2FA06909DED060A06F061FD28EE97
:102FD000400A8DED070A0798FDF7C3FA1FEDDD0BD8
:102FE00053EC102BCDE908019DED080B51EC100BB3
:102FF000FDF78DF91FEDE10B53EC102BCDE90A0124
:103000009DED0A0B51EC100BFDF781F91FEDE50B5F
:1030100053EC102BCDE90C019DED0C0B51EC100B7A
:10302000FDF7E7F9CDE90E019DED0E0B51EC100B0C
:10303000FDF75FFA00B249490880434890ED000A65
:10304000DFED440AB4EEE00AF1EE10FA76DD90ED21
:10305000000ADFED3E0A30EE600A8DED0F0ADDED6D
:103060000F0A9FED3F0A06F0EBFBDFED3E0A20EE74
:10307000200ABCEEC00A10EE100A00F500603A49C2
:103080000880314890ED000ADFED320A30EE600A28
:103090008DED0F0ADDED0F0A9FED340A06F0D0FB2F
:1030A000DFED300A20EE200ABCEEC00A10EE100A56
:1030B00000F500602E490880234890ED000ADFEDFE
:1030C0002D0A30EE600A8DED0F0ADDED0F0A9FED3F
:1030D000240A06F0B5FBDFED230A20EE200ABCEE41
:1030E000C00A10EE100AC0F5006023490880164897
:1030F00090ED000ADFED150A30EE200A8DED0F0A83
:10310000DDED0F0A9FED160A06F09AFBDFED150ABA
:1031100020EE200ABCEEC00A10EE100A00F5006096
:1031200016490880084890ED000ADFED0A0A30EEE3
:10313000200A8DED0F0ADDED0F0A21E04BE00000C3
:10314000A00000204000002030000020E17A943EE2
:10315000A20000203333333FA4000020A60000204B
:10316000B81E453F84F922446C000020AE47E13D83
:103170006E0000205C8F023F700000207200002073
:103180001FED060A06F05CFB5FED0A0A20EE200A3E
:10319000BCEEC00A10EE100A00F50060FE4908807F
:1031A000FE4890ED000A5FED0D0A30EE200A8DED2D
:1031B0000F0ADDED0F0A1FED160A06F041FB5FED69
:1031C000170A20EE200ABCEEC00A10EE100AC0F565
:1031D0000060F3490880F14890ED000A5FED230A92
:1031E000B4EEE00AF1EE10FA6DD890ED000A5FED52
:1031F0001F0AB4EEE00AF1EE10FA64DD90ED000A69
:103200005FED2E0A30EE600A8DED0F0ADDED0F0A3C
:103210001FED2D0A06F014FB5FED2E0A20EE200AAA
:10322000BCEEC00A10EE100A00F50060DD4908800F
:10323000DA4890ED000A5FED390A30EEC00A8DEDF4
:103240000F0ADDED0F0A1FED370A06F0F9FA5FED00
:103250003B0A20EE200ABCEEC00A10EE100AC0F5B0
:103260008050D1490880CD4890ED000A5FED3F0ABB
:1032700030EE600A8DED0F0ADDED0F0A1FED480AF2
:1032800006F0DEFA5FED490A20EE200ABCEEC00A25
:1032900010EE100AC0F50060C4490880BF4890EDE8
:1032A000000A5FED560A30EE200A8DED0F0ADDEDC3
:1032B0000F0A1FED550A06F0C3FA5FED560A20EE1D
:1032C000200A01E01FE13DE0BCEEC00A10EE100A4A
:1032D00000F50060B6490880B04890ED000A5FED47
:1032E000630A30EE200A8DED0F0ADDED0F0A1FEDA7
:1032F000610A06F0A5FA5FED650A20EE200ABCEE31
:10330000C00A10EE100A00F50060A3490880A34827
:1033100090ED000A5FED690A30EE200A8DED0F0A8C
:10332000DDED0F0A1FED720A06F08AFA5FED730AEF
:1033300020EE200ABCEEC00A10EE100AC0F50060B4
:1033400097490880954890ED000A5FED760AB4EE43
:10335000E00AF1EE10FA7CD890ED000A5FED850AE4
:1033600030EE600A8DED0F0ADDED0F0A1FED840AC5
:1033700006F066FA5FED850A20EE200ABCEEC00A70
:1033800010EE100A00F5006086490880834890ED31
:10339000000A5FED900A30EEC00A8DED0F0ADDEDF8
:1033A0000F0A1FED8E0A06F04BFA5FED920A20EE2F
:1033B000200ABCEEC00A10EE100AC0F580507A490F
:1033C0000880764890ED000A5FED960A30EEC00A5C
:1033D0008DED0F0ADDED0F0A1FED9F0A06F030FAA2
:1033E0005FEDA00A20EE200ABCEEC00A10EE100A23
:1033F0006E490880694890ED000A5FEDAC0A30EE36
:10340000200A8DED0F0ADDED0F0A1FEDAB0A06F065
:1034100017FA5FEDAC0A20EE200ABCEEC00A10EEEF
:10342000100A00F50060624908805C4890ED000ACF
:103430005FEDB80A30EE200A8DED0F0ADDED0F0AC0
:103440001FEDB60A06F0FCF95FEDBA0A20EE200A7D
:1034500000E022E0BCEEC00A10EE100A00F50060A9
:103460004D4908804D4890ED000A5FEDBE0A30EEF0
:10347000200A8DED0F0ADDED0F0A1FEDC70A06F0D9
:10348000DFF95FEDC80A20EE200ABCEEC00A10EE9C
:10349000100AC0F500604249088042480088B0F533
:1034A000406F03DB4FF440603E4908803E4800888F
:1034B000B0F5406F03DB4FF440603B4908803B4868
:1034C0000088B0F5806F03DC4FF4806037490880D6
:1034D00037480088B0F5406F03DB4FF44060344953
:1034E00008802D480088B0F5406F03DB4FF4406042
:1034F000294908802A480088B0F5806F03DC4FF422
:103500008060274908802B48B0F9000000287DDD45
:103510002948B0F90000002878DA2648B0F9000000
:1035200000EE100AB8EEC00AF1EE400A2248B0F9E7
:10353000000000EE100AB8EEC00A80EE801A1748AC
:1035400080ED001A1C48B0F9000000EE100AB8EE39
:10355000C00A06F034FFB0EE408A104890ED000A31
:10356000DFED160A30EE200A8DED000A9DED000A0F
:1035700006F025FFF0EE401A084890ED000ADFED56
:103580000F0A30EE200A8DED000A9DED000A06F0CC
:1035900016FF21EE800A13E07400002030000020A6
:1035A000760000206C0000206E00002070000020DB
:1035B000720000203C00002040000020E17A943E90
:1035C0008DED010A0198FCF7CCFF9FEDFE0B53EC4B
:1035D000102BCDE902019DED020B51EC100BFCF715
:1035E000EFFDCDE904019DED040B51EC100BFCF750
:1035F000CBFF06909DED060A06F04AFA28EE400A37
:103600008DED070A0798FCF7ACFF00E0FAE39FEDA9
:10361000EF0B53EC102BCDE908019DED080B51EC9D
:10362000100BFCF774FE9FEDEB0B53EC102BCDE968
:103630000A019DED0A0B51EC100BFCF768FE9FEDA3
:10364000E70B53EC102BCDE90C019DED0C0B51EC6D
:10365000100BFCF7CEFECDE90E019DED0E0B51ECEB
:10366000100BFCF746FF00B2DE490880DE48B0F9D7
:10367000000000EE100AB8EEC00A06F0A0FEB0EEA0
:10368000408ADA4890ED000ADFEDD90A30EE200AD0
:103690008DED000A9DED000A06F091FEF0EE401A55
:1036A000D24890ED000ADFEDD20A30EE200A8DED0F
:1036B000000A9DED000A06F082FE21EE800A8DEDE3
:1036C000010A0198FCF74DFF9FEDCA0B53EC102B3C
:1036D000CDE902019DED020B51EC100BFCF770FDE2
:1036E000CDE904019DED040B51EC100BFCF74CFFF0
:1036F00006909DED060A06F0CBF928EE400A8DED06
:10370000070A0798FCF72DFF9FEDB00B53EC102B29
:10371000CDE908019DED080B51EC100BFCF7F7FD0E
:103720009FEDAC0B53EC102BCDE90A019DED0A0B7C
:1037300051EC100BFCF7EBFD9FEDA80B53EC102B9D
:10374000CDE90C019DED0C0B51EC100BFCF751FE7B
:10375000CDE90E019DED0E0B51EC100BFCF7C9FEEF
:1037600000B2A6490880A048B0F9000000EE100A97
:10377000B8EEC00A06F023FEB0EE408A9B4890EDFA
:10378000000ADFED9F0A30EE200A8DED000A9DED64
:10379000000A06F014FEF0EE401A944890ED000A7C
:1037A000DFED970A30EE200A8DED000A9DED000A4C
:1037B00006F005FE21EE800A8DED010A0198FCF766
:1037C000D0FE9FED800B53EC102BCDE902019DED57
:1037D000020B51EC100BFCF7F3FCCDE904019DED5D
:1037E000040B51EC100BFCF7CFFE06909DED060A82
:1037F00006F04EF928EE400A8DED070A0798FCF70F
:10380000B0FE9FED720B53EC102BCDE908019DED3E
:10381000080B51EC100BFCF77AFD9FED6E0B53EC8F
:10382000102BCDE90A019DED0A0B51EC100BFCF7B2
:103830006EFD9FED6A0B53EC102BCDE90C019DED55
:103840000C0B51EC100BFCF7D4FDCDE90E019DEDF6
:103850000E0B51EC100BFCF74CFE00B269490880CE
:103860006148B0F9000000EE100AB8EEC00A06F098
:10387000A6FDB0EE408A5D4890ED000A5FEDB10A0A
:1038800030EE600A8DED000A9DED000A06F097FD0E
:10389000F0EE401A554890ED000A5FEDB80A30EEA0
:1038A000600A8DED000A9DED000A06F088FD21EE0C
:1038B000800A8DED010A0198FCF753FE9FED410B44
:1038C00053EC102BCDE902019DED020B51EC100BD6
:1038D000FCF776FCCDE904019DED040B51EC100BD7
:1038E000FCF752FE06909DED060A06F0D1F828EE90
:1038F000000A8DED070A0798FCF733FE9FED330BA6
:1039000053EC102BCDE908019DED080B51EC100B89
:10391000FCF7FDFC9FED2F0B53EC102BCDE90A01BA
:103920009DED0A0B51EC100BFCF7F1FC9FED2B0BFE
:1039300053EC102BCDE90C019DED0C0B51EC100B51
:10394000FCF757FDCDE90E019DED0E0B51EC100B70
:10395000FCF7CFFD00B22C4908802348B0F90000E5
:1039600000EE100AB8EEC00A06F029FDB0EE408A5B
:103970001E4890ED000ADFED1E0A30EE600A8DED64
:10398000000A9DED000A06F01AFDF0EE401A1748F5
:1039900090ED000ADFED160A30EE600A8DED000AA8
:1039A0009DED000A06F00BFD21EE800A8DED010A67
:1039B0000198FCF7D6FD9FED0F0B53EC102BCDE9D2
:1039C000020123E07E8CB96B09F9E23F7715527E44
:1039D000D2732D400000000000004E4000000000A7
:1039E000000089409C0000204000002030000020A2
:1039F0003333333F80B74082E2C7883F9E000020C8
:103A00005C8F023FA0000020A20000209DED020B71
:103A100051EC100BFCF7D4FBCDE904019DED040B38
:103A200051EC100BFCF7B0FD06909DED060A06F078
:103A30002FF828EE000A8DED070A0798FCF791FD94
:103A40001FED1E0B53EC102BCDE908019DED080B6B
:103A500051EC100BFCF75BFC1FED220B53EC102B11
:103A6000CDE90A019DED0A0B51EC100BFCF74FFC60
:103A70001FED260B53EC102BCDE90C019DED0C0B2B
:103A800051EC100BFCF7B5FCCDE90E019DED0E0BD2
:103A900051EC100BFCF72DFD00B2FD490880FD48EC
:103AA000B0F9000000EE100AB8EEC00A06F087FC7C
:103AB000B0EE408AF84890ED000A5FED2F0A30EE34
:103AC000600A8DED000A9DED000A06F078FCF0EE2C
:103AD000401AF14890ED000A5FED370A30EE600AB7
:103AE0008DED000A9DED000A06F069FC21EE800ACA
:103AF0008DED010A0198FCF734FD1FED4E0B53ECE0
:103B0000102BCDE902019DED020B51EC100BFCF7DF
:103B100057FBCDE904019DED040B51EC100BFCF7B4
:103B200033FD06909DED060A05F0B2FF28EE000A6F
:103B30008DED070A0798FCF714FD1FED5C0B53ECA5
:103B4000102BCDE908019DED080B51EC100BFCF793
:103B5000DEFB1FED600B53EC102BCDE90A019DED50
:103B60000A0B51EC100BFCF7D2FB1FED640B53EC6E
:103B7000102BCDE90C019DED0C0B51EC100BFCF75B
:103B800038FCCDE90E019DED0E0B51EC100BFCF74E
:103B9000B0FC00B2C1490880BF4890ED000A5FED5B
:103BA0006C0AB4EEE00AF1EE10FA7CDD90ED000A4A
:103BB000DFEDBB0A30EE200A8DED0F0ADDED0F0AB6
:103BC0009FEDB80A05F03CFEDFEDB70A20EE200AB3
:103BD000BCEEC00A10EE100AC0F50060B3490880C0
:103BE000AD4890ED000A5FED7E0A30EE200A8DEDC3
:103BF0000F0ADDED0F0A9FEDAE0A05F021FEDFEDA5
:103C0000AA0A20EE200ABCEEC00A10EE100AC0F587
:103C10000060A8490880A04890ED000A5FED880A7E
:103C200030EE200A8DED0F0ADDED0F0A9FED9D0AA3
:103C300005F006FEDFED9C0A20EE200ABCEEC00A6D
:103C400010EE100A00F500609B490880924890ED44
:103C5000000ADFED930A30EE600A8DED0F0ADDED0C
:103C60000F0A9FED900A05F0EBFDDFED8F0A20EEC5
:103C7000200ABCEEC00A10EE100AC0F500608F49A1
:103C80000880854890ED000A5FEDA70A30EE600AD3
:103C90008DED0F0ADDED0F0A9FED850A05F0D0FDD1
:103CA000DFED810A00E024E020EE200ABCEEC00A2D
:103CB00010EE100AC0F5006081490880764890ED4A
:103CC000000A5FEDB10A30EE600A8DED0F0ADDEDFE
:103CD0000F0A9FED740A05F0B3FDDFED730A20EEC5
:103CE000200ABCEEC00A10EE100A00F5006075490B
:103CF0000880694890ED000A5FEDC30AB4EEE00A5F
:103D0000F1EE10FA7DD290ED000A5FEDC30AB4EE39
:103D1000E00AF1EE10FA74DD90ED000ADFED600AC2
:103D200030EE200A8DED0F0ADDED0F0A9FED5D0AE2
:103D300005F086FDDFED5C0A20EE200ABCEEC00A2D
:103D400010EE100AC0F5006058490880524890ED06
:103D5000000A5FEDD90A30EE200A8DED0F0ADDED85
:103D60000F0A9FED530A05F06BFDDFED4F0A20EEC1
:103D7000200ABCEEC00A10EE100AC0F500604D49E2
:103D80000880454890ED000A5FEDE30A30EE200A16
:103D90008DED0F0ADDED0F0A9FED420A05F050FD93
:103DA000DFED410A20EE200ABCEEC00A10EE100A38
:103DB00000F5006040490880374890ED000ADFEDCB
:103DC000380A30EE600A8DED0F0ADDED0F0A9FED27
:103DD000350A05F035FDDFED340A20EE200ABCEE91
:103DE000C00A10EE100AC0F50060344908802A4865
:103DF00090ED000ADFED340A30EEC00A8DED0F0AB7
:103E000001E02BE02DE1DDED0F0A9FED290A05F021
:103E100017FDDFED250A20EE200ABCEEC00A10EEE9
:103E2000100A274908801C4890ED000ADFED270A98
:103E300030EE600A8DED0F0ADDED0F0A9FED190AD5
:103E400005F0FEFCDFED180A20EE200ABCEEC00AE9
:103E500010EE100A00F500601A4908800E4890ED37
:103E6000000ADFED1A0AB4EEE00AF1EE10FA7DD294
:103E700090ED000ADFED0A0A30EE200A8DED0F0A00
:103E8000DDED0F0A9FED070A05F0DAFC20E00000E7
:103E9000A40000204000002030000020A6000020E8
:103EA000E17A943EB81E453F84F922446C0000201C
:103EB000AE47E13D6E00002070000020720000203F
:103EC00074000020760000203333333F5C8F023FC4
:103ED0005FED0B0A20EE200ABCEEC00A10EE100ABD
:103EE000C0F50060FE490880FE4890ED000A5FEDD5
:103EF0000A0A30EE200A8DED0F0ADDED0F0A1FEDE4
:103F0000140A05F09DFC5FED180A20EE200ABCEEB5
:103F1000C00A10EE100AC0F50060F3490880F148AD
:103F200090ED000A5FED170A30EE200A8DED0F0AC2
:103F3000DDED0F0A1FED250A05F082FC5FED260A74
:103F400020EE200ABCEEC00A10EE100A00F5006058
:103F5000E6490880E34890ED000A5FED2F0A30EE55
:103F6000600A8DED0F0ADDED0F0A00E043E01FED62
:103F7000330A05F065FC5FED340A20EE200ABCEE42
:103F8000C00A10EE100AC0F50060D9490880D54873
:103F900090ED000A5FED340A30EEC00A8DED0F0A95
:103FA000DDED0F0A1FED3E0A05F04AFC5FED420A07
:103FB00020EE200ABCEEC00A10EE100ACD4908809F
:103FC000C84890ED000A5FED3F0A30EEC00A8DED63
:103FD0000F0ADDED0F0A1FED4D0A05F031FC5FED14
:103FE0004E0A20EE200ABCEEC00A10EE100AC0F500
:103FF0008050C1490880BA480088B0F5806F03DC62
:104000004FF48060B6490880B7480088B0F5406F2B
:1040100003DB4FF44060B4490880B4480088B0F531
:10402000406F03DB4FF44060B0490880B04800881F
:10403000B0F5806F03DC4FF48060AD490880AD4877
:104040000088B0F5806F03DC4FF48060A9490880D8
:10405000A9480088B0F5406F03DB4FF44060A649E3
:104060000880A648B0F9000000287CDAA448B0F91E
:1040700000000028F9DAA148B0F9000000EE100AAB
:10408000F8EEC00A9E48B0F9000000EE100AB8EE43
:10409000C00A80EE801A934880ED001A9848B0F963
:1040A000000000EE100AB8EEC00A06F088F9B0EE83
:1040B000408A8C4890ED000A5FED870A30EE200AB6
:1040C0008DED000A9DED000A06F079F9F0EE401A38
:1040D000844890ED000A5FED8E0A30EE200A8DEDE7
:1040E000000A9DED000A06F06AF921EE800A8DEDC6
:1040F000010A0198FCF735FA9FED820B53EC102B67
:10410000CDE902019DED020B51EC100BFCF758F8C4
:10411000CDE904019DED040B51EC100BFCF734FAD2
:1041200006909DED060A05F0B3FC28EE000A8DED21
:10413000070A0798FCF715FA9FED740B53EC102B48
:10414000CDE908019DED080B51EC100BFCF7DFF8F1
:104150009FED700B53EC102BCDE90A019DED0A0B7E
:1041600051EC100B00E0FDE3FCF7D1F89FED6B0B79
:1041700053EC102BCDE90C019DED0C0B51EC100B09
:10418000FCF737F9CDE90E019DED0E0B51EC100B4C
:10419000FCF7AFF900B2634908805948B0F9000054
:1041A00000EE100AB8EEC00A06F009F9B0EE408A37
:1041B0004C4890ED000A5FEDBC0A30EE200A8DED10
:1041C000000A9DED000A06F0FAF8F0EE401A4548A4
:1041D00090ED000A5FEDC40A30EE200A8DED000A72
:1041E0009DED000A06F0EBF821EE800A8DED010A44
:1041F0000198FCF7B6F99FED4C0B53EC102BCDE971
:1042000002019DED020B51EC100BFBF7D9FFCDE93C
:1042100004019DED040B51EC100BFCF7B5F9069071
:104220009DED060A05F034FC28EE000A8DED070A24
:104230000798FCF796F99FED350B53EC102BCDE961
:1042400008019DED080B51EC100BFCF760F89FED99
:10425000310B53EC102BCDE90A019DED0A0B51EC0B
:10426000100BFCF754F89FED2D0B53EC102BCDE900
:104270000C019DED0C0B51EC100BFCF7BAF8CDE9DD
:104280000E019DED0E0B51EC100BFCF732F900B254
:10429000274908801A48B0F9000000EE100AB8EE6D
:1042A000C00A06F08CF8B0EE408A0E4890ED000A85
:1042B0005FEDFA0A30EE200A8DED000A9DED000A4E
:1042C00006F07DF8F0EE401A064890ED000ADFEDAA
:1042D000190A30EE200A8DED000A9DED000A2BE050
:1042E0006C000020300000206E00002070000020D4
:1042F0007200002074000020760000203C000020A6
:10430000400000207E8CB96B09F9E23F7715527EA0
:10431000D2732D400000000000004E40000000005D
:10432000000089409C00002080B74082E2C7883F9F
:104330009E0000205C8F023F06F041F821EE800ACB
:104340008DED010A0198FCF70CF91FED120B53ECEF
:10435000102BCDE902019DED020B51EC100BFBF788
:104360002FFFCDE904019DED040B51EC100BFCF780
:104370000BF906909DED060A05F08AFB28EE000A6F
:104380008DED070A0798FCF7ECF81FED200B53ECB6
:10439000102BCDE908019DED080B51EC100BFBF73C
:1043A000B6FF1FED240B53EC102BCDE90A019DED58
:1043B0000A0B51EC100BFBF7AAFF1FED280B53EC77
:1043C000102BCDE90C019DED0C0B51EC100BFCF703
:1043D00010F8CDE90E019DED0E0B51EC100BFCF722
:1043E00088F800B2FD490880FD48B0F9000000EEF1
:1043F000100AB8EEC00A05F0E2FFB0EE408AF948B4
:1044000090ED000ADFEDF80A30EE600A8DED000A4B
:104410009DED000A05F0D3FFF0EE401AF14890ED53
:10442000000ADFEDF10A30EE600A8DED000A9DED25
:10443000000A05F0C4FF21EE800A8DED010A019803
:10444000FCF78FF81FED510B53EC102BCDE9020157
:104450009DED020B51EC100BFBF7B2FECDE9040110
:104460009DED040B51EC100BFCF78EF806909DEDC2
:10447000060A05F00DFB28EE400A8DED070A0798A5
:10448000FCF76FF81FED5F0B53EC102BCDE9080123
:104490009DED080B51EC100BFBF739FF1FED630B83
:1044A00053EC102BCDE90A019DED0A0B51EC100BDA
:1044B000FBF72DFF1FED670B53EC102BCDE90C0123
:1044C0009DED0C0B51EC100BFBF793FFCDE90E01AA
:1044D0009DED0E0B51EC100BFCF70BF800B2C3492D
:1044E0000880BF48B0F9000000EE100AB8EEC00A1C
:1044F00005F065FFB0EE408ABA4890ED000ADFEDA6
:10450000BC0A30EE600A8DED000A9DED000A05F050
:1045100056FFF0EE401AB34890ED000ADFEDB40A02
:1045200030EE600A8DED000A9DED000A05F047FFB0
:1045300021EE800A8DED010A0198FCF712F81FEDBB
:10454000860B53EC102BCDE902019DED020B51ECD3
:10455000100BFBF735FECDE904019DED040B51EC8A
:10456000100BFCF711F806909DED060A05F090FA85
:1045700028EE400A8DED070A0798FBF7F2FF1FEDC2
:104580009D0B53EC102BCDE908019DED080B51EC70
:10459000100BFBF7BCFE1FEDA10B53EC102BCDE96C
:1045A0000A019DED0A0B51EC100BFBF7B0FE1FED5D
:1045B000A50B53EC102BCDE90C019DED0C0B51EC30
:1045C000100BFBF716FFCDE90E019DED0E0B51EC24
:1045D000100BFBF78EFF00B2864908808048B0F9C7
:1045E000000000EE100AB8EEC00A05F0E8FEB0EEDA
:1045F000408A7C4890ED000A5FEDB20A30EE600A16
:104600008DED000A9DED000A05F0D9FEF0EE401A8E
:10461000744890ED000A5FEDB90A30EE600A8DED46
:10462000000A9DED000A05F0CAFE21EE800A8DED1C
:10463000010A0198FBF795FF1FEDCE0B53EC102BF1
:10464000CDE902019DED020B51EC100BFBF7B8FD1B
:10465000CDE904019DED040B51EC100BFBF794FF29
:1046600006909DED060A05F013FA28EE400A8DED3E
:10467000070A0798FBF775FF1FEDDC0B53EC102BB7
:10468000CDE908019DED080B51EC100BFBF73FFE47
:104690001FEDE00B53EC102BCDE90A019DED0A0B49
:1046A00051EC100BFBF733FE1FEDE40B53EC102B1A
:1046B000CDE90C019DED0C0B51EC100BFBF799FEB5
:1046C000CDE90E019DED0E0B51EC100BFBF711FF28
:1046D00000B249490880434890ED000ADFED440AE2
:1046E000B4EEE00AF1EE10FA76DD90ED000ADFEDAF
:1046F0003E0A30EE200A8DED0F0ADDED0F0A9FED28
:104700003F0A05F09DF8DFED3E0A20EE200ABCEEE0
:10471000C00A10EE100AC0F500603A49088031481E
:1047200090ED000ADFED320A30EE200A8DED0F0A1F
:10473000DDED0F0A9FED340A05F082F8DFED300A57
:1047400020EE200ABCEEC00A10EE100AC0F5006090
:104750002E490880234890ED000ADFED2D0A30EE47
:10476000200A8DED0F0ADDED0F0A9FED240A05F0FA
:1047700067F8DFED230A20EE200ABCEEC00A10EE37
:10478000100A00F5006023490880164890ED000AE1
:10479000DFED150A30EE600A8DED0F0ADDED0F0A30
:1047A0009FED160A05F04CF8DFED150A20EE200A01
:1047B000BCEEC00A10EE100AC0F500601649088071
:1047C000084890ED000ADFED0A0A30EE600A8DED30
:1047D0000F0ADDED0F0A21E04BE00000A0000020F1
:1047E0004000002030000020E17A943EA20000202A
:1047F0003333333FA4000020A6000020B81E453FFD
:1048000084F922446C000020AE47E13D6E00002098
:104810005C8F023F70000020720000201FED060A2E
:1048200005F00EF85FED0A0A20EE200ABCEEC00A81
:1048300010EE100AC0F50060FC490880FC4890EDBD
:10484000000A5FED0D0A30EE600A8DED0F0ADDED16
:104850000F0A1FED160A04F0F3FF5FED170A20EEB2
:10486000200ABCEEC00A10EE100A00F50060F14903
:104870000880EF4890ED000A5FED230AB4EEE00AED
:10488000F1EE10FA6FD290ED000A5FED1F0AB4EE60
:10489000E00AF1EE10FA66DD90ED000A5FED2E0AF7
:1048A00030EE200A8DED0F0ADDED0F0A1FED2D0A07
:1048B00004F0C6FF5FED2E0A20EE200ABCEEC00A0F
:1048C00010EE100AC0F50060DB490880D84890ED72
:1048D000000A5FED390A30EE200A8DED0F0ADDED9A
:1048E0000F0A1FED370A04F0ABFF5FED3B0A20EE25
:1048F000200ABCEEC00A10EE100AC0F50060CF49D5
:104900000880CB4890ED000A5FED3F0A30EE200AA8
:104910008DED0F0ADDED0F0A1FED480A04F090FF40
:104920005FED490A20EE200ABCEEC00A10EE100A24
:1049300000F50060C2490880BD4890ED000A5FEDB7
:10494000560A30EE600A8DED0F0ADDED0F0A1FEDFD
:10495000550A04F075FF5FED560A20EE200ABCEE02
:10496000C00A01E01BE139E010EE100AC0F500605A
:10497000B4490880AE4890ED000A5FED630A30EE5E
:10498000C00A8DED0F0ADDED0F0A1FED610A04F07C
:1049900057FF5FED650A20EE200ABCEEC00A10EE5C
:1049A000100AA2490880A24890ED000A5FED680A4B
:1049B00030EE600A8DED0F0ADDED0F0A1FED710A72
:1049C00004F03EFF5FED720A20EE200ABCEEC00A42
:1049D00010EE100A00F5006096490880944890EDAA
:1049E000000A5FED750AB4EEE00AF1EE10FA7AD231
:1049F00090ED000A5FED840A30EE200A8DED0F0A7B
:104A0000DDED0F0A1FED830A04F01AFF5FED840A43
:104A100020EE200ABCEEC00A10EE100AC0F50060BD
:104A200085490880824890ED000A5FED8F0A30EEDC
:104A3000200A8DED0F0ADDED0F0A1FED8D0A04F03F
:104A4000FFFE5FED910A20EE200ABCEEC00A10EED8
:104A5000100AC0F5006079490880754890ED000A99
:104A60005FED950A30EE200A8DED0F0ADDED0F0A9D
:104A70001FED9E0A04F0E4FE5FED9F0A20EE200A7F
:104A8000BCEEC00A10EE100A00F500606C49088008
:104A9000674890ED000A5FEDAC0A30EE600A8DEDDC
:104AA0000F0ADDED0F0A1FEDAB0A04F0C9FE5FED42
:104AB000AC0A20EE200ABCEEC00A10EE100AC0F5C7
:104AC0000060604908805A4890ED000A5FEDB80A1E
:104AD00030EEC00A8DED0F0ADDED0F0A1FEDB60AAC
:104AE00004F0AEFE00E024E05FEDBB0A20EE200AF9
:104AF000BCEEC00A10EE100A4C4908804C4890EDFC
:104B0000000A5FEDBD0A30EEC00A8DED0F0ADDED43
:104B10000F0A1FEDC60A04F093FE5FEDC70A20EEF0
:104B2000200ABCEEC00A10EE100AC0F580504149C0
:104B3000088041480088B0F5806F03DC4FF4806046
:104B40003D4908803D480088B0F5406F03DB4FF4D5
:104B500040603A4908803A480088B0F5406F03DB6E
:104B60004FF440603649088036480088B0F5806FC1
:104B700003DC4FF48060334908802C480088B0F58E
:104B8000806F03DC4FF48060284908802948008842
:104B9000B0F5406F75DB4FF440602649088070E047
:104BA00029480088A0F57A7000EE100AB8EEC00A15
:104BB0008DED0F0A9DED0F0A05F001FCF3EE040ADE
:104BC000B4EEE00AF1EE10FA4ED820480088A0F5C5
:104BD0007A7000EE100AB8EEC00A8DED0F0A9DED56
:104BE0000F0A05F0ECFBF3EE040AB4EEE00AF1EE76
:104BF00010FA39D80020164908801649088016494D
:104C000008801649088016490880164908804FF424
:104C10000060094908800949088009490880094954
:104C2000088002490880034908802AE074000020B7
:104C300030000020760000206C0000206E00002074
:104C40007000002072000020080100200C010020EC
:104C50009C0000209E000020A0000020A200002058
:104C6000A4000020A6000020002008490880084970
:104C700008800849088008490880084908800849D0
:104C8000088011B0BDEC028B00BD00009C0000202C
:104C90009E000020A0000020A2000020A400002010
:104CA000A600002000BFFEE77047000070B500219D
:104CB00000230F22C4781CB3174C246804F4E0646A
:104CC000C4F5E064C4F30721C1F10404E3B20A416E
:104CD00044789C40E1B28478144021430C07210EB3
:104CE0000E4C05786155047804F01F050124AC4092
:104CF00005786D11AD0005F1E025C5F8004109E02A
:104D0000047804F01F050124AC40054D06787611A7
:104D100045F8264070BD00000CED00E000E400E026
:104D200080E100E002490143024A1160704700003F
:104D30000000FA050CED00E000B52DED028B87B008
:104D4000FD4890ED000AB5EEC00AF1EE10FA2CD144
:104D5000FA4890ED000AB5EEC00AF1EE10FA24D13F
:104D6000F74890ED000AB5EEC00AF1EE10FA1CD13A
:104D70000020F4490880F4490880F4490880F44987
:104D80000880F4490880F44908804FF40060F34932
:104D90000880F3490880F3490880F3490880F34903
:104DA0000880F349088002F0D7BCE34890ED000A80
:104DB000B5EEC00AF1EE10FA79D0E04890ED000AA5
:104DC000B5EEC00AF1EE10FA71D1DD4890ED000A9F
:104DD000B5EEC00AF1EE10FA69D1D74890ED000A9D
:104DE000B1EE400ADFEDE30A20EE200ABDEEC00A74
:104DF00010EE100A00B2D3490880CF4890ED000AA7
:104E0000B1EE400ADFEDDB0A20EE200ABDEEC00A5B
:104E100010EE100A00B2CC490880C74890ED000A95
:104E2000B1EE400ADFEDD30A20EE200ABDEEC00A43
:104E300010EE100A00B2C5490880BF4890ED000A84
:104E4000DFEDCC0A20EE200ABDEEC00A10EE100AFB
:104E500000B2BF490880B84890ED000ADFEDC50AEE
:104E600020EE200ABDEEC00A10EE100A00B2B949C9
:104E70000880B14890ED000ADFEDBE0A20EE200A5E
:104E8000BDEEC00A10EE100A00B2B34908804FF41C
:104E90000060B2490880B2490880B2490880B2492E
:104EA0000880B2490880B24908807CE7FFE7A24841
:104EB00090ED000AB5EEC00AF1EE10FA7ED19F48DF
:104EC00090ED000AB5EEC00AF1EE10FAF6D19C485A
:104ED00090ED000AB5EEC00AF1EE10FA6ED09FED2B
:104EE000A60A04F0D5FDB0EE408A9FEDA40A04F0B6
:104EF000CFFDC8EE000A924890ED000A20EE800A2D
:104F0000DFED9C0A20EE200ABDEEC00A10EE100A6A
:104F100000B28C4908808A4890ED000ADFED950ABE
:104F200020EE200ABDEEC00A10EE100A00B286493B
:104F300008809FED930A04F0ABFDB0EE408A9FED30
:104F40008F0A04F0A5FDC8EE000A7D4890ED000A26
:104F500020EE800ADFED870A20EE200ABDEEC00AAF
:104F600010EE100A00B2794908809FED850A04F01E
:104F70008FFDB0EE408A9FED810A04F089FDC8EEF6
:104F8000000A6F4890ED000A20EE800ADFED790AF2
:104F900020EE200ABDEEC00A10EE100A00B26C49E5
:104FA0000880674890ED000ADFED720A20EE200AC3
:104FB000BDEEC00A10EE100A00B200E011E1654932
:104FC00008809FED6F0A04F063FDB0EE408A9FED0C
:104FD0006B0A04F05DFDC8EE000A594890ED000A26
:104FE00020EE800ADFED630A20EE200ABDEEC00A43
:104FF00010EE100A00B2584908809FED621B9FED29
:10500000630B04F025FB8DED020B9FED620B53EC5F
:10501000102B9DED020B51EC100BFBF778F9CDE94D
:1050200004019DED040B51EC100BFBF781FA00F528
:1050300080604A4908809FED591B9FED5A0B04F090
:1050400007FB8DED020B9FED530B53EC102B9DEDE9
:10505000020B51EC100BFBF75AF9CDE904019DED61
:10506000040B51EC100BFBF763FA00F580603C4930
:1050700008809FED441B9FED4D0B04F0E9FA8DED88
:10508000020B9FED440B53EC102B9DED020B51ECEA
:10509000100BFBF73CF9CDE904019DED040B51EC3D
:1050A000100BFBF745FAC0F540602E4908809FEDD4
:1050B000351B9FED360B04F0CBFA8DED020B9FED07
:1050C000350B53EC102B9DED020B51EC100BFBF745
:1050D0001EF9CDE904019DED040B51EC100BFBF71B
:1050E00027FAC0F54060204908809FED2C1B9FEDFA
:1050F0002D0B04F0ADFA8DED020B9FED260B53EC5A
:10510000102B9DED020B51EC100BFBF700F9CDE9D4
:1051100004019DED040B51EC100BFBF709FAC0F5EF
:105120004060124908809FED171B9FED200B04F093
:105130008FFA8DED020B3DE060000020640000203E
:10514000680000209C0000209E000020A00000209D
:10515000A2000020A4000020A60000206C00002077
:105160006E000020700000207200002074000020FB
:105170007600002000009643DF4F2D3FA089003FBE
:10518000355E5A3FA4703D0AD7A3E83F8FC2F52889
:105190005C8FD23FC971A774305F8440295C8FC295
:1051A000F528BC3F666666666666E63F52B81E85B1
:1051B000EB51E03F1FED090B53EC102B9DED020B63
:1051C00051EC100BFBF7A3F8CDE904019DED040BA6
:1051D00051EC100BFBF7ACF900F58060FE4908803C
:1051E000E1E5FE4890ED000AB5EEC00AF1EE10FAD6
:1051F00002F03682FA4890ED000AB5EEC00AF1EEF0
:1052000010FA42F02D82F74890ED000AB5EEC00A80
:10521000F1EE10FAECD0F14890ED000AB5EEC00ABC
:10522000F1EE10FA7CDDEF4890ED000AB5EEC00A11
:10523000F1EE10FAF6DDE94890ED000AE948D0ED0C
:10524000000A80EE201AE84880ED001AE54890ED4B
:10525000000A05F0B4F8B0EE408AE34890ED000A89
:10526000DFEDE20A30EE600A8DED000A9DED000AE6
:1052700005F0A5F8F0EE401ADB4890ED000ADFEDEE
:10528000DB0A30EE600A8DED000A9DED000A05F0A4
:1052900096F821EE800A8DED010A0198FBF761F97D
:1052A0009FEDD30B53EC102BCDE902019DED020BCA
:1052B00051EC100BFAF784FFCDE904019DED040BCE
:1052C00051EC100BFBF760F906909DED060A04F017
:1052D000DFFB28EE400A5FED590A20EE200ABDEE02
:1052E000C00A10EE100A00B2C3490880BD4890ED14
:1052F000000A05F064F8B0EE408ABB4890ED000A61
:10530000DFEDBE0A30EE600A8DED000A9DED000A69
:1053100005F055F8F0EE401AB34890ED000A00E0B1
:10532000F9E3DFEDB60A30EE600A8DED000A9DED7F
:10533000000A05F044F821EE800A8DED010A01987B
:10534000FBF70FF99FEDAE0B53EC102BCDE90201EB
:105350009DED020B51EC100BFAF732FFCDE9040181
:105360009DED040B51EC100BFBF70EF906909DED33
:10537000060A04F08DFB28EE400A5FED820A20EE5B
:10538000200ABDEEC00A10EE100A00B29E49088045
:10539000944890ED000A05F012F8B0EE408A924869
:1053A00090ED000ADFED990A30EE600A8DED000AFB
:1053B0009DED000A05F003F8F0EE401A8A4890EDE2
:1053C000000ADFED920A30EE600A8DED000A9DEDD5
:1053D000000A04F0F4FF21EE800A8DED010A019825
:1053E000FBF7BFF89FED820B53EC102BCDE90201C8
:1053F0009DED020B51EC100BFAF7E2FECDE9040132
:105400009DED040B51EC100BFBF7BEF806909DEDE3
:10541000060A04F03DFB28EE400A5FEDAA0A20EEE2
:10542000200ABDEEC00A10EE100A00B278490880CA
:105430006C4890ED000A04F0C2FFB0EE408A6A4862
:1054400090ED000ADFED690A30EE200A8DED000ACA
:105450009DED000A04F0B3FFF0EE401A624890EDB3
:10546000000ADFED620A30EE200A8DED000A9DEDA4
:10547000000A04F0A4FF21EE800A8DED010A0198D4
:10548000FBF76FF89FED5A0B53EC102BCDE902019F
:105490009DED020B51EC100BFAF792FECDE90401E1
:1054A0009DED040B51EC100BFBF76EF806909DED93
:1054B000060A04F0EDFA28EE000A5FEDD20A20EEAB
:1054C000200ABDEEC00A10EE100A00B25149088051
:1054D000444890ED000A04F072FFB0EE408A424862
:1054E00090ED000ADFED450A30EE200A8DED000A4E
:1054F0009DED000A04F063FFF0EE401A3A4890ED8B
:10550000000ADFED3E0A30EE200A8DED000A9DED27
:10551000000A04F054FF21EE800A8DED010A019883
:10552000FBF71FF89FED360B53EC102BCDE9020172
:105530009DED020B51EC100BFAF742FECDE9040190
:105540009DED040B51EC100BFBF71EF806909DED42
:10555000060A04F09DFA28EE000A5FEDFA0A20EE32
:10556000200ABDEEC00A10EE100A00B22A490880D7
:105570001C4890ED000A04F022FFB0EE408A1A4861
:1055800090ED000ADFED210A30EE200A8DED000AD1
:105590009DED000A04F013FFF0EE401A124890ED62
:1055A000000ADFED1A0A30EE200A8DED000A9DEDAB
:1055B000000A04F004FF21EE800A8DED010A019833
:1055C000FAF7CFFF9FED0A0B53EC102BCDE9020148
:1055D0009DED020B22E0000076000020600000201C
:1055E000640000206800002030000020E17A943E32
:1055F0007E8CB96B09F9E23F9C0000203333333FC6
:1056000080B74082E2C7883F9E0000205C8F023F47
:10561000A0000020A2000020A400002051EC100BEC
:10562000FAF7CEFDCDE904019DED040B51EC100B12
:10563000FAF7AAFF06909DED060A04F029FA28EE73
:10564000000ADFEDFC0A20EE200ABDEEC00A10EED3
:10565000100A00B2F8490880F84890ED000A5FEDA2
:10566000190AB4EEE00AF1EE10FA7CDD90ED000AC2
:105670005FED220A30EE600A8DED060ADDED060AC6
:105680009FEDEF0A04F0DCF8DFEDEE0A20EE200AD1
:10569000BCEEC00A10EE100A00F50060EA4908806E
:1056A000E64890ED000A5FED2B0A30EE600A8DEDC2
:1056B000060ADDED060A9FEDE50A04F0C1F8DFED0C
:1056C000E10A20EE200ABCEEC00A10EE100A00F536
:1056D0000060DF490880D94890ED000A5FED350A87
:1056E00030EE600A8DED060ADDED060A9FEDD40A64
:1056F00004F0A6F8DFEDD30A20EE200ABCEEC00AC3
:1057000010EE100AC0F50060D2490880CB4890ED39
:10571000000A5FED4A0A30EE200A8DED060ADDED43
:10572000060A9FEDC70A04F08BF8DFEDC60A20EEEB
:10573000200ABCEEC00A10EE100A00F50060C6494F
:105740000880BE4890ED000A5FED540A30EE200A52
:105750008DED060ADDED060A9FEDBC0A04F070F837
:10576000DFEDB80A00E024E020EE200ABCEEC00A1B
:1057700010EE100A00F50060B8490880AF4890EDBF
:10578000000A5FED5E0A30EE200A8DED060ADDEDBF
:10579000060A9FEDAB0A04F053F8DFEDAA0A20EEEB
:1057A000200ABCEEC00A10EE100AC0F50060AC4939
:1057B0000880A24890ED000A5FED700AB4EEE00A9E
:1057C000F1EE10FA7DD890ED000A5FED700AB4EEAC
:1057D000E00AF1EE10FA74DD90ED000A5FED7D0A4B
:1057E00030EE600A8DED060ADDED060A9FED940AA3
:1057F00004F026F8DFED930A20EE200ABCEEC00A82
:1058000010EE100A00F500608F4908808B4890ED7B
:10581000000A5FED860A30EEC00A8DED060ADDED66
:10582000060A9FED8A0A04F00BF8DFED860A20EEE7
:10583000200ABCEEC00A10EE100AC0F58050844960
:1058400008807E4890ED000A5FED900A30EE600A15
:105850008DED060ADDED060A9FED790A03F0F0FFF3
:10586000DFED780A20EE200ABCEEC00A10EE100A26
:10587000C0F5006077490880704890ED000A5FED40
:10588000A50A30EE200A8DED060ADDED060A9FED31
:105890006C0A03F0D5FFDFED6B0A20EE200ABCEEA8
:1058A000C00A10EE100A00F500606B4908806348DA
:1058B00090ED000A5FEDAF0A30EE200A8DED060A8A
:1058C00000E02CE0DDED060A9FED600A03F0B8FF72
:1058D000DFED5C0A20EE200ABCEEC00A10EE100AD2
:1058E00000F500605D490880544890ED000A5FEDC6
:1058F000B90A30EE200A8DED060ADDED060A9FEDAD
:10590000500A03F09DFFDFED4F0A20EE200ABCEEA7
:10591000C00A10EE100AC0F50060514908804748DF
:1059200090ED000A5FEDC70AB4EEE00AF1EE10FA5E
:105930007ED890ED000A5FEDD30A30EE600A8DED5F
:10594000060ADDED060A9FED3E0A03F079FFDFED62
:105950003D0A20EE200ABCEEC00A10EE100A00F547
:10596000006039490880354890ED000A5FEDDD0A96
:1059700030EEC00A8DED060ADDED060A9FED330A12
:1059800003F05EFFDFED2F0A20EE200ABCEEC00A16
:1059900010EE100AC0F580502D490880274890ED80
:1059A000000A5FEDE60A30EEC00A8DED060ADDED75
:1059B000060A9FED230A03F043FFDFED220A20EEE3
:1059C000200ABCEEC00A10EE100A224908801B48CB
:1059D00090ED000A5FEDFB0A30EE200A8DED060A1D
:1059E000DDED060A9FED160A03F02AFFDFED150A2A
:1059F00020EE200ABCEEC00A10EE100A00F500608E
:105A0000154908800D4890ED000ADFED160A30EECA
:105A1000200A8DED060ADDED060A9FED0C0A03F063
:105A20000FFFDFED080A20EE200ABCEEC00A1BE0E3
:105A30003BE0000000009643A6000020300000205C
:105A4000B81E453F84F922446C000020AE47E13D7A
:105A50006E00002070000020720000207400002002
:105A6000760000203333333F10EE100A00F500605B
:105A7000FE490880FE4890ED000ADFEDFE0A30EE98
:105A8000200A8DED060ADDED060A1FED130A03F06C
:105A9000D7FE5FED140A20EE200ABCEEC00A10EE1D
:105AA000100AC0F50060F4490880F4480088B0F599
:105AB000406F03DB4FF44060F0490880F0480088F5
:105AC000B0F5406F03DB4FF44060ED490880ED48CE
:105AD0000088B0F5806F03DC4FF48060E9490880EE
