:020000040800F2
:1000000060080020A1010008B14B00087910000829
:10001000AD4B0008C1090008139000080000000063
:100020000000000000000000000000007D7B0008D0
:10003000C509000800000000B1760008158200081C
:10004000BB010008BB010008BB010008BB010008A0
:10005000BB010008BB010008BB010008BB01000890
:10006000BB010008BB010008BB010008BB01000880
:10007000BB010008BB010008BB010008BB01000870
:10008000BB010008BB010008BB010008BB01000860
:10009000BB010008BB010008BB010008BB01000850
:1000A000BB010008BB010008BB010008BB01000840
:1000B000BB010008BB010008B5830008BB010008B4
:1000C000BB010008BB010008BB010008BB01000820
:1000D000BB0100082D880008598900088D8A000896
:1000E000BB010008BB010008BB010008BB01000800
:1000F000BB010008BB010008BB010008BB010008F0
:10010000BB010008BB010008BB010008BB010008DF
:1001100045850008C1860008BB010008BB01000836
:10012000BB010008BB010008BB010008BB010008BF
:10013000BB010008BB010008BB010008BB010008AF
:10014000BB010008BB010008BB010008BB0100089F
:10015000BB010008BB010008BB010008098C0008B6
:10016000BB010008BB010008BB010008BB0100087F
:10017000BB010008BB010008BB010008BB0100086F
:10018000BB010008BB010008DFF810D000F028FB1D
:1001900000480047E59F0008AFF30080600800209A
:1001A0000648804706480047FEE7FEE7FEE7FEE711
:1001B000FEE7FEE7FEE7FEE7FEE7FEE74D83000809
:1001C000890100082DE9FE4F804681EA0300C00F37
:1001D0000C46009021F0004123F00045B8EB0200EE
:1001E000A94105D24046214690461C460B46024690
:1001F00023F00040104347D0270DC7F30A00C3F394
:100200000A510290401A019040286BDAC3F31300A0
:1002100040F4801B0098924620B10023D2EB030AE1
:1002200063EB0B0B01985946C0F14002504600F0B9
:10023000FAF906460D4650465946019A00F012FA60
:1002400010EB08006141002487EA115284EAE77349
:100250001A4340D0009A62B3019A012A4FEA07522A
:1002600015DC001B61EB02014FF0004202EA07526D
:10027000CDE90042001C41F5801132462B4600F0CA
:1002800049FA03B0BDE8F08F40462146F9E7001B6C
:1002900061EB0201001C41F5801300185B4120183E
:1002A000A2F5001747EB030140EAD570B6196D417E
:1002B00011E06D084FEA360645EAC0754FEA07526D
:1002C000001B61EB0201001C41F5801149084FEA57
:1002D00030000019514132462B4603B0BDE8F04FC3
:1002E00000F009BA0098012240000023D0EB02027E
:1002F00063EBE073009821464FEAE074B8EB00002E
:1003000061EB0401E9E783F000435BE781F0004122
:1003100058E72DE9FE4F81EA030404F0004421F080
:10032000004100944FF0000B23F0004350EA010419
:100330005ED052EA03045BD0C3F30A54C1F30A55FA
:100340002C44A4F2F3340194A0FB0254C1F3130132
:1003500041F48011C3F3130343F4801301FB0244FF
:1003600000FB034E840A970A44EA815447EA835704
:10037000A4FB076802958D0A05FB07854FEA932CBD
:1003800004FB0C542705029D4FEA065847EA16372E
:10039000B5EB08056EEB070C870E920E47EA811746
:1003A00042EA8312A7FB0201B6EB0B0164EB0004E7
:1003B0002B0D43EA0C335E1844EB1C50DA465146D1
:1003C000E7FB0201C5F313044FEA0B3343EA14536E
:1003D0004FEA0432019C43EA0603A4F10C040294A0
:1003E000009CCDE900B400F095F903B0BDE8F08FB2
:1003F00000200146F9E72DE9F04D81EA030404F0FD
:10040000004B21F0004514464FF0000A23F0004154
:1004100050EA050220D054EA01021DD0C5F30A5764
:100420000246C5F31303C1F31300C1F30A5640F4A7
:10043000801543F48013A7EB0608101BD64608F27C
:10044000FD3873EB050002D308F1010801E09218B2
:100450005B41B8F1000F03DA00200146BDE8F08DE2
:1004600000204FF48011064684460EE0171B73EB04
:10047000050705D3121B63EB050306434CEA010C89
:1004800049084FEA300092185B4150EA0107EDD16C
:1004900052EA030012D082EA040083EA050108430D
:1004A00005D0101BAB4106D20122002306E000223A
:1004B0004FF0004302E06FF0010253101AEB060008
:1004C0004CEB085110EB0A0041EB0B01BDE8F04D7D
:1004D00000F011B90EB5C10F80EAE0700844CA07F8
:1004E000002140F233438DE80E000A460B4600F02F
:1004F00011F903B000BD70B5C1F30A5201F0004517
:100500000024C1F3130140F2FF3341F480119A42F9
:1005100001DA002070BD40F233439A42A2F2334226
:1005200003DC524200F08EF800E090402C43F1D002
:10053000404270BDC1F30A5210B5C1F3130140F23D
:10054000FF3341F480119A4201DA002010BD40F2DD
:1005500033439A42A2F2334203DC524200F072F873
:1005600010BD904010BD00F0004230F000400AD0B5
:10057000C10D01F56071C0F3160042EA0151C208D5
:1005800040071143704700200146704701F00043C7
:1005900030B421F0004150EA010206D00A0DA2F564
:1005A0006072C1F31301002A02DC30BC00207047E6
:1005B000440F44EAC104C100E01830BC00EBC25053
:1005C00000F062B82DE9F05F0546002092469B4698
:1005D00088460646814640241BE028464146474659
:1005E000224600F02FF853465A46C01A914110D3C4
:1005F00011461846224600F016F82D1A67EB01083E
:100600004F4622460120002100F00DF817EB0009AB
:100610004E41201EA4F10104DFDC484631462A4643
:100620004346BDE8F09F202A04DB203A00FA02F19D
:10063000002070479140C2F1200320FA03F31943D0
:1006400090407047202A04DB203A21FA02F0002172
:10065000704721FA02F3D040C2F1200291400843D2
:1006600019467047202A06DBCB17203A41FA02F0E0
:1006700043EAE07306E041FA02F3D040C2F12002FF
:1006800091400843194670470029A8BF7047401C95
:10069000490008BF20F00100704710B4B0FA80FC98
:1006A00000FA0CF050EA010404BF10BC704749B1D5
:1006B000CCF1200421FA04F411FA0CF118BF012145
:1006C00021430843A3EB0C01CB1D4FEA00614FEA25
:1006D000102042BF002010BC704700EBC3501044F4
:1006E0000029A4BF10BC7047401C490008BF20F07F
:1006F000010010BC704710B5141E73F1000408DA35
:10070000401C41F1000192185B411A4301D120F0D5
:10071000010010BD2DE9F04D92469B4611B1B1FA92
:1007200081F202E0B0FA80F220329046FFF77BFFC0
:1007300004460F4640EA0A0041EA0B0153465A4676
:10074000084313D0114653EA010019D0C8F1400202
:100750005046FFF777FF05460E465046594642463B
:10076000FFF761FF084305D0012004E02046394629
:10077000BDE8F08D0020054346EAE0762C43374380
:100780000A986305E40AA0EB08000022FD0A44EA87
:1007900047540A3002D500200146E9E70105101947
:1007A0006941DDE9084500196941BDE8F04DA2E75E
:1007B00030B5041E71F1000404DB4FF000444042E8
:1007C00064EB0101141E73F1000405DB1C464FF0BD
:1007D0000043524263EB04038B4208BF824230BDA8
:1007E000064C074D06E0E06840F0010394E807007E
:1007F00098471034AC42F6D3FFF7CAFC9CB500080A
:10080000BCB5000870B58C1810F8015B15F0070333
:1008100001D110F8013B2A1106D110F8012B03E099
:1008200010F8016B01F8016B5B1EF9D12B0705D4A1
:100830000023521E0DD401F8013BFAE710F8013BEA
:10084000CB1A921C03E013F8015B01F8015B521E06
:10085000F9D5A142D8D3002070BD000010B53D48A5
:10086000007810B1102857D111E09FED3B0A3B48AA
:1008700080ED000A9FED380A394880ED000A9FEDAF
:10088000360A384880ED000A00F016FC60E04FF4AC
:100890007A703549088035490880354908803548DF
:1008A000C088354908803348408934490880314838
:1008B0008089334908803348007801280CD13248B8
:1008C0000078401C3049087000F05CFA04F0B8F978
:1008D00000202C4908701EE02C48007801281AD10D
:1008E00000202B4908802B4908802B4908802B4980
:1008F00008802B4908802B4908804FF400602A4962
:1009000008802A4908802A4908802A4908802A49FB
:1009100008802A4908801BE000201D4908801D49E5
:1009200008801D4908801D4908801D4908801D490F
:1009300008804FF400601C4908801C4908801C494D
:1009400008801C4908801C4908801C49088000BF99
:1009500000BF10BDF8000020000000005000002083
:100960005400002058000020EC000020EE00002081
:10097000F00000201A040020F2000020F400002003
:10098000F60000204F000020280000200E0000206C
:1009900080000020820000208400002086000020CB
:1009A000880000208A0000205C0000205E000020FB
:1009B000600000206200002064000020660000202B
:1009C00000BFFEE7704700001CB50121082006F0BB
:1009D00071FE0121022006F06DFE0121102006F0BB
:1009E00069FE8020009001208DF8040000208DF821
:1009F000060003208DF8050001208DF807006946E8
:100A00001A4800F039F88021184800F0A0F84FF497
:100A10007E70009001208DF8040000208DF8060003
:100A200003208DF8050001208DF807006946104865
:100A300000F022F84FF47E710D4800F088F8032092
:100A4000009001208DF8040000208DF8060003209E
:100A50008DF8050001208DF807006946054800F073
:100A60000BF80321034800F072F81CBD000C024093
:100A70000004024000100240F0B50A4600210023A5
:100A8000002400BF3DE0012505FA01F3156805EAE1
:100A900003049C4234D105684F000326BE40B54391
:100AA000056015794E00B540066835430560157937
:100AB000012D02D01579022D16D185684F0003262D
:100AC000BE40B543856055794E00B54086683543D4
:100AD0008560456801268E40B54345604568967936
:100AE0008E40B6B235434560C5684F000326BE4010
:100AF000B543C560D5794E00B540C6683543C5607D
:100B0000491C1029BFD3F0BDF0B5002300244D07C8
:100B1000ED0E02FA05F3CE1000F1200555F826502F
:100B20004E07F70E0F26BE40B543CF1000F120064A
:100B300046F82750CE1000F1200555F8265045EA1A
:100B40000304CE1000F1200545F82640F0BD0183D6
:100B5000704700001E480078012837D11D480078F2
:100B6000DD2833D11B48807880BB1A4890F82100DB
:100B700077282BD1174800791749487015484079D4
:100B8000087008460178407801EB0020134908807E
:100B900010488079124948700E48C079087008469C
:100BA0000178407801EB00200E4908800948C07D9B
:100BB0000D4908700748007D0C4948700548407D84
:100BC0000870002003490870014908707047000050
:100BD000FD0000203C040020050100200801002049
:100BE0000A0100200C0100200E0100200F0100204E
:100BF0002748007801284AD1264800785A2846D14B
:100C0000244840780E2842D12248407B69283ED1B2
:100C10002048C079072835D2DFE800F034040C14EE
:100C20001C242C001B48C178807801EB00201A4955
:100C3000088028E01748C178807801EB0020174928
:100C4000088020E01348C178807801EB0020144927
:100C5000088018E00F48C178807801EB0020114926
:100C6000088010E00B48C178807801EB00200E4925
:100C7000088008E00748C178807801EB00200B4924
:100C8000088000E000BF00BF0020014908707047E5
:100C9000CB000020F1030020CC000020CE0000207B
:100CA000D0000020D2000020D4000020D600002078
:100CB0002C480078012853D12B4800785A284FD16E
:100CC000294880780A284BD12748C078002847D186
:100CD00025484078072841D2DFE800F040040E188C
:100CE000222C36002048C0791F49897900EB012069
:100CF00000B21E49088032E01B48C0791A49897940
:100D000000EB012000B21A49088028E01648C0799B
:100D10001549897900EB012000B2164908801EE0D0
:100D20001148C0791049897900EB012000B21249BD
:100D3000088014E00C48C0790B49897900EB012048
:100D400000B20E4908800AE00748C079064989794F
:100D500000EB012000B20A49088000E000BF00BF9C
:100D6000704700007F000020A103002072000020D7
:100D70007400002076000020780000207A00002017
:100D80007C00002011480078AA281ED10F48407826
:100D900055281AD10D4880780F2816D101200C490A
:100DA000087000200B4908800B4908700B48074960
:100DB000D1F8061001600A480449D1F80A10016010
:100DC00008480249D1F80E10016070475E03002008
:100DD000360000200C0000200E00002050000020F3
:100DE00054000020580000209848007801287CD149
:100DF00097480078012879D19648C07D10B1102815
:100E000075D1FBE0934800780F2871D19148407864
:100E10009049897840EA0120C0F30A008E49488051
:100E20008C488078C0108B49C97840EA4110C0F3E3
:100E30000A00894988808748C078801185490979E6
:100E400040EA81008349497940EA8120C0F30A00E1
:100E50008149C8807F48407940107E49897940EABD
:100E6000C110C0F30A007C4908817A4880790011DA
:100E70007849C97940EA0110C0F30A0076494881EF
:100E80007448C079C0117349097A40EA4100714938
:100E9000497A40EA4120C0F30A006F4988816D48D1
:100EA000407A80106B49897A40EA8110C0F30A00C9
:100EB0006949C8816748807A40116649C97A40EA21
:100EC000C100654908826348007B6249497B40EA6A
:100ED0000120C0F30A00604948825E48407BC01090
:100EE0005C49897B40EA411003E09EE0ADE09AE076
:100EF00073E0C0F30A00584988825648807B80110D
:100F00005449C97B40EA81005249097C40EA81206A
:100F1000C0F30A005049C8824E48007C40104D4939
:100F2000497C40EAC110C0F30A004B490883494894
:100F3000407C00114749897C40EA0110C0F30A0057
:100F4000454948834348807CC0114249C97C40EAF6
:100F500041004049097D40EA4120C0F30A003E4972
:100F600088833C48007D80103A49497D40EA8110E1
:100F7000C0F30A003849C8833648407D40113549DE
:100F8000897D40EAC10034490884084640883349D5
:100F9000088031488088324908802F4800893149CB
:100FA00008802D48C088304908802B4840892F4947
:100FB0000880294880892E4908802648C07D2D490F
:100FC0000870012023490870002021490870214938
:100FD000087048708870C8700FE01E48007860B9CB
:100FE0001C48407848B94FF47A701C4908801C4965
:100FF00008801C4908801C49088015E04FF47A706D
:101000001649088016490880164908801248C08889
:101010001549088010484089144908800E48808985
:101020001349088000E000BF0FE010200949C8758F
:101030000846C07D0F49087000200849088008490B
:10104000088008490880084908807047F900002096
:10105000EB000020000400201A040020F000002013
:10106000EC000020EE000020F2000020F400002040
:10107000F6000020F800002000BFFEE71CB50121AB
:10108000084606F017FB3020009001208DF8040080
:1010900000208DF8060003208DF8050001208DF852
:1010A000070069460348FFF7E7FC30210148FFF7D6
:1010B0004EFD1CBD0000024000B52DED028B91B02D
:1010C000FE48008828BBFE48008810BBFD48008809
:1010D000F8B9FD480088E0B90020FC490880FC49C7
:1010E0000880FC490880FC490880FC490880FC49CC
:1010F00008804FF40060FB490880FB490880FB49E9
:101100000880FB490880FB490880FB49088003F000
:101110003CBDEB480088A0F57A7000EE100AB8EEEE
:10112000C00A8DED0F0A9DED0F0A09F012F8F3EEDB
:10113000040AB4EEE00AF1EE10FA7CDDE048008823
:10114000A0F57A7000B2ED4908800846B0F90000B9
:10115000FFF7C0F99FEDEA0B53EC102BCDE9080126
:101160009DED080B51EC100BFFF7D3F89FEDE60B4C
:1011700053EC102BCDE90A019DED0A0B51EC100B3D
:10118000FFF7C7F89FEDE20B53EC102BCDE90C01F4
:101190009DED0C0B51EC100BFFF72DF9CDE90E0175
:1011A0009DED0E0B51EC100BFFF7A5F900B2C749EE
:1011B0000880D248B0F90000FFF78CF99FEDD00B02
:1011C00053EC102BCDE908019DED080B51EC100BF1
:1011D000FFF79FF89FEDCC0B53EC102BCDE90A01E4
:1011E0009DED0A0B51EC100BFFF793F89FEDC80B28
:1011F00053EC102BCDE90C019DED0C0B51EC100BB9
:10120000FFF7F9F8CDE90E019DED0E0B51EC100B37
:10121000FFF771F900B2AE490880B848B0F9000094
:10122000FFF758F99FEDB60B53EC102BCDE90801F1
:101230009DED080B00E0D3E051EC100BFFF769F8CF
:101240009FEDB10B53EC102BCDE90A019DED0A0B7C
:1012500051EC100BFFF75DF89FEDAD0B53EC102B2D
:10126000CDE90C019DED0C0B51EC100BFFF7C3F811
:10127000CDE90E019DED0E0B51EC100BFFF73BF984
:1012800000B2944908809D48B0F90000FFF722F9A8
:101290009FED9B0B53EC102BCDE908019DED080B46
:1012A00051EC100BFFF735F89FED970B53EC102B1B
:1012B000CDE90A019DED0A0B51EC100BFFF729F85F
:1012C0009FED930B53EC102BCDE90C019DED0C0B16
:1012D00051EC100BFFF78FF8CDE90E019DED0E0BD1
:1012E00051EC100BFFF707F900B27B4908808348E7
:1012F000B0F90000FFF7EEF89FED810B53EC102BD7
:10130000CDE908019DED080B51EC100BFFF701F83A
:101310009FED7D0B53EC102BCDE90A019DED0A0BDF
:1013200051EC100BFEF7F5FF9FED790B53EC102BF2
:10133000CDE90C019DED0C0B51EC100BFFF75BF8A8
:10134000CDE90E019DED0E0B51EC100BFFF7D3F81C
:1013500000B2624908806948B0F90000FFF7BAF8A6
:101360009FED670B53EC102BCDE908019DED080BA9
:1013700051EC100BFEF7CDFF9FED630B53EC102BE0
:10138000CDE90A019DED0A0B51EC100BFEF7C1FFF0
:101390009FED5F0B53EC102BCDE90C019DED0C0B79
:1013A00051EC100BFFF727F8CDE90E019DED0E0B68
:1013B00051EC100BFFF79FF800B2494908804FF439
:1013C00080604849088048490880484908804FF4AF
:1013D000406047490880474908804749088096E6A9
:1013E00037480088A0F57A7000EE100AB8EEC00AFF
:1013F0008DED0F0A9DED0F0A08F0ABFEF3EE040A27
:10140000B4EEE00AF1EE10FAE9D22C480088A0F51B
:101410007A7000EE100AB8EEC00A8DED0F0A9DED4D
:101420000F0A08F096FEF3EE040AB4EEE00AF1EEBD
:1014300010FA42DD23480088A0F57A7000EE100A09
:10144000B8EEC00A8DED0F0A9DED0F0A08F081FE7F
:10145000F3EE040AB4EEE00AF1EE10FA2DD21748CA
:101460000088A0F57A7000B22B4908800846B0F9D0
:1014700000004042FFF72EF89FED210B53EC102B9C
:10148000CDE908019DED080B51EC100BFEF741FF73
:101490009FED1D0B53EC102BCDE90A019DED0A0BBE
:1014A00051EC100BFEF735FF9FED190B53EC102B91
:1014B000CDE90C019DED0C0B30E053E1EC00002078
:1014C000EE000020F0000020F2000020800000204C
:1014D0008200002084000020860000208800002078
:1014E0008A0000205C0000205E00002060000020D8
:1014F000620000206400002066000020320000200E
:101500007715527ED2732D400000000000004E403F
:1015100000000000000089403000002051EC100B5A
:10152000FEF769FFCDE90E019DED0E0B51EC100B9E
:10153000FEF7E1FF00B2FE490880FE48B0F9000066
:101540004042FEF7C7FF1FED120B53EC102BCDE905
:1015500008019DED080B51EC100BFEF7DAFE1FEDB4
:10156000160B53EC102BCDE90A019DED0A0B51EC43
:10157000100BFEF7CEFE1FED1A0B53EC102BCDE92E
:101580000C019DED0C0B51EC100BFEF734FFCDE977
:101590000E019DED0E0B51EC100BFEF7ACFF00B2EF
:1015A000E5490880E348B0F900004042FEF792FFA9
:1015B0001FED2D0B53EC102BCDE908019DED080B11
:1015C00051EC100BFEF7A5FE1FED310B53EC102B69
:1015D000CDE90A019DED0A0B51EC100BFEF799FEC7
:1015E0001FED350B53EC102BCDE90C019DED0C0BD1
:1015F00051EC100BFEF7FFFECDE90E019DED0E0B39
:1016000051EC100BFEF777FF00B2CC490880C948B7
:10161000B0F90000FEF75EFF1FED470B53EC102BF7
:10162000CDE908019DED080B51EC100BFEF771FEA2
:101630001FED4B0B53EC102BCDE90A019DED0A0B6E
:1016400051EC100BFEF765FE1FED4F0B53EC102B0A
:10165000CDE90C019DED0C0B51EC100BFEF7CBFE10
:10166000CDE90E019DED0E0B51EC100BFEF743FF83
:1016700000B2B3490880AF48B0F90000FEF72AFF76
:101680001FED610B53EC102BCDE908019DED080B0C
:1016900051EC100BFEF73DFE1FED650B53EC102BCC
:1016A000CDE90A019DED0A0B51EC100BFEF731FE5E
:1016B0001FED690B53EC102BCDE90C019DED0C0BCC
:1016C00051EC100BFEF797FECDE90E019DED0E0BD0
:1016D00051EC100BFEF70FFF00B29A4908809548B5
:1016E000B0F90000FEF7F6FE1FED7B0B53EC102B5C
:1016F000CDE908019DED080B51EC100BFEF709FE3A
:101700001FED7F0B53EC102BCDE90A019DED0A0B69
:1017100051EC100BFEF7FDFD1FED830B53EC102B6E
:10172000CDE90C019DED0C0B51EC100BFEF763FEA7
:10173000CDE90E019DED0E0B51EC100BFEF7DBFE1B
:1017400000B2814908804FF40060804908808049D8
:101750000880804908808049088080490880804945
:101760000880D4E47F480088A0F57A7000EE100A63
:10177000B8EEC00A8DED0F0A9DED0F0A08F0E9FCE6
:10178000F3EE040AB4EEE00AF1EE10FA7ED27648E7
:101790000088A0F57A7000EE100AB8EEC00A8DED50
:1017A0000F0A9DED0F0A08F0D4FCF3EE040AB4EE24
:1017B000E00AF1EE10FA69DD6B480088C0F57A7036
:1017C00000B26A4908809FED6A0A08F03BF8B0EE63
:1017D000408A9FED680A08F035F8C8EE000A6348B1
:1017E000B0F9000000EE100AB8EEC00A20EE800A40
:1017F0008DED070A0798FEF7B6FE1FEDBF0B53EC01
:10180000102BCDE908019DED080B51EC100BFEF7F4
:1018100080FD1FEDC30B53EC102BCDE90A019DEDAC
:101820000A0B51EC100BFEF774FD1FEDC70B53ECC8
:10183000102BCDE90C019DED0C0B51EC100BFEF7BC
:10184000DAFDCDE90E019DED0E0B51EC100BFEF70C
:1018500052FE00B2364908804448B0F90000FEF755
:1018600039FE1FEDD90B53EC102BCDE908019DED8E
:10187000080B51EC100BFEF74CFD1FEDDD0B53EC8C
:10188000102BCDE90A019DED0A0B00E012E251ECAC
:10189000100BFEF73EFD1FEDE20B53EC102BCDE9D4
:1018A0000C019DED0C0B51EC100BFEF7A4FDCDE9E6
:1018B0000E019DED0E0B51EC100BFEF71CFE00B25D
:1018C0001D4908809FED2C0A07F0BCFFB0EE408A4E
:1018D0009FED280A07F0B6FFC8EE000A2348B0F9CA
:1018E000000000EE100AB8EEC00A20EE800A8DED6E
:1018F000070A0798FEF737FE9FED200B53EC102BDD
:10190000CDE908019DED080B51EC100BFEF701FD30
:101910009FED1C0B53EC102BCDE90A019DED0A0B3A
:1019200051EC100BFEF7F5FC9FED180B32E00000B8
:101930008000002030000020820000208400002071
:1019400086000020880000208A0000205C00002023
:101950005E00002060000020620000206400002083
:1019600066000020EC000020F00000203400002081
:10197000DF4F2D3FA089003F355E5A3F7715527EDD
:10198000D2732D400000000000004E400000000017
:101990000000894053EC102BCDE90C019DED0C0BA0
:1019A00051EC100BFEF727FDCDE90E019DED0E0B5E
:1019B00051EC100BFEF79FFD00B2FE4908801FEDB1
:1019C000140A07F03FFFB0EE408A1FED160A07F039
:1019D00039FFC8EE000AF848B0F9000000EE100A1E
:1019E000B8EEC00A20EE800A8DED070A0798FEF7D0
:1019F000BAFD1FED1E0B53EC102BCDE908019DED38
:101A0000080B51EC100BFEF784FC1FED220B53EC7E
:101A1000102BCDE90A019DED0A0B51EC100BFEF7DE
:101A200078FC1FED260B53EC102BCDE90C019DED3E
:101A30000C0B51EC100BFEF7DEFCCDE90E019DED19
:101A40000E0B51EC100BFEF756FD00B2DB4908807F
:101A5000D948B0F90000FEF73DFD1FED380B53ECFF
:101A6000102BCDE908019DED080B51EC100BFEF792
:101A700050FC1FED3C0B53EC102BCDE90A019DED02
:101A80000A0B51EC100BFEF744FC1FED400B53EC1E
:101A9000102BCDE90C019DED0C0B51EC100BFEF75A
:101AA000AAFCCDE90E019DED0E0B51EC100BFEF7DB
:101AB00022FD00B2C24908801FED510A07F0C2FEA4
:101AC000B0EE408A1FED550A07F0BCFEC8EE000AD2
:101AD000B948B0F9000000EE100AB8EEC00A20EED6
:101AE000800A8DED070A0798FEF73DFD1FED5D0B9F
:101AF00053EC102BCDE908019DED080B51EC100BB8
:101B0000FEF707FC1FED610B53EC102BCDE90A012A
:101B10009DED0A0B51EC100BFEF7FBFB1FED650B67
:101B200053EC102BCDE90C019DED0C0B51EC100B7F
:101B3000FEF761FCCDE90E019DED0E0B51EC100B93
:101B4000FEF7D9FC00B29F4908809FED9F1B9FEDD7
:101B5000A00B07F021FC8DED0C0B9FED9F0B53ECC0
:101B6000102B9DED0C0B51EC100BFEF7D2FBCDE9C9
:101B70000E019DED0E0B51EC100BFEF7DBFC00F59A
:101B80008060974908809FED971B9FED980B07F0A9
:101B900003FC8DED0C0B9FED900B53EC102B9DED8A
:101BA0000C0B51EC100BFEF7B4FBCDE90E019DEDD3
:101BB0000E0B51EC100BFEF7BDFC00F580608D495B
:101BC00008809FED811B9FED8C0B07F0E5FB8DEDF1
:101BD0000C0B9FED810B53EC102B9DED0C0B51EC7E
:101BE000100BFEF796FBCDE90E019DED0E0B51ECAF
:101BF000100BFEF79FFCC0F54060814908809FED07
:101C0000721B9FED730B07F0C7FB8DED0C0B9FED67
:101C1000720B53EC102B9DED0C0B51EC100BFEF7DF
:101C200078FBCDE90E019DED0E0B51EC100BFEF78C
:101C300081FCC0F54060734908809FED6A1B9FEDF1
:101C40006B0B07F0A9FB8DED0C0B9FED630B53ECB9
:101C5000102B9DED0C0B51EC100BFEF75AFBCDE950
:101C60000E019DED0E0B51EC100BFEF763FCC0F561
:101C70004060654908809FED541B9FED5F0B07F0A6
:101C80008BFB8DED0C0B9FED540B53EC102B9DED4E
:101C90000C0B51EC100BFEF73CFBCDE90E019DED5A
:101CA0000E0B51EC100BFEF745FC00F58060574918
:101CB000088056E556480088A0F57A7000EE100AB4
:101CC000B8EEC00A8DED0F0A9DED0F0A08F041FA3B
:101CD000F3EE040AB4EEE00AF1EE10FA42F3E48601
:101CE0004C480088A0F57A7000EE100AB8EEC00AE1
:101CF0008DED0F0A9DED0F0A08F02BFAF3EE040AA2
:101D0000B4EEE00AF1EE10FAE8DD41480088A0F5F3
:101D10007A7000B2404908803E480088C0F57A7069
:101D200000B2254908803C48B0F90000002879DD60
:101D30000846B0F900000028F9DD3748B0F9000086
:101D400000EE100AF8EEC00A0846B0F9000000EEF6
:101D5000100AB8EEC00A80EE801A304880ED001AF2
:101D60000846B0F9000000EE100AB8EEC00A08F00C
:101D7000F0F9B0EE408A294890ED000ADFED280A1C
:101D800030EE600A8DED000A9DED000A08F0E1F9E1
:101D9000F0EE401A214890ED000ADFED210A30EE06
:101DA000600A8DED000A9DED000A08F0D2F921EEDF
:101DB000800A38E0840000203400002086000020E3
:101DC000880000208A000020A4703D0AD7A3E83FC5
:101DD0008FC2F5285C8FD23FC971A774305F8440F1
:101DE0005C000020295C8FC2F528BC3F66666666F1
:101DF0006666E63F5E00002052B81E85EB51E03F6C
:101E000060000020620000206400002066000020C6
:101E1000EC000020F0000020300000202400002012
:101E2000E17A943EFEE38DED010A0198FEF79BFBFB
:101E30009FEDFE0B53EC102BCDE902019DED020B43
:101E400051EC100BFEF7BEF9CDE904019DED040B3A
:101E500051EC100BFEF79AFB06909DED060A07F079
:101E6000F1FC28EE400A8DED070A0798FEF77BFB90
:101E70009FEDF00B53EC102BCDE908019DED080B05
:101E800051EC100BFEF745FA9FEDEC0B53EC102BC9
:101E9000CDE90A019DED0A0B51EC100BFEF739FA62
:101EA0009FEDE80B53EC102BCDE90C019DED0C0BD5
:101EB00051EC100BFEF79FFACDE90E019DED0E0BD4
:101EC00051EC100BFEF717FB00B2E0490880E04828
:101ED000B0F9000000EE100AB8EEC00A08F039F9B7
:101EE000B0EE408ADB4890ED000ADFEDDB0A30EE11
:101EF000600A8DED000A9DED000A08F02AF9F0EE67
:101F0000401AD44890ED000ADFEDD30A30EE600AA3
:101F10008DED000A9DED000A08F01BF921EE800A04
:101F20008DED010A0198FEF71EFB9FEDCC0B53ECE3
:101F3000102BCDE902019DED020B51EC100BFEF7C9
:101F400041F9CDE904019DED040B51EC100BFEF7B6
:101F50001DFB06909DED060A07F074FC28EE400A72
:101F60008DED070A0798FEF7FEFA9FEDB20B53ECD2
:101F7000102BCDE908019DED080B51EC100BFEF77D
:101F8000C8F99FEDAE0B53EC102BCDE90A019DED86
:101F90000A0B51EC100BFEF7BCF99FEDAA0B53ECAA
:101FA000102BCDE90C019DED0C0B51EC100BFEF745
:101FB00022FACDE90E019DED0E0B51EC100BFEF750
:101FC0009AFA00B2A7490880A148B0F9000000EED3
:101FD000100AB8EEC00A08F0BCF8B0EE408A9D487E
:101FE00090ED000ADFEDA00A30EE600A8DED000AE8
:101FF0009DED000A08F0ADF8F0EE401A954890ED1E
:10200000000ADFED990A30EE600A8DED000A9DEDC1
:10201000000A08F09EF821EE800A8DED010A019871
:10202000FEF7A1FA9FED810B53EC102BCDE90201D5
:102030009DED020B51EC100BFEF7C4F8CDE9040145
:102040009DED040B51EC100BFEF7A0FA06909DEDF0
:10205000060A07F0F7FB28EE400A8DED070A0798FD
:10206000FEF781FA9FED730B53EC102BCDE90801BD
:102070009DED080B51EC100BFEF74BF99FED6F0B2C
:1020800053EC102BCDE90A019DED0A0B51EC100B1E
:10209000FEF73FF99FED6B0B53EC102BCDE90C01D4
:1020A0009DED0C0B51EC100BFEF7A5F9CDE90E01DF
:1020B0009DED0E0B51EC100BFEF71DFA00B26B49B3
:1020C00008806348B0F9000000EE100AB8EEC00ABC
:1020D00008F03FF8B0EE408A5E4890ED000A5FEDF0
:1020E000B00A30EE200A8DED000A9DED000A08F0DE
:1020F00030F8F0EE401A574890ED000A5FEDB80A4C
:1021000030EE200A8DED000A9DED000A08F021F85E
:1021100021EE800A8DED010A0198FEF724FA9FED69
:10212000430B53EC102BCDE902019DED020B51EC5A
:10213000100BFEF747F8CDE904019DED040B51ECBF
:10214000100BFEF723FA06909DED060A07F07AFBC6
:1021500028EE000A8DED070A0798FEF704FA9FEDB6
:10216000350B53EC102BCDE908019DED080B51EC1C
:10217000100BFEF7CEF89FED310B53EC102BCDE991
:102180000A019DED0A0B51EC100BFEF7C2F89FED12
:102190002D0B53EC102BCDE90C019DED0C0B51ECEC
:1021A000100BFEF728F9CDE90E019DED0E0B51EC59
:1021B000100BFEF7A0F900B22D4908802448B0F9B1
:1021C000000000EE100AB8EEC00A07F0C2FFB0EE41
:1021D000408A204890ED000ADFED1F0A30EE200A09
:1021E0008DED000A9DED000A07F0B3FFF0EE401AF6
:1021F000184890ED000ADFED180A30EE200A8DED48
:10220000000A9DED000A07F0A4FF21EE800A8DED83
:10221000010A0198FEF7A7F99FED100B53EC102B64
:10222000CDE902019DED020B24E000007E8CB96B2C
:1022300009F9E23F7715527ED2732D40000000006D
:1022400000004E4000000000000089408000002097
:1022500034000020240000203333333F80B7408215
:10226000E2C7883F820000205C8F023F840000208C
:102270008600002051EC100BFDF7A4FFCDE904010E
:102280009DED040B51EC100BFEF780F906909DEDCF
:10229000060A07F0D7FA28EE000A8DED070A07981C
:1022A000FEF761F91FED1D0B53EC102BCDE9080172
:1022B0009DED080B51EC100BFEF72BF81FED210BD9
:1022C00053EC102BCDE90A019DED0A0B51EC100BDC
:1022D000FEF71FF81FED250B53EC102BCDE90C0179
:1022E0009DED0C0B51EC100BFEF785F8CDE90E01BE
:1022F0009DED0E0B51EC100BFEF7FDF800B2FE4900
:102300000880FE48B0F9000000EE100AB8EEC00ADE
:1023100007F01FFFB0EE408AF94890ED000A5FED2C
:102320002E0A30EE200A8DED000A9DED000A07F01E
:1023300010FFF0EE401AF24890ED000A5FED360A09
:1023400030EE200A8DED000A9DED000A07F001FF36
:1023500021EE800A8DED010A0198FEF704F91FEDC8
:102360004D0B53EC102BCDE902019DED020B51EC0E
:10237000100BFDF727FFCDE904019DED040B51EC97
:10238000100BFEF703F906909DED060A07F05AFAC6
:1023900028EE000A8DED070A0798FEF7E4F81FED16
:1023A0005B0B53EC102BCDE908019DED080B51ECB4
:1023B000100BFDF7AEFF1FED5F0B53EC102BCDE9BB
:1023C0000A019DED0A0B51EC100BFDF7A2FF1FED6A
:1023D000630B53EC102BCDE90C019DED0C0B51EC74
:1023E000100BFEF708F8CDE90E019DED0E0B51EC38
:1023F000100BFEF780F800B2C2490880C04890ED8B
:10240000000A5FED6B0AB4EEE00AF1EE10FA7ADD35
:1024100090ED000ADFEDBC0A30EE600A8DED0F0A88
:10242000DDED0F0A9FEDB90A07F0B6F8DFEDB80A47
:1024300020EE200ABCEEC00A10EE100A00F5006083
:10244000B4490880AE4890ED000A5FED7D0A30EE99
:10245000600A8DED0F0ADDED0F0A9FEDAF0A07F060
:102460009BF8DFEDAB0A20EE200ABCEEC00A10EEAE
:10247000100A00F50060A9490880A14890ED000A03
:102480005FED870A30EE600A8DED0F0ADDED0F0A71
:102490009FED9E0A07F080F8DFED9D0A20EE200AEE
:1024A000BCEEC00A10EE100AC0F500609C4908801E
:1024B000934890ED000ADFED940A30EE200A8DED8E
:1024C0000F0ADDED0F0A9FED910A07F065F8DFEDC9
:1024D000900A20EE200ABCEEC00A10EE100A00F5A9
:1024E000006090490880864890ED000A5FEDA60ADA
:1024F00030EE200A8DED0F0ADDED0F0A9FED860A02
:1025000007F04AF800E026E0DFED810A20EE200A1D
:10251000BCEEC00A10EE100A00F500608249088087
:10252000774890ED000A5FEDB00A30EE200A8DED9D
:102530000F0ADDED0F0A9FED750A07F02DF8DFEDAC
:10254000740A20EE200ABCEEC00A10EE100AC0F594
:102550000060764908806A4890ED000A5FEDC20A83
:10256000B4EEE00AF1EE10FA7DD890ED000A5FEDCE
:10257000C20AB4EEE00AF1EE10FA74DD90ED000A42
:10258000DFED610A30EE600A8DED0F0ADDED0F0A16
:102590009FED5E0A07F000F8DFED5D0A20EE200AED
:1025A000BCEEC00A10EE100A00F500605949088020
:1025B000534890ED000A5FEDD80A30EEC00A8DED69
:1025C0000F0ADDED0F0A9FED540A06F0E5FFDFED7F
:1025D000500A20EE200ABCEEC00A10EE100AC0F528
:1025E00080504E490880464890ED000A5FEDE20AAF
:1025F00030EE600A8DED0F0ADDED0F0A9FED430A04
:1026000006F0CAFFDFED420A20EE200ABCEEC00A47
:1026100010EE100AC0F5006041490880384890ED7E
:10262000000A00E051E1DFED380A30EE200A8DEDBE
:102630000F0ADDED0F0A9FED350A06F0ADFFDFED65
:10264000340A20EE200ABCEEC00A10EE100A00F593
:102650000060344908802A4890ED000ADFED340A12
:1026600030EE200A00E02EE08DED0F0ADDED0F0ABE
:102670009FED290A06F090FFDFED250A20EE200AE3
:10268000BCEEC00A10EE100A00F500602649088072
:102690001B4890ED000ADFED270A30EE200A8DED91
:1026A0000F0ADDED0F0A9FED190A06F075FFDFED49
:1026B000180A20EE200ABCEEC00A10EE100AC0F57F
:1026C00000601A4908800E4890ED000ADFED190AF3
:1026D000B4EEE00AF1EE10FA7ED890ED000ADFEDDC
:1026E0000A0A30EE600A8DED0F0ADDED0F0A9FED4C
:1026F000070A06F051FF1FE0880000203400002088
:10270000240000208A000020E17A943EB81E453F54
:1027100084F922445C000020AE47E13D5E000020C9
:10272000600000206200002064000020660000209D
:102730003333333F5C8F023F5FED0B0A20EE200AFC
:10274000BCEEC00A10EE100A00F50060FE490880D9
:10275000FE4890ED000A5FED0A0A30EEC00A8DEDEA
:102760000F0ADDED0F0A1FED140A06F015FF5FEDED
:10277000180A20EE200ABCEEC00A10EE100AC0F5BE
:102780008050F3490880F14890ED000A5FED170A88
:1027900030EEC00A8DED0F0ADDED0F0A1FED250AA0
:1027A00006F0FAFE5FED260A20EE200ABCEEC00A13
:1027B00010EE100AE7490880E44890ED000A5FED4A
:1027C0002E0A30EE200A8DED0F0ADDED0F0A1FED07
:1027D000310A06F0E1FE00E041E05FED330A20EE51
:1027E000200ABCEEC00A10EE100A00F50060DA49BB
:1027F0000880D64890ED000A5FED330A30EE200ADB
:102800008DED0F0ADDED0F0A1FED3D0A06F0C4FE47
:102810005FED410A20EE200ABCEEC00A10EE100A5D
:1028200000F50060CD490880C84890ED000A5FEDD2
:102830003F0A30EE200A8DED0F0ADDED0F0A1FED85
:102840004D0A06F0A9FE5FED4E0A20EE200ABCEE0E
:10285000C00A10EE100AC0F50060C1490880BA48ED
:102860000088B0F5406F03DB4FF44060B649088044
:10287000B7480088B0F5406F03DB4FF44060B449BF
:102880000880B4480088B0F5806F03DC4FF48060A6
:10289000B0490880B0480088B0F5406F03DB4FF4C2
:1028A0004060AD490880AD480088B0F5406F03DB5B
:1028B0004FF44060A9490880A9480088B0F5806FAE
:1028C00003DC4FF48060A6490880A648B0F90000F8
:1028D00000287CDAA448B0F90000002877DDA14880
:1028E000B0F9000000EE100AB8EEC00AF1EE400A9E
:1028F0009D48B0F9000000EE100AB8EEC00A80EE64
:10290000801A924880ED001A9748B0F9000000EE56
:10291000100AB8EEC00A07F01CFCB0EE408A8B48E3
:1029200090ED000A5FED880A30EE600A8DED000A36
:102930009DED000A07F00DFCF0EE401A834890ED83
:10294000000A5FED8F0A30EE600A8DED000A9DED02
:10295000000A07F0FEFB21EE800A8DED010A0198C6
:10296000FDF701FE9FED810B53EC102BCDE9020129
:102970009DED020B51EC100BFDF724FCCDE9040199
:102980009DED040B51EC100BFDF700FE06909DED44
:10299000060A06F057FF28EE000A8DED070A079891
:1029A000FDF7E1FD9FED730B53EC102BCDE9080112
:1029B0009DED080B51EC100BFDF7ABFC9FED6F0B81
:1029C00053EC102BCDE90A019DED0A0B00E0FDE36D
:1029D00051EC100BFDF79DFC9FED6A0B53EC102B97
:1029E000CDE90C019DED0C0B51EC100BFDF703FD37
:1029F000CDE90E019DED0E0B51EC100BFDF77BFDAB
:102A000000B2624908805848B0F9000000EE100A90
:102A1000B8EEC00A07F09DFBB0EE408A4B4890ED3F
:102A2000000A5FEDBD0A30EE600A8DED000A9DEDF3
:102A3000000A07F08EFBF0EE401A444890ED000AC1
:102A40005FEDC50A30EE600A8DED000A9DED000ACB
:102A500007F07FFB21EE800A8DED010A0198FDF75A
:102A600082FD9FED4B0B53EC102BCDE902019DED48
:102A7000020B51EC100BFDF7A5FBCDE904019DED18
:102A8000040B51EC100BFDF781FD06909DED060A3D
:102A900006F0D8FE28EE000A8DED070A0798FDF72C
:102AA00062FD9FED340B53EC102BCDE908019DED39
:102AB000080B51EC100BFDF72CFC9FED300B53EC89
:102AC000102BCDE90A019DED0A0B51EC100BFDF71F
:102AD00020FC9FED2C0B53EC102BCDE90C019DED50
:102AE0000C0B51EC100BFDF786FCCDE90E019DEDB2
:102AF0000E0B51EC100BFDF7FEFC00B226490880CE
:102B00001948B0F9000000EE100AB8EEC00A07F04C
:102B100020FBB0EE408A0D4890ED000A5FEDFB0A05
:102B200030EE600A8DED000A9DED000A07F011FB02
:102B3000F0EE401A054890ED000ADFED180A30EE7D
:102B4000600A8DED000A2BE05C00002024000020CC
:102B50005E00002060000020620000206400002071
:102B60006600002030000020340000207E8CB96B0D
:102B700009F9E23F7715527ED2732D400000000024
:102B800000004E400000000000008940800000204E
:102B900080B74082E2C7883F820000205C8F023FFE
:102BA0009DED000A07F0D5FA21EE800A8DED010AAD
:102BB0000198FDF7D8FC1FED130B53EC102BCDE95A
:102BC00002019DED020B51EC100BFDF7FBFACDE974
:102BD00004019DED040B51EC100BFDF7D7FC0690A2
:102BE0009DED060A06F02EFE28EE000A8DED070A7E
:102BF0000798FDF7B8FC1FED210B53EC102BCDE926
:102C000008019DED080B51EC100BFDF782FB1FED49
:102C1000250B53EC102BCDE90A019DED0A0B51EC6D
:102C2000100BFDF776FB1FED290B53EC102BCDE9B4
:102C30000C019DED0C0B51EC100BFDF7DCFBCDE90D
:102C40000E019DED0E0B51EC100BFDF754FC00B284
:102C5000FD490880FD48B0F9000000EE100AB8EE0A
:102C6000C00A07F076FAB0EE408AF94890ED000A03
:102C7000DFEDF80A30EE200A8DED000A9DED000A26
:102C800007F067FAF0EE401AF14890ED000ADFED28
:102C9000F10A30EE200A8DED000A9DED000A07F0E2
:102CA00058FA21EE800A8DED010A0198FDF75BFCD0
:102CB0001FED520B53EC102BCDE902019DED020BE1
:102CC00051EC100BFDF77EFACDE904019DED040BEC
:102CD00051EC100BFDF75AFC06909DED060A06F02C
:102CE000B1FD28EE400A8DED070A0798FDF73BFC81
:102CF0001FED600B53EC102BCDE908019DED080B87
:102D000051EC100BFDF705FB1FED640B53EC102B82
:102D1000CDE90A019DED0A0B51EC100BFDF7F9FA14
:102D20001FED680B53EC102BCDE90C019DED0C0B46
:102D300051EC100BFDF75FFBCDE90E019DED0E0B85
:102D400051EC100BFDF7D7FB00B2C3490880BF4818
:102D5000B0F9000000EE100AB8EEC00A07F0F9F969
:102D6000B0EE408ABA4890ED000ADFEDBC0A30EEC2
:102D7000200A8DED000A9DED000A07F0EAF9F0EE59
:102D8000401AB34890ED000ADFEDB40A30EE200A95
:102D90008DED000A9DED000A07F0DBF921EE800AB7
:102DA0008DED010A0198FDF7DEFB1FED870B53EC5B
:102DB000102BCDE902019DED020B51EC100BFDF73C
:102DC00001FACDE904019DED040B51EC100BFDF768
:102DD000DDFB06909DED060A06F034FD28EE400A64
:102DE0008DED070A0798FDF7BEFB1FED9E0B53EC18
:102DF000102BCDE908019DED080B51EC100BFDF7F0
:102E000088FA1FEDA20B53EC102BCDE90A019DEDC2
:102E10000A0B51EC100BFDF77CFA1FEDA60B53ECDF
:102E2000102BCDE90C019DED0C0B51EC100BFDF7B7
:102E3000E2FACDE90E019DED0E0B51EC100BFDF702
:102E40005AFB00B2864908808048B0F9000000EEC5
:102E5000100AB8EEC00A07F07CF9B0EE408A7C4850
:102E600090ED000A5FEDB30A30EE200A8DED000A06
:102E70009DED000A07F06DF9F0EE401A744890EDF0
:102E8000000A5FEDBA0A30EE200A8DED000A9DEDD2
:102E9000000A07F05EF921EE800A8DED010A019823
:102EA000FDF761FB1FEDCF0B53EC102BCDE90201B9
:102EB0009DED020B51EC100BFDF784F9CDE90401F7
:102EC0009DED040B51EC100BFDF760FB06909DEDA2
:102ED000060A06F0B7FC28EE400A8DED070A0798AF
:102EE000FDF741FB1FEDDD0B53EC102BCDE9080185
:102EF0009DED080B51EC100BFDF70BFA1FEDE10BEC
:102F000053EC102BCDE90A019DED0A0B51EC100B8F
:102F1000FDF7FFF91FEDE50B53EC102BCDE90C018C
:102F20009DED0C0B51EC100BFDF765FACDE90E0190
:102F30009DED0E0B51EC100BFDF7DDFA00B2494987
:102F40000880434890ED000ADFED440AB4EEE00A41
:102F5000F1EE10FA76DD90ED000ADFED3E0A30EE7C
:102F6000600A8DED0F0ADDED0F0A9FED3F0A06F0B6
:102F700013FBDFED3E0A20EE200ABCEEC00A10EE85
:102F8000100A00F500603A490880314890ED000AC7
:102F9000DFED320A30EE600A8DED0F0ADDED0F0A2B
:102FA0009FED340A06F0F8FADFED300A20EE200A31
:102FB000BCEEC00A10EE100A00F500602E49088031
:102FC000234890ED000ADFED2D0A30EE600A8DED0A
:102FD0000F0ADDED0F0A9FED240A06F0DDFADFEDA2
:102FE000230A20EE200ABCEEC00A10EE100AC0F53B
:102FF000006023490880164890ED000ADFED150AAD
:1030000030EE200A8DED0F0ADDED0F0A9FED160A56
:1030100006F0C2FADFED150A20EE200ABCEEC00A67
:1030200010EE100A00F5006016490880084890ED7F
:10303000000ADFED0A0A30EE200A8DED0F0ADDED01
:103040000F0A21E04BE00000840000203400002043
:1030500024000020E17A943E860000203333333F81
:10306000880000208A000020B81E453F84F92244D1
:103070005C000020AE47E13D5E0000205C8F023F17
:1030800060000020620000201FED060A06F084FAAE
:103090005FED0A0A20EE200ABCEEC00A10EE100A0C
:1030A00000F50060FE490880FE4890ED000A5FEDE3
:1030B0000D0A30EE200A8DED0F0ADDED0F0A1FED2F
:1030C000160A06F069FA5FED170A20EE200ABCEE38
:1030D000C00A10EE100AC0F50060F3490880F148FC
:1030E00090ED000A5FED230AB4EEE00AF1EE10FA6B
:1030F0006DD890ED000A5FED1F0AB4EEE00AF1EE24
:1031000010FA64DD90ED000A5FED2E0A30EE600AE1
:103110008DED0F0ADDED0F0A1FED2D0A06F03CFACA
:103120005FED2E0A20EE200ABCEEC00A10EE100A57
:1031300000F50060DD490880DA4890ED000A5FED97
:10314000390A30EEC00A8DED0F0ADDED0F0A1FEDD2
:10315000370A06F021FA5FED3B0A20EE200ABCEEAA
:10316000C00A10EE100AC0F58050D1490880CD4841
:1031700090ED000A5FED3F0A30EE600A8DED0F0A18
:10318000DDED0F0A1FED480A06F006FA5FED490A69
:1031900020EE200ABCEEC00A10EE100AC0F5006056
:1031A000C4490880BF4890ED000A5FED560A30EE32
:1031B000200A8DED0F0ADDED0F0A1FED550A06F00E
:1031C000EBF95FED560A20EE200A01E01FE13DE039
:1031D000BCEEC00A10EE100A00F50060B649088087
:1031E000B04890ED000A5FED630A30EE200A8DEDE5
:1031F0000F0ADDED0F0A1FED610A06F0CDF95FED54
:10320000650A20EE200ABCEEC00A10EE100A00F596
:103210000060A3490880A34890ED000A5FED690AA9
:1032200030EE200A8DED0F0ADDED0F0A1FED720A58
:1032300006F0B2F95FED730A20EE200ABCEEC00A78
:1032400010EE100AC0F5006097490880954890ED8F
:10325000000A5FED760AB4EEE00AF1EE10FA7CD8CF
:1032600090ED000A5FED850A30EE600A8DED0F0AE1
:10327000DDED0F0A1FED840A06F08EF95FED850A79
:1032800020EE200ABCEEC00A10EE100A00F5006025
:1032900086490880834890ED000A5FED900A30EE81
:1032A000C00A8DED0F0ADDED0F0A1FED8E0A06F044
:1032B00073F95FED920A20EE200ABCEEC00A10EE10
:1032C000100AC0F580507A490880764890ED000ACF
:1032D0005FED960A30EEC00A8DED0F0ADDED0F0AA4
:1032E0001FED9F0A06F058F95FEDA00A20EE200AB4
:1032F000BCEEC00A10EE100A6E490880694890EDD5
:10330000000A5FEDAC0A30EE200A8DED0F0ADDED0C
:103310000F0A1FEDAB0A06F03FF95FEDAC0A20EE95
:10332000200ABCEEC00A10EE100A00F500606249E7
:1033300008805C4890ED000A5FEDB80A30EE200A84
:103340008DED0F0ADDED0F0A1FEDB60A06F024F928
:103350005FEDBA0A20EE200A00E022E0BCEEC00ACF
:1033600010EE100A00F500604D4908804D4890EDC0
:10337000000A5FEDBE0A30EE200A8DED0F0ADDED8A
:103380000F0A1FEDC70A06F007F95FEDC80A20EE25
:10339000200ABCEEC00A10EE100AC0F500604249D7
:1033A000088042480088B0F5406F03DB4FF440606E
:1033B0003E4908803E480088B0F5406F03DB4FF47B
:1033C00040603B4908803B480088B0F5806F03DCD3
:1033D0004FF480603749088037480088B0F5406F67
:1033E00003DB4FF44060344908802D480088B0F575
:1033F000406F03DB4FF44060294908802A48008869
:10340000B0F5806F03DC4FF48060274908802B48BB
:10341000B0F9000000287DDD2948B0F9000000283F
:1034200078DA2648B0F9000000EE100AB8EEC00ABB
:10343000F1EE400A2248B0F9000000EE100AB8EEA2
:10344000C00A80EE801A174880ED001A1C48B0F9B7
:10345000000000EE100AB8EEC00A06F07AFEB0EEE8
:10346000408A104890ED000ADFED160A30EE200A7F
:103470008DED000A9DED000A06F06BFEF0EE401A9D
:10348000084890ED000ADFED0F0A30EE200A8DEDBE
:10349000000A9DED000A06F05CFE21EE800A13E0B2
:1034A0006400002024000020660000205C00002052
:1034B0005E0000206000002062000020300000203C
:1034C00034000020E17A943E8DED010A0198FDF769
:1034D0004AF89FEDFE0B53EC102BCDE902019DED58
:1034E000020B51EC100BFCF76DFECDE904019DEDD4
:1034F000040B51EC100BFDF749F806909DED060A00
:1035000006F0A0F928EE400A8DED070A0798FDF7AE
:103510002AF800E0FAE39FEDEF0B53EC102BCDE916
:1035200008019DED080B51EC100BFCF7F2FE9FED2E
:10353000EB0B53EC102BCDE90A019DED0A0B51EC7E
:10354000100BFCF7E6FE9FEDE70B53EC102BCDE9DB
:103550000C019DED0C0B51EC100BFCF74CFFCDE971
:103560000E019DED0E0B51EC100BFCF7C4FF00B2E9
:10357000DE490880DE48B0F9000000EE100AB8EE1F
:10358000C00A06F0E6FDB0EE408ADA4890ED000A87
:10359000DFEDD90A30EE200A8DED000A9DED000A1C
:1035A00006F0D7FDF0EE401AD24890ED000ADFEDAC
:1035B000D20A30EE200A8DED000A9DED000A06F0D9
:1035C000C8FD21EE800A8DED010A0198FCF7CBFFC2
:1035D0009FEDCA0B53EC102BCDE902019DED020BC0
:1035E00051EC100BFCF7EEFDCDE904019DED040B51
:1035F00051EC100BFCF7CAFF06909DED060A06F091
:1036000021F928EE400A8DED070A0798FCF7ABFF79
:103610009FEDB00B53EC102BCDE908019DED080B8D
:1036200051EC100BFCF775FE9FEDAC0B53EC102B1F
:10363000CDE90A019DED0A0B51EC100BFCF769FE78
:103640009FEDA80B53EC102BCDE90C019DED0C0B5D
:1036500051EC100BFCF7CFFECDE90E019DED0E0BEA
:1036600051EC100BFCF747FF00B2A6490880A048B8
:10367000B0F9000000EE100AB8EEC00A06F069FDCD
:10368000B0EE408A9B4890ED000ADFED9F0A30EED5
:10369000200A8DED000A9DED000A06F05AFDF0EEBD
:1036A000401A944890ED000ADFED970A30EE200AA8
:1036B0008DED000A9DED000A06F04BFD21EE800A1B
:1036C0008DED010A0198FCF74EFF9FED800B53EC46
:1036D000102BCDE902019DED020B51EC100BFCF714
:1036E00071FDCDE904019DED040B51EC100BFCF7CD
:1036F0004DFF06909DED060A06F0A4F828EE400A5C
:103700008DED070A0798FCF72EFF9FED720B53EC27
:10371000102BCDE908019DED080B51EC100BFCF7C7
:10372000F8FD9FED6E0B53EC102BCDE90A019DEDDA
:103730000A0B51EC100BFCF7ECFD9FED6A0B53EC00
:10374000102BCDE90C019DED0C0B51EC100BFCF78F
:1037500052FECDE90E019DED0E0B51EC100BFCF766
:10376000CAFE00B2694908806148B0F9000000EE65
:10377000100AB8EEC00A06F0ECFCB0EE408A5D48D4
:1037800090ED000A5FEDB10A30EE600A8DED000A9F
:103790009DED000A06F0DDFCF0EE401A554890ED74
:1037A000000A5FEDB80A30EE600A8DED000A9DED6B
:1037B000000A06F0CEFC21EE800A8DED010A019888
:1037C000FCF7D1FE9FED410B53EC102BCDE902012C
:1037D0009DED020B51EC100BFCF7F4FCCDE904015C
:1037E0009DED040B51EC100BFCF7D0FE06909DED07
:1037F000060A06F027F828EE000A8DED070A07985A
:10380000FCF7B1FE9FED330B53EC102BCDE9080113
:103810009DED080B51EC100BFCF77BFD9FED2F0B82
:1038200053EC102BCDE90A019DED0A0B51EC100B66
:10383000FCF76FFD9FED2B0B53EC102BCDE90C012A
:103840009DED0C0B51EC100BFCF7D5FDCDE90E01F5
:103850009DED0E0B51EC100BFCF74DFE00B22C4908
:1038600008802348B0F9000000EE100AB8EEC00A44
:1038700006F06FFCB0EE408A1E4890ED000ADFEDC6
:103880001E0A30EE600A8DED000A9DED000A06F07A
:1038900060FCF0EE401A174890ED000ADFED160AC2
:1038A00030EE600A8DED000A9DED000A06F051FC35
:1038B00021EE800A8DED010A0198FCF754FE9FED80
:1038C0000F0B53EC102BCDE9020123E07E8CB96B7A
:1038D00009F9E23F7715527ED2732D4000000000B7
:1038E00000004E40000000000000894080000020E1
:1038F00034000020240000203333333F80B740825F
:10390000E2C7883F820000205C8F023F84000020D5
:10391000860000209DED020B51EC100BFCF752FCD1
:10392000CDE904019DED040B51EC100BFCF72EFECC
:1039300006909DED060A05F085FF28EE000A8DED44
:10394000070A0798FCF70FFE1FED1E0B53EC102B18
:10395000CDE908019DED080B51EC100BFCF7D9FCEB
:103960001FED220B53EC102BCDE90A019DED0A0B44
:1039700051EC100BFCF7CDFC1FED260B53EC102B7C
:10398000CDE90C019DED0C0B51EC100BFCF733FD58
:10399000CDE90E019DED0E0B51EC100BFCF7ABFDCC
:1039A00000B2FD490880FD48B0F9000000EE100AA1
:1039B000B8EEC00A06F0CDFBB0EE408AF84890EDB4
:1039C000000A5FED2F0A30EE600A8DED000A9DEDD2
:1039D000000A06F0BEFBF0EE401AF14890ED000A36
:1039E0005FED370A30EE600A8DED000A9DED000AAA
:1039F00006F0AFFB21EE800A8DED010A0198FCF77D
:103A0000B2FD1FED4E0B53EC102BCDE902019DEDE5
:103A1000020B51EC100BFCF7D5FBCDE904019DED39
:103A2000040B51EC100BFCF7B1FD06909DED060A5E
:103A300005F008FF28EE000A8DED070A0798FCF74D
:103A400092FD1FED5C0B53EC102BCDE908019DEDB1
:103A5000080B51EC100BFCF75CFC1FED600B53ECFA
:103A6000102BCDE90A019DED0A0B51EC100BFCF770
:103A700050FC1FED640B53EC102BCDE90C019DEDB8
:103A80000C0B51EC100BFCF7B6FCCDE90E019DEDD3
:103A90000E0B51EC100BFCF72EFD00B2C149088053
:103AA000BF4890ED000A5FED6C0AB4EEE00AF1EE5B
:103AB00010FA7CDD90ED000ADFEDBB0A30EE200A43
:103AC0008DED0F0ADDED0F0A9FEDB80A05F064FDDC
:103AD000DFEDB70A20EE200ABCEEC00A10EE100A95
:103AE000C0F50060B3490880AD4890ED000A5FED75
:103AF0007E0A30EE200A8DED0F0ADDED0F0A9FEDF4
:103B0000AE0A05F049FDDFEDAA0A20EE200ABCEE60
:103B1000C00A10EE100AC0F50060A8490880A0484D
:103B200090ED000A5FED880A30EE200A8DED0F0A55
:103B3000DDED0F0A9FED9D0A05F02EFDDFED9C0ADD
:103B400020EE200ABCEEC00A10EE100A00F500605C
:103B50009B490880924890ED000ADFED930A30EE11
:103B6000600A8DED0F0ADDED0F0A9FED900A05F05A
:103B700013FDDFED8F0A20EE200ABCEEC00A10EE26
:103B8000100AC0F500608F490880854890ED000A52
:103B90005FEDA70A30EE600A8DED0F0ADDED0F0A2A
:103BA0009FED850A05F0F8FCDFED810A00E024E0D6
:103BB00020EE200ABCEEC00A10EE100AC0F500602C
:103BC00081490880764890ED000A5FEDB10A30EE39
:103BD000600A8DED0F0ADDED0F0A9FED740A05F006
:103BE000DBFCDFED730A20EE200ABCEEC00A10EE0B
:103BF000100A00F5006075490880694890ED000AD8
:103C00005FEDC30AB4EEE00AF1EE10FA7DD290ED5A
:103C1000000A5FEDC30AB4EEE00AF1EE10FA74DDBB
:103C200090ED000ADFED600A30EE200A8DED0F0AFC
:103C3000DDED0F0A9FED5D0A05F0AEFCDFED5C0ADD
:103C400020EE200ABCEEC00A10EE100AC0F500609B
:103C500058490880524890ED000A5FEDD90A30EECD
:103C6000200A8DED0F0ADDED0F0A9FED530A05F0D6
:103C700093FCDFED4F0A20EE200ABCEEC00A10EEE6
:103C8000100AC0F500604D490880454890ED000AD3
:103C90005FEDE30A30EE200A8DED0F0ADDED0F0A2D
:103CA0009FED420A05F078FCDFED410A20EE200A84
:103CB000BCEEC00A10EE100A00F500604049088012
:103CC000374890ED000ADFED380A30EE600A8DEDDE
:103CD0000F0ADDED0F0A9FED350A05F05DFCDFED03
:103CE000340A20EE200ABCEEC00A10EE100AC0F51D
:103CF0000060344908802A4890ED000ADFED340A5C
:103D000030EEC00A8DED0F0A01E02BE02DE1DDED74
:103D10000F0A9FED290A05F03FFCDFED250A20EE92
:103D2000200ABCEEC00A10EE100A274908801C4881
:103D300090ED000ADFED270A30EE600A8DED0F0AE4
:103D4000DDED0F0A9FED190A05F026FCDFED180ADC
:103D500020EE200ABCEEC00A10EE100A00F500604A
:103D60001A4908800E4890ED000ADFED1A0AB4EEF9
:103D7000E00AF1EE10FA7DD290ED000ADFED0A0ABA
:103D800030EE200A8DED0F0ADDED0F0A9FED070AD8
:103D900005F002FC20E00000880000203400002034
:103DA000240000208A000020E17A943EB81E453F9E
:103DB00084F922445C000020AE47E13D5E00002013
:103DC00060000020620000206400002066000020E7
:103DD0003333333F5C8F023F5FED0B0A20EE200A46
:103DE000BCEEC00A10EE100AC0F50060FE49088063
:103DF000FE4890ED000A5FED0A0A30EE200A8DEDD4
:103E00000F0ADDED0F0A1FED140A05F0C5FB5FED8B
:103E1000180A20EE200ABCEEC00A10EE100AC0F507
:103E20000060F3490880F14890ED000A5FED170A41
:103E300030EE200A8DED0F0ADDED0F0A1FED250A89
:103E400005F0AAFB5FED260A20EE200ABCEEC00AB0
:103E500010EE100A00F50060E6490880E34890ED96
:103E6000000A5FED2F0A30EE600A8DED0F0ADDEDDE
:103E70000F0A00E043E01FED330A05F08DFB5FED14
:103E8000340A20EE200ABCEEC00A10EE100AC0F57B
:103E90000060D9490880D54890ED000A5FED340AEA
:103EA00030EEC00A8DED0F0ADDED0F0A1FED3E0A60
:103EB00005F072FB5FED420A20EE200ABCEEC00A5C
:103EC00010EE100ACD490880C84890ED000A5FED59
:103ED0003F0A30EEC00A8DED0F0ADDED0F0A1FED2F
:103EE0004D0A05F059FB5FED4E0A20EE200ABCEEAC
:103EF000C00A10EE100AC0F58050C1490880BA48C7
:103F00000088B0F5806F03DC4FF48060B64908800C
:103F1000B7480088B0F5406F03DB4FF44060B44908
:103F20000880B4480088B0F5406F03DB4FF4406070
:103F3000B0490880B0480088B0F5806F03DC4FF4CA
:103F40008060AD490880AD480088B0F5806F03DC23
:103F50004FF48060A9490880A9480088B0F5406FF7
:103F600003DB4FF44060A6490880A648B0F9000082
:103F700000287CDAA448B0F900000028F9DAA1484A
:103F8000B0F9000000EE100AF8EEC00A9E48B0F941
:103F9000000000EE100AB8EEC00A80EE801A9348C6
:103FA00080ED001A9848B0F9000000EE100AB8EE53
:103FB000C00A06F0CEF8B0EE408A8C4890ED000AB8
:103FC0005FED870A30EE200A8DED000A9DED000AB4
:103FD00006F0BFF8F0EE401A844890ED000A5FED5D
:103FE0008E0A30EE200A8DED000A9DED000A06F0E3
:103FF000B0F821EE800A8DED010A0198FCF7B3FAC2
:104000009FED820B53EC102BCDE902019DED020BCD
:1040100051EC100BFCF7D6F8CDE904019DED040B33
:1040200051EC100BFCF7B2FA06909DED060A05F074
:1040300009FC28EE000A8DED070A0798FCF793FAB1
:104040009FED740B53EC102BCDE908019DED080B8F
:1040500051EC100BFCF75DF99FED700B53EC102B3E
:10406000CDE90A019DED0A0B51EC100B00E0FDE3D8
:10407000FCF74FF99FED6B0B53EC102BCDE90C01C6
:104080009DED0C0B51EC100BFCF7B5F9CDE90E01D1
:104090009DED0E0B51EC100BFCF72DFA00B26349AD
:1040A00008805948B0F9000000EE100AB8EEC00AC6
:1040B00006F04FF8B0EE408A4C4890ED000A5FEDF4
:1040C000BC0A30EE200A8DED000A9DED000A06F0D4
:1040D00040F8F0EE401A454890ED000A5FEDC40A42
:1040E00030EE200A8DED000A9DED000A06F031F851
:1040F00021EE800A8DED010A0198FCF734FA9FED5C
:104100004C0B53EC102BCDE902019DED020B51EC51
:10411000100BFCF757F8CDE904019DED040B51ECB1
:10412000100BFCF733FA06909DED060A05F08AFBAA
:1041300028EE000A8DED070A0798FCF714FA9FEDA8
:10414000350B53EC102BCDE908019DED080B51EC1C
:10415000100BFCF7DEF89FED310B53EC102BCDE983
:104160000A019DED0A0B51EC100BFCF7D2F89FED04
:104170002D0B53EC102BCDE90C019DED0C0B51ECEC
:10418000100BFCF738F9CDE90E019DED0E0B51EC4B
:10419000100BFCF7B0F900B2274908801A48B0F9B3
:1041A000000000EE100AB8EEC00A05F0D2FFB0EE33
:1041B000408A0E4890ED000A5FEDFA0A30EE200AC0
:1041C0008DED000A9DED000A05F0C3FFF0EE401AE8
:1041D000064890ED000ADFED190A30EE200A8DED59
:1041E000000A9DED000A2BE05C0000202400002066
:1041F0005E000020600000206200002064000020BB
:104200006600002030000020340000207E8CB96B56
:1042100009F9E23F7715527ED2732D40000000006D
:1042200000004E4000000000000089408000002097
:1042300080B74082E2C7883F820000205C8F023F47
:1042400005F087FF21EE800A8DED010A0198FCF749
:104250008AF91FED120B53EC102BCDE902019DEDF5
:10426000020B51EC100BFBF7ADFFCDE904019DED06
:10427000040B51EC100BFCF789F906909DED060A32
:1042800005F0E0FA28EE000A8DED070A0798FCF722
:104290006AF91FED200B53EC102BCDE908019DEDC1
:1042A000080B51EC100BFCF734F81FED240B53EC0A
:1042B000102BCDE90A019DED0A0B51EC100BFCF718
:1042C00028F81FED280B53EC102BCDE90C019DEDC8
:1042D0000C0B51EC100BFCF78EF8CDE90E019DEDA7
:1042E0000E0B51EC100BFCF706F900B2FD490880EB
:1042F000FD48B0F9000000EE100AB8EEC00A05F063
:1043000028FFB0EE408AF94890ED000ADFEDF80A88
:1043100030EE600A8DED000A9DED000A05F019FFF0
:10432000F0EE401AF14890ED000ADFEDF10A30EEB0
:10433000600A8DED000A9DED000A05F00AFF21EEEE
:10434000800A8DED010A0198FCF70DF91FED510B64
:1043500053EC102BCDE902019DED020B51EC100B3B
:10436000FBF730FFCDE904019DED040B51EC100B80
:10437000FCF70CF906909DED060A05F063FA28EEAD
:10438000400A8DED070A0798FCF7EDF81FED5F0B6B
:1043900053EC102BCDE908019DED080B51EC100BEF
:1043A000FBF7B7FF1FED630B53EC102BCDE90A01B0
:1043B0009DED0A0B51EC100BFBF7ABFF1FED670BEC
:1043C00053EC102BCDE90C019DED0C0B51EC100BB7
:1043D000FCF711F8CDE90E019DED0E0B51EC100B21
:1043E000FCF789F800B2C3490880BF48B0F9000063
:1043F00000EE100AB8EEC00A05F0ABFEB0EE408A3F
:10440000BA4890ED000ADFEDBC0A30EE600A8DED8F
:10441000000A9DED000A05F09CFEF0EE401AB3483C
:1044200090ED000ADFEDB40A30EE600A8DED000A6F
:104430009DED000A05F08DFE21EE800A8DED010A4A
:104440000198FCF790F81FED860B53EC102BCDE98B
:1044500002019DED020B51EC100BFBF7B3FECDE911
:1044600004019DED040B51EC100BFCF78FF8069046
:104470009DED060A05F0E6F928EE400A8DED070AE3
:104480000798FCF770F81FED9D0B53EC102BCDE94E
:1044900008019DED080B51EC100BFBF73AFF1FEDE7
:1044A000A10B53EC102BCDE90A019DED0A0B51EC49
:1044B000100BFBF72EFF1FEDA50B53EC102BCDE9D6
:1044C0000C019DED0C0B51EC100BFBF794FFCDE9AB
:1044D0000E019DED0E0B51EC100BFCF70CF800B229
:1044E000864908808048B0F9000000EE100AB8EE56
:1044F000C00A05F02EFEB0EE408A7C4890ED000A1E
:104500005FEDB20A30EE600A8DED000A9DED000A03
:1045100005F01FFEF0EE401A744890ED000A5FEDC2
:10452000B90A30EE600A8DED000A9DED000A05F033
:1045300010FE21EE800A8DED010A0198FCF713F8B8
:104540001FEDCE0B53EC102BCDE902019DED020BBC
:1045500051EC100BFBF736FECDE904019DED040B89
:1045600051EC100BFCF712F806909DED060A05F0D1
:1045700069F928EE400A8DED070A0798FBF7F3FF6B
:104580001FEDDC0B53EC102BCDE908019DED080B62
:1045900051EC100BFBF7BDFE1FEDE00B53EC102BA5
:1045A000CDE90A019DED0A0B51EC100BFBF7B1FEB2
:1045B0001FEDE40B53EC102BCDE90C019DED0C0B22
:1045C00051EC100BFBF717FFCDE90E019DED0E0B23
:1045D00051EC100BFBF78FFF00B2494908804348AC
:1045E00090ED000ADFED440AB4EEE00AF1EE10FAB5
:1045F00076DD90ED000ADFED3E0A30EE200A8DED0B
:104600000F0ADDED0F0A9FED3F0A04F0C5FFDFED55
:104610003E0A20EE200ABCEEC00A10EE100AC0F5D9
:1046200000603A490880314890ED000ADFED320A17
:1046300030EE200A8DED0F0ADDED0F0A9FED340AF2
:1046400004F0AAFFDFED300A20EE200ABCEEC00A1B
:1046500010EE100AC0F500602E490880234890ED46
:10466000000ADFED2D0A30EE200A8DED0F0ADDED98
:104670000F0A9FED240A04F08FFFDFED230A20EEDE
:10468000200ABCEEC00A10EE100A00F500602349B3
:104690000880164890ED000ADFED150A30EE600A3A
:1046A0008DED0F0ADDED0F0A9FED160A04F074FF81
:1046B000DFED150A20EE200ABCEEC00A10EE100A4B
:1046C000C0F5006016490880084890ED000ADFED4B
:1046D0000A0A30EE600A8DED0F0ADDED0F0A21E0C7
:1046E0004BE0000084000020340000202400002063
:1046F000E17A943E860000203333333F8800002067
:104700008A000020B81E453F84F922445C00002046
:10471000AE47E13D5E0000205C8F023F600000205C
:10472000620000201FED060A04F036FF5FED0A0A62
:1047300020EE200ABCEEC00A10EE100AC0F50060A0
:10474000FC490880FC4890ED000A5FED0D0A30EE50
:10475000600A8DED0F0ADDED0F0A1FED160A04F059
:104760001BFF5FED170A20EE200ABCEEC00A10EE18
:10477000100A00F50060F1490880EF4890ED000A4A
:104780005FED230AB4EEE00AF1EE10FA6FD290ED7D
:10479000000A5FED1F0AB4EEE00AF1EE10FA66DDE2
:1047A00090ED000A5FED2E0A30EE200A8DED0F0A23
:1047B000DDED0F0A1FED2D0A04F0EEFE5FED2E0A6F
:1047C00020EE200ABCEEC00A10EE100AC0F5006010
:1047D000DB490880D84890ED000A5FED390A30EED9
:1047E000200A8DED0F0ADDED0F0A1FED370A04F0E8
:1047F000D3FE5FED3B0A20EE200ABCEEC00A10EEAD
:10480000100AC0F50060CF490880CB4890ED000A3F
:104810005FED3F0A30EE200A8DED0F0ADDED0F0A45
:104820001FED480A04F0B8FE5FED490A20EE200AA9
:10483000BCEEC00A10EE100A00F50060C249088004
:10484000BD4890ED000A5FED560A30EE600A8DED2E
:104850000F0ADDED0F0A1FED550A04F09DFE5FED16
:10486000560A20EE200ABCEEC00A01E01BE139E046
:1048700010EE100AC0F50060B4490880AE4890ED13
:10488000000A5FED630A30EEC00A8DED0F0ADDED20
:104890000F0A1FED610A04F07FFE5FED650A20EE4E
:1048A000200ABCEEC00A10EE100AA2490880A248F5
:1048B00090ED000A5FED680A30EE600A8DED0F0A98
:1048C000DDED0F0A1FED710A04F066FE5FED720A5E
:1048D00020EE200ABCEEC00A10EE100A00F50060BF
:1048E00096490880944890ED000A5FED750AB4EE91
:1048F000E00AF1EE10FA7AD290ED000A5FED840A38
:1049000030EE200A8DED0F0ADDED0F0A1FED830A50
:1049100004F042FE5FED840A20EE200ABCEEC00ADD
:1049200010EE100AC0F5006085490880824890EDBD
:10493000000A5FED8F0A30EE200A8DED0F0ADDEDE3
:104940000F0A1FED8D0A04F027FE5FED910A20EE9D
:10495000200ABCEEC00A10EE100AC0F500607949CA
:104960000880754890ED000A5FED950A30EE200A48
:104970008DED0F0ADDED0F0A1FED9E0A04F00CFE0F
:104980005FED9F0A20EE200ABCEEC00A10EE100A6E
:1049900000F500606C490880674890ED000A5FED03
:1049A000AC0A30EE600A8DED0F0ADDED0F0A1FED47
:1049B000AB0A04F0F1FD5FEDAC0A20EE200ABCEE7C
:1049C000C00A10EE100AC0F50060604908805A481D
:1049D00090ED000A5FEDB80A30EEC00A8DED0F0AC7
:1049E000DDED0F0A1FEDB60A04F0D6FD00E024E06D
:1049F0005FEDBB0A20EE200ABCEEC00A10EE100AE2
:104A00004C4908804C4890ED000A5FEDBD0A30EE3D
:104A1000C00A8DED0F0ADDED0F0A1FEDC60A04F086
:104A2000BBFD5FEDC70A20EE200ABCEEC00A10EE07
:104A3000100AC0F580504149088041480088B0F50F
:104A4000806F03DC4FF480603D4908803D4800885A
:104A5000B0F5406F03DB4FF440603A4908803A48B4
:104A60000088B0F5406F03DB4FF4406036490880A2
:104A700036480088B0F5806F03DC4FF4806033491E
:104A800008802C480088B0F5806F03DC4FF480600C
:104A90002849088029480088B0F5406F75DB4FF43D
:104AA00040602649088070E029480088A0F57A70A7
:104AB00000EE100AB8EEC00A8DED0F0A9DED0F0A48
:104AC00005F047FBF3EE040AB4EEE00AF1EE10FA4B
:104AD0004ED820480088A0F57A7000EE100AB8EE93
:104AE000C00A8DED0F0A9DED0F0A05F032FBF3EEC3
:104AF000040AB4EEE00AF1EE10FA39D800201649A3
:104B00000880164908801649088016490880164909
:104B10000880164908804FF4006009490880094957
:104B2000088009490880094908800249088003492A
:104B300008802AE064000020240000206600002095
:104B40005C0000205E000020600000206200002069
:104B5000EC000020F00000208000002082000020F7
:104B60008400002086000020880000208A000020A9
:104B70000020084908800849088008490880084939
:104B80000880084908800849088011B0BDEC028BF4
:104B900000BD000080000020820000208400002072
:104BA00086000020880000208A00002000BFFEE769
:104BB0007047000070B5002100230F22C4781CB399
:104BC000174C246804F4E064C4F5E064C4F30721DE
:104BD000C1F10404E3B20A4144789C40E1B2847814
:104BE000144021430C07210E0E4C057861550478C2
:104BF00004F01F050124AC4005786D11AD0005F1EE
:104C0000E025C5F8004109E0047804F01F050124FF
:104C1000AC40054D0678761145F8264070BD000081
:104C20000CED00E000E400E080E100E00249014317
:104C3000024A1160704700000000FA050CED00E028
:104C400000B52DED028B87B0FD4890ED000AB5EE62
:104C5000C00AF1EE10FA2CD1FA4890ED000AB5EE38
:104C6000C00AF1EE10FA24D1F74890ED000AB5EE33
:104C7000C00AF1EE10FA1CD10020F4490880F44972
:104C80000880F4490880F4490880F4490880F44910
:104C900008804FF40060F3490880F3490880F34925
:104CA0000880F3490880F3490880F349088002F03E
:104CB000D7BCE34890ED000AB5EEC00AF1EE10FA59
:104CC00079D0E04890ED000AB5EEC00AF1EE10FA96
:104CD00071D1DD4890ED000AB5EEC00AF1EE10FA90
:104CE00069D1D74890ED000AB1EE400ADFEDE30A42
:104CF00020EE200ABDEEC00A10EE100A00B2D34921
:104D00000880CF4890ED000AB1EE400ADFEDDB0AE3
:104D100020EE200ABDEEC00A10EE100A00B2CC4907
:104D20000880C74890ED000AB1EE400ADFEDD30AD3
:104D300020EE200ABDEEC00A10EE100A00B2C549EE
:104D40000880BF4890ED000ADFEDCC0A20EE200A73
:104D5000BDEEC00A10EE100A00B2BF490880B84884
:104D600090ED000ADFEDC50A20EE200ABDEEC00A74
:104D700010EE100A00B2B9490880B14890ED000A5F
:104D8000DFEDBE0A20EE200ABDEEC00A10EE100ACA
:104D900000B2B34908804FF40060B2490880B249BC
:104DA0000880B2490880B2490880B2490880B249F7
:104DB00008807CE7FFE7A24890ED000AB5EEC00A44
:104DC000F1EE10FA7ED19F4890ED000AB5EEC00AD0
:104DD000F1EE10FAF6D19C4890ED000AB5EEC00A4B
:104DE000F1EE10FA6ED09FEDA60A04F02BFDB0EEA6
:104DF000408A9FEDA40A04F025FDC8EE000A9248FF
:104E000090ED000A20EE800ADFED9C0A20EE200AD9
:104E1000BDEEC00A10EE100A00B28C4908808A4824
:104E200090ED000ADFED950A20EE200ABDEEC00AE3
:104E300010EE100A00B2864908809FED930A04F034
:104E400001FDB0EE408A9FED8F0A04F0FBFCC8EE36
:104E5000000A7D4890ED000A20EE800ADFED870A07
:104E600020EE200ABDEEC00A10EE100A00B2794909
:104E700008809FED850A04F0E5FCB0EE408A9FEDC6
:104E8000810A04F0DFFCC8EE000A6F4890ED000ACA
:104E900020EE800ADFED790A20EE200ABDEEC00A7E
:104EA00010EE100A00B26C490880674890ED000AC5
:104EB000DFED720A20EE200ABDEEC00A10EE100AE5
:104EC00000B200E011E1654908809FED6F0A04F02F
:104ED000B9FCB0EE408A9FED6B0A04F0B3FCC8EE5B
:104EE000000A594890ED000A20EE800ADFED630ABF
:104EF00020EE200ABDEEC00A10EE100A00B258499A
:104F000008809FED621B9FED630B04F045FA8DED69
:104F1000020B9FED620B53EC102B9DED020B51EC3D
:104F2000100BFBF7F6F9CDE904019DED040B51ECF4
:104F3000100BFBF7FFFA00F580604A4908809FEDEF
:104F4000591B9FED5A0B04F027FA8DED020B9FEDD4
:104F5000530B53EC102B9DED020B51EC100BFBF798
:104F6000D8F9CDE904019DED040B51EC100BFBF7D2
:104F7000E1FA00F580603C4908809FED441B9FEDFD
:104F80004D0B04F009FA8DED020B9FED440B53EC31
:104F9000102B9DED020B51EC100BFBF7BAF9CDE98C
:104FA00004019DED040B51EC100BFBF7C3FAC0F5A7
:104FB00040602E4908809FED351B9FED360B04F0B5
:104FC000EBF98DED020B9FED350B53EC102B9DEDA6
:104FD000020B51EC100BFBF79CF9CDE904019DEDA0
:104FE000040B51EC100BFBF7A5FAC0F5406020490B
:104FF00008809FED2C1B9FED2D0B04F0CDF98DED5E
:10500000020B9FED260B53EC102B9DED020B51EC88
:10501000100BFBF77EF9CDE904019DED040B51EC7B
:10502000100BFBF787FAC0F54060124908809FED2E
:10503000171B9FED200B04F0AFF98DED020B3DE047
:105040005000002054000020580000208000002064
:1050500082000020840000208600002088000020BC
:105060008A0000205C0000205E000020600000201C
:1050700062000020640000206600002000009643CB
:10508000DF4F2D3FA089003F355E5A3FA4703D0A97
:10509000D7A3E83F8FC2F5285C8FD23FC971A774B0
:1050A000305F8440295C8FC2F528BC3F6666666627
:1050B0006666E63F52B81E85EB51E03F1FED090BD7
:1050C00053EC102B9DED020B51EC100BFBF721F96B
:1050D000CDE904019DED040B51EC100BFBF72AFA0E
:1050E00000F58060FE490880E1E5FE4890ED000A89
:1050F000B5EEC00AF1EE10FA02F03682FA4890EDF1
:10510000000AB5EEC00AF1EE10FA42F02D82F7481F
:1051100090ED000AB5EEC00AF1EE10FAECD0F148BD
:1051200090ED000AB5EEC00AF1EE10FA7CDDEF4812
:1051300090ED000AB5EEC00AF1EE10FAF6DDE9488E
:1051400090ED000AE948D0ED000A80EE201AE84808
:1051500080ED001AE54890ED000A04F0FAFFB0EE89
:10516000408AE34890ED000ADFEDE20A30EE600A83
:105170008DED000A9DED000A04F0EBFFF0EE401A01
:10518000DB4890ED000ADFEDDB0A30EE600A8DEDC2
:10519000000A9DED000A04F0DCFF21EE800A8DED8F
:1051A000010A0198FBF7DFF99FEDD30B53EC102BAD
:1051B000CDE902019DED020B51EC100BFBF702F85B
:1051C000CDE904019DED040B51EC100BFBF7DEF96A
:1051D00006909DED060A04F035FB28EE400A5FEDCF
:1051E000590A20EE200ABDEEC00A10EE100A00B2E5
:1051F000C3490880BD4890ED000A04F0AAFFB0EE54
:10520000408ABB4890ED000ADFEDBE0A30EE600A2E
:105210008DED000A9DED000A04F09BFFF0EE401AB0
:10522000B34890ED000A00E0F9E3DFEDB60A30EE96
:10523000600A8DED000A9DED000A04F08AFF21EE60
:10524000800A8DED010A0198FBF78DF99FEDAE0BF9
:1052500053EC102BCDE902019DED020B51EC100B2C
:10526000FAF7B0FFCDE904019DED040B51EC100BF2
:10527000FBF78CF906909DED060A04F0E3FA28EEA0
:10528000400A5FED820A20EE200ABDEEC00A10EE51
:10529000100A00B29E490880944890ED000A04F07C
:1052A00058FFB0EE408A924890ED000ADFED990A6F
:1052B00030EE600A8DED000A9DED000A04F049FF12
:1052C000F0EE401A8A4890ED000ADFED920A30EEC7
:1052D000600A8DED000A9DED000A04F03AFF21EE10
:1052E000800A8DED010A0198FBF73DF99FED820BD5
:1052F00053EC102BCDE902019DED020B51EC100B8C
:10530000FAF760FFCDE904019DED040B51EC100BA1
:10531000FBF73CF906909DED060A04F093FA28EE9F
:10532000400A5FEDAA0A20EE200ABDEEC00A10EE88
:10533000100A00B2784908806C4890ED000A04F029
:1053400008FFB0EE408A6A4890ED000ADFED690A76
:1053500030EE200A8DED000A9DED000A04F0F9FE02
:10536000F0EE401A624890ED000ADFED620A30EE7E
:10537000200A8DED000A9DED000A04F0EAFE21EE00
:10538000800A8DED010A0198FBF7EDF89FED5A0BAD
:1053900053EC102BCDE902019DED020B51EC100BEB
:1053A000FAF710FFCDE904019DED040B51EC100B51
:1053B000FBF7ECF806909DED060A04F043FA28EEA0
:1053C000000A5FEDD20A20EE200ABDEEC00A10EE00
:1053D000100A00B251490880444890ED000A04F0D8
:1053E000B8FEB0EE408A424890ED000ADFED450A73
:1053F00030EE200A8DED000A9DED000A04F0A9FEB2
:10540000F0EE401A3A4890ED000ADFED3E0A30EE29
:10541000200A8DED000A9DED000A04F09AFE21EEAF
:10542000800A8DED010A0198FBF79DF89FED360B80
:1054300053EC102BCDE902019DED020B51EC100B4A
:10544000FAF7C0FECDE904019DED040B51EC100B01
:10545000FBF79CF806909DED060A04F0F3F928EEA0
:10546000000A5FEDFA0A20EE200ABDEEC00A10EE37
:10547000100A00B22A4908801C4890ED000A04F086
:1054800068FEB0EE408A1A4890ED000ADFED210A6E
:1054900030EE200A8DED000A9DED000A04F059FE61
:1054A000F0EE401A124890ED000ADFED1A0A30EED5
:1054B000200A8DED000A9DED000A04F04AFE21EE5F
:1054C000800A8DED010A0198FBF74DF89FED0A0B5C
:1054D00053EC102BCDE902019DED020B22E0000000
:1054E00066000020500000205400002058000020DA
:1054F00024000020E17A943E7E8CB96B09F9E23FEA
:10550000800000203333333F80B74082E2C7883FBA
:10551000820000205C8F023F840000208600002073
:105520008800002051EC100BFAF74CFECDE9040185
:105530009DED040B51EC100BFBF728F806909DED48
:10554000060A04F07FF928EE000ADFEDFC0A20EEDF
:10555000200ABDEEC00A10EE100A00B2F849088019
:10556000F84890ED000A5FED190AB4EEE00AF1EE9A
:1055700010FA7CDD90ED000A5FED220A30EE600A41
:105580008DED060ADDED060A9FEDEF0A04F004F842
:10559000DFEDEE0A20EE200ABCEEC00A10EE100A83
:1055A00000F50060EA490880E64890ED000A5FEDEA
:1055B0002B0A30EE600A8DED060ADDED060A9FED3E
:1055C000E50A03F0E9FFDFEDE10A20EE200ABCEE78
:1055D000C00A10EE100A00F50060DF490880D948C3
:1055E00090ED000A5FED350A30EE600A8DED060A97
:1055F000DDED060A9FEDD40A03F0CEFFDFEDD30AFE
:1056000020EE200ABCEEC00A10EE100AC0F50060C1
:10561000D2490880CB4890ED000A5FED4A0A30EE8F
:10562000200A8DED060ADDED060A9FEDC70A03F09C
:10563000B3FFDFEDC60A20EE200ABCEEC00A10EE72
:10564000100A00F50060C6490880BE4890ED000AC7
:105650005FED540A30EE200A8DED060ADDED060AF4
:105660009FEDBC0A03F098FFDFEDB80A00E024E0EC
:1056700020EE200ABCEEC00A10EE100A00F5006011
:10568000B8490880AF4890ED000A5FED5E0A30EE41
:10569000200A8DED060ADDED060A9FEDAB0A03F048
:1056A0007BFFDFEDAA0A20EE200ABCEEC00A10EE56
:1056B000100AC0F50060AC490880A24890ED000ACD
:1056C0005FED700AB4EEE00AF1EE10FA7DD890EDCD
:1056D000000A5FED700AB4EEE00AF1EE10FA74DD34
:1056E00090ED000A5FED7D0A30EE600A8DED060A4E
:1056F000DDED060A9FED940A03F04EFFDFED930AFD
:1057000020EE200ABCEEC00A10EE100A00F5006080
:105710008F4908808B4890ED000A5FED860A30EED5
:10572000C00A8DED060ADDED060A9FED8A0A03F038
:1057300033FFDFED860A20EE200ABCEEC00A10EE31
:10574000100AC0F58050844908807E4890ED000A18
:105750005FED900A30EE600A8DED060ADDED060A77
:105760009FED790A03F018FFDFED780A20EE200A9A
:10577000BCEEC00A10EE100AC0F500607749088040
:10578000704890ED000A5FEDA50A30EE200A8DED1D
:10579000060ADDED060A9FED6C0A03F0FDFEDFED63
:1057A0006B0A20EE200ABCEEC00A10EE100A00F5CB
:1057B00000606B490880634890ED000A5FEDAF0A16
:1057C00030EE200A8DED060A00E02CE0DDED060A41
:1057D0009FED600A03F0E0FEDFED5C0A20EE200A98
:1057E000BCEEC00A10EE100A00F500605D490880AA
:1057F000544890ED000A5FEDB90A30EE200A8DEDB5
:10580000060ADDED060A9FED500A03F0C5FEDFED46
:105810004F0A20EE200ABCEEC00A10EE100AC0F5B6
:10582000006051490880474890ED000A5FEDC70AC3
:10583000B4EEE00AF1EE10FA7ED890ED000A5FEDCA
:10584000D30A30EE600A8DED060ADDED060A9FED03
:105850003E0A03F0A1FEDFED3D0A20EE200ABCEE79
:10586000C00A10EE100A00F500603949088035487A
:1058700090ED000A5FEDDD0A30EEC00A8DED060AFC
:10588000DDED060A9FED330A03F086FEDFED2F0AF9
:1058900020EE200ABCEEC00A10EE100AC0F58050BF
:1058A0002D490880274890ED000A5FEDE60A30EEAA
:1058B000C00A8DED060ADDED060A9FED230A03F00E
:1058C0006BFEDFED220A20EE200ABCEEC00A10EECD
:1058D000100A224908801B4890ED000A5FEDFB0A80
:1058E00030EE200A8DED060ADDED060A9FED160A60
:1058F00003F052FEDFED150A20EE200ABCEEC00ACE
:1059000010EE100A00F50060154908800D4890ED72
:10591000000ADFED160A30EE200A8DED060ADDEDF5
:10592000060A9FED0C0A03F037FEDFED080A20EEB1
:10593000200ABCEEC00A1BE03BE0000000009643DA
:105940008A00002024000020B81E453F84F922442C
:105950005C000020AE47E13D5E00002060000020BA
:105960006200002064000020660000203333333FD3
:1059700010EE100A00F50060FE490880FE4890ED28
:10598000000ADFEDFE0A30EE200A8DED060ADDED9D
:10599000060A1FED130A03F0FFFD5FED140A20EE67
:1059A000200ABCEEC00A10EE100AC0F50060F449EF
:1059B0000880F4480088B0F5406F03DB4FF4406086
:1059C000F0490880F0480088B0F5406F03DB4FF4E1
:1059D0004060ED490880ED480088B0F5806F03DC39
:1059E0004FF48060E9490880E9480088B0F5406FCD
:1059F00003DB4FF44060E6490880DE480088B0F5DC
:105A0000406F03DB4FF44060DA490880DC480088CF
:105A1000B0F5806F03DC4FF48060D9490880DD4821
:105A200090ED000AB5EEC00AF1EE10FA7ED2DA4827
:105A300090ED000AB5EEC00AF1EE10FA76DDD54819
:105A400090ED000AB1EE400AD348D0ED000A80EE96
:105A5000201AC94880ED001ACF4890ED000A04F0E2
:105A600078FBB0EE408AC44890ED000ADFEDCB0A27
:105A700030EE600A8DED000A9DED000A04F069FB2E
:105A8000F0EE401ABC4890ED000ADFEDC40A30EE9B
:105A9000600A8DED000A9DED000A04F05AFB21EE2C
:105AA000800A8DED010A0198FAF75DFD9FEDBC0BB0
:105AB00053EC102BCDE902019DED020B51EC100BC4
:105AC000FAF780FBCDE904019DED040B51EC100BBE
:105AD000FAF75CFD06909DED060A03F0B3FE28EE92
